:020000040800F2
:10000000002000209D0B0008890B00088B0B0008C6
:1000100000000000000000000000000000000000E0
:100020000000000000000000000000008D0B000830
:1000300000000000000000008F0B0008910B00087A
:10004000ED0B000800000000ED0B0008ED0B0008B0
:10005000990B0008ED0B0008ED0B0008ED0B0008F4
:1000600000000000ED0B0008ED0B0008ED0B000890
:10007000ED0B0008ED0B0008ED0B00080000000080
:10008000ED0B0008ED0B000800000000ED0B000870
:10009000ED0B0008ED0B0008ED0B0008ED0B000860
:1000A000ED0B0008ED0B0008ED0B0008ED0B000850
:1000B000ED0B000800000000000000000000000040
:1000C00010B5064C2378002B07D1054B002B02D02E
:1000D000044800E000BF0123237010BD0C00002085
:1000E000000000005C0C0008044B10B5002B03D08E
:1000F0000349044800E000BF10BDC04600000000F6
:10010000100000205C0C0008002243088B4274D3CE
:1001100003098B425FD3030A8B4244D3030B8B4208
:1001200028D3030C8B420DD3FF22090212BA030C11
:100130008B4202D31212090265D0030B8B4219D3F2
:1001400000E0090AC30B8B4201D3CB03C01A524112
:10015000830B8B4201D38B03C01A5241430B8B425A
:1001600001D34B03C01A5241030B8B4201D30B0343
:10017000C01A5241C30A8B4201D3CB02C01A52416A
:10018000830A8B4201D38B02C01A5241430A8B422D
:1001900001D34B02C01A5241030A8B4201D30B0216
:1001A000C01A5241CDD2C3098B4201D3CB01C01A30
:1001B000524183098B4201D38B01C01A524143093A
:1001C0008B4201D34B01C01A524103098B4201D328
:1001D0000B01C01A5241C3088B4201D3CB00C01A95
:1001E000524183088B4201D38B00C01A524143080D
:1001F0008B4201D34B00C01A5241411A00D2014632
:10020000524110467047FFE701B5002000F006F8A4
:1002100002BDC0460029F7D076E770477047C04658
:1002200070B50500FA200D4B80001978FFF76CFFC0
:100230000B4B01001868FFF767FF00F085F804001A
:100240000120002C09D1032D07D8023822002900F3
:1002500000F03EF82000034B1D6070BD0000002040
:1002600008000020040000201023064A10B5116881
:1002700000200B431360FFF7D3FF00F067FC002062
:1002800010BDC04600200240034A044B11681B7891
:100290005B1813607047C046280000200000002053
:1002A000014B18687047C0462800002070B5040054
:1002B000FFF7F6FF0500631C02D0044B1B78E4181F
:1002C000FFF7EEFF401B8442FAD870BD000000200B
:1002D00070B58901002812DB8308134A03249B00B0
:1002E0009B18FF222040A0401400C02584401140EC
:1002F0008140AD005E59A6433143595170BD03247E
:100300000F23C0B203402040A040FC342500214010
:1003100085408140083B054A9B089B009B18DA6991
:10032000AA431143D961E9E700E100E000ED00E0F4
:10033000002805DB1F2318401E3B8340014A136041
:100340007047C04600E100E0094A431E0120934285
:100350000DD8C021074A08485360036A09061B02EA
:100360001B0A0B4303620020072390601360704751
:10037000FFFFFF0010E000E000ED00E0F0B50B68CB
:1003800087B0029300230191029ADA4001D107B0AD
:10039000F0BD01229A4003920399029A0A4000920A
:1003A00000D18CE0019A1021526816008E43022E73
:1003B0000ED107251D40AD000139A940DC08A4007D
:1003C0000419276A8F4301990969A9400F432762DD
:1003D00003245F00BC40E4430568013E2540AC4671
:1003E00003251540BD4061460D430560012E0FD821
:1003F00001998668CD682640BD40354385604668D2
:10040000039915098E4301210D409D4035434560F8
:10041000C56801992C408D688021BD4049052C4359
:10042000C4600A424BD00121264C0326A5691E4018
:100430000D43A561A4699D080C400594059C0F24FB
:100440002149AD00B6006D18B4409021AF68C905D0
:10045000A743002488420CD01C490134884208D0AC
:100460001B490134884204D01A490334884200D120
:10047000023CB44000993C430E00AC60164CCD43A6
:1004800027683E43D10301D43E002E4026606768B2
:10049000009E3E43910301D43E002E406660A76853
:1004A000009E3E43D10201D43E002E40A660E66885
:1004B000009F3743920201D42E403700E76001339A
:1004C00062E7C046001002400000014000040048FE
:1004D00000080048000C004800040140002A01D038
:1004E000816170478162FCE74369194200D00904C9
:1004F00081617047F0B5040085B0002802D1012069
:1005000005B0F0BD0368DB072ED423689B077ED4BB
:1005100023681B0700D5BAE023685B0700D5DDE040
:100520002368DB061AD56269B44D0423012A00D082
:1005300049E1696B02260B436B636B6B1A436A6379
:10054000FFF7AEFE07006B6B334200D134E1F821B8
:100550006A6BA3698A43DB0013436B63236A002B36
:1005600000D057E10020CBE70C21A44D6A680A4077
:10057000042A06D06B680B40082B09D16B68DB039B
:1005800006D52B689B03C0D56368002BBDD1B6E7A9
:100590006368012B13D180232A685B0213432B600D
:1005A000FFF77EFE80260700B6022B683342ACD1EF
:1005B000FFF776FEC01B6428F7D90320A0E7002BC5
:1005C00015D12B688E4A802613402B602B688D4AEC
:1005D000B60213402B60FFF763FE07002B6833421F
:1005E00093D0FFF75DFEC01B6428F7D9E5E7052B24
:1005F00005D180232A68DB0213432B60CBE72B68ED
:100600007F4A13402B602B687E4A1340C7E70C22B9
:100610007A4D6B68134206D06B681340082B11D1DA
:100620006B68DB030ED42B689B0703D5E368012BB3
:1006300000D064E7F8212A6823698A43DB0013436A
:100640002B6065E7E2680123002A0FD02A680226A2
:1006500013432B60FFF724FE07002B683342E9D1D8
:10066000FFF71EFEC01B0228F7D9A6E72A6802265C
:100670009A432A60FFF714FE07002B68334200D12B
:1006800046E7FFF70DFEC01B0228F6D995E7E269A1
:1006900001235A4D002A10D06A6A022613436B6266
:1006A000FFF7FEFD07006B6A334200D034E7FFF727
:1006B000F7FDC01B0228F6D97FE76A6A02269A4333
:1006C0006A62FFF7EDFD07006B6A334200D123E752
:1006D000FFF7E6FDC01B0228F6D96EE78022002155
:1006E000464D5205EB690091134208D1EB69134363
:1006F000EB61EB6913400393039B01230093802775
:10070000414E7F0033683B4206D0A368012B13D1D2
:100710002A6A13432B6230E033683B433360FFF7B0
:10072000BFFD019033683B42EFD1FFF7B9FD019B5C
:10073000C01A6428F6D940E70122002B14D12B6A95
:10074000022793432B622B6A033293432B62FFF7FA
:10075000A7FD06002B6A3B4225D0FFF7A1FD2B4BDE
:10076000801B9842F6D928E7052B0BD1296A013B5B
:100770000B432B622B6A1A432A62FFF791FD022773
:1007800006000DE02B6A934304222B622B6A9343ED
:10079000C0E7FFF785FD1D4B801B984200D90CE791
:1007A0002B6A3B42F5D0009B012B00D0B8E6EB69E9
:1007B000174A1340EB61B3E6FFF772FDC01B022836
:1007C00000D8C0E6F9E6053203D16A6B9A436A6342
:1007D000BDE66A6B0226134301226B636B6B934386
:1007E0006B63FFF75DFD07006B6B334200D1B5E62D
:1007F000FFF756FDC01B0228F6D9DEE600100240C6
:10080000FFFFFEFFFFFFFBFF0070004088130000AA
:10081000FFFFFFEF0C20354A516815000140082901
:1008200047D0334A022B32D12B68802613402B60ED
:10083000FFF736FD0700B6042B68334221D10F22A3
:10084000EB6A9343E26A1343EB62616AA36A6A68E4
:100850000B43284980240A4013436B6080232A6895
:100860005B0413432B60FFF71BFD0600A4042B68F9
:10087000234200D076E6FFF713FD801B0228F6D94D
:100880009BE6FFF70DFDC01B0228D5D995E62B6826
:10089000802413402B60FFF703FD0600A4042B689F
:1008A000234200D15EE6FFF7FBFC801B0228F6D94D
:1008B00083E61800012B00D122E680215368656A87
:1008C0004902D26A19400120A94200D018E60F213E
:1008D0000A40E16A8A4200D012E6F0208003034019
:1008E000A06A1B1A581E8341D8B209E600100240C4
:1008F000FFFFFFFEFFFFC2FF70B5144C88B010224F
:100900002100684600F098F9210004AD1022103152
:10091000280000F091F90C220D4E73681A40082A45
:1009200011D10F206A46990C0140545CF26A0240D2
:10093000A95CDB0305D50748FFF7E6FB604308B079
:1009400070BD0548FAE70348F9E7C046740C000893
:100950000010024000127A0000093D00F7B50500C2
:100960000F00002801D10120FEBD0122374C236871
:1009700013408B421CD329688B0722D4CB072FD47A
:10098000012322681A40974251D32B68304C5B07F1
:1009900054D4FFF7B1FF63682E4A1B061B0FD35CCC
:1009A000D8402D4B18600020FFF73AFC0020DBE711
:1009B000236893430B432360236813409942D2D1A9
:1009C000D9E7234A4B0704D5E0235068DB000343F3
:1009D0005360F02053688343A86803435360CDE716
:1009E0001B4E6A683368012A19D19B03BBD50321CA
:1009F00073688B4313437360FFF752FC01900C2321
:100A000072681A406B689B009A42B9D0FFF748FCA5
:100A1000019BC01A114B9842F1D90320A4E7022A86
:100A200002D19B01E3D49EE79B07E0D49BE72268B9
:100A30009A43226022681A4295D1A6E76368084A61
:100A40001340EA6813436360A3E7C04600200240F6
:100A500000100240940C00080800002088130000D9
:100A6000FFF8FFFF70B5102690B03022002104A8D7
:100A700000F0EBF832000021684600F0E6F8A02311
:100A8000022401259B0304A80E930494079508965D
:100A90000C94FFF72FFD07230093002329006846DD
:100AA000019402930393FFF759FF10B070BD00004B
:100AB00070B588B0FFF7D8FBFFF7D4FF14220021F0
:100AC00003A800F0C2F880201D4B80025969C0269F
:100AD0000143596180215A69090302400192019A38
:100AE0005A69B6000A435A615B6900220B400293BF
:100AF00031001448029BFFF7F1FC902000240125EF
:100B0000114B03A9C005049305940395FFF736FC28
:100B100003A90C480594069403960495FFF72EFC50
:100B20000134FF3421000748FFF7DEFCFA204000C3
:100B3000FFF7BCFB802103488900FFF7D5FCF1E7F4
:100B400000100240000800480000121007B5012004
:100B50000C4B99690143996180219A6949050240CA
:100B60000092009ADA6903300A43DA610022DB69F5
:100B70000B4001931100019BFFF7AAFB0420FFF734
:100B8000D7FB07BD001002407047FEE77047704773
:100B900010B5FFF779FB10BD704770470D488546CB
:100BA0000D480E490E4A002302E0D458C4500433C5
:100BB000C4188C42F9D30B4A0B4C002301E013609C
:100BC0000432A242FBD3FFF7E8FF00F011F8FFF771
:100BD0006FFFFEE700200020000000200C00002036
:100BE000AC0C00080C0000202C000020FEE70000E8
:100BF00070B500260C4D0D4C641BA410A64209D103
:100C0000002600F02BF80A4D0A4C641BA410A642E3
:100C100005D170BDB300EB5898470136EEE7B3003D
:100C2000EB5898470136F2E7A40C0008A40C000822
:100C3000A40C0008A80C0008002310B59A4200D1AB
:100C400010BDCC5CC4540133F8E703008218934212
:100C500000D1704719700133F9E70000F8B5C046BC
:100C6000F8BC08BC9E467047F8B5C046F8BC08BC46
:040C70009E467047E5
:100C740002030405060708090A0B0C0D0E0F1010D9
:100C84000102030405060708090A0B0C0D0E0F10D8
:100C94000000000000000000010203040607080928
:040CA400E90000085B
:040CA800C10000087F
:0C0CAC00010000000400000000127A00AB
:0400000508000B9D47
:00000001FF
