:020000040800F2
:100000000000082071210008F9200008FB200008EA
:10001000FD200008FF20000801210008000000006A
:1000200000000000000000000000000003210008A4
:100030000521000800000000072100080921000830
:10004000C1210008C1210008C1210008C121000808
:10005000C1210008C1210008C1210008C1210008F8
:10006000C1210008C1210008C1210008C1210008E8
:10007000C1210008C1210008C1210008C1210008D8
:10008000C1210008C1210008C1210008C1210008C8
:10009000C1210008C1210008C1210008C1210008B8
:1000A000C1210008C1210008C1210008C1210008A8
:1000B0000D210008C1210008C1210008C12100084C
:1000C000C1210008C1210008C1210008C121000888
:1000D000C1210008C121000819210008C121000820
:1000E000C1210008C1210008C1210008C121000868
:1000F000C1210008C1210008C1210008C121000858
:10010000C1210008C1210008C1210008C121000847
:10011000C1210008C1210008C1210008C121000837
:10012000C1210008C1210008C1210008C121000827
:10013000C1210008C1210008C1210008C121000817
:10014000C1210008C1210008C1210008C121000807
:10015000C1210008C1210008C1210008C1210008F7
:10016000C1210008C1210008C1210008C1210008E7
:10017000C1210008C1210008C121000800000000C1
:10018000C1210008C1210008C1210008C1210008C7
:10019000C1210008C1210008C1210008C1210008B7
:1001A000C1210008C1210008C1210008C1210008A7
:1001B000C1210008C1210008C1210008C121000897
:1001C000C1210008C121000800000000C121000871
:1001D000C1210008C1210008C1210008C121000877
:1001E000C1210008C1210008C1210008C121000867
:0801F000C1210008C121000833
:1001F80010B5054C237833B9044B13B10448AFF359
:1002080000800123237010BD1800002000000000AA
:100218001C22000808B5034B1BB103490348AFF380
:10022800008008BD000000001C0000201C220008FF
:1002380053B94AB9002908BF00281CBF4FF0FF3145
:100248004FF0FF3000F07AB9ADF1080C6DE904CE3B
:1002580000F006F8DDF804E0DDE9022304B0704799
:100268002DE9F0478C460D460446089E002B51D1D7
:100278008A4217466DD9B2FA82FEBEF1000F0BD042
:10028800CEF1200C01FA0EF520FA0CFC02FA0EF75A
:100298004CEA050C00FA0EF44FEA174A250CBCFB91
:1002A800FAF81FFA87F90AFB18CC45EA0C4508FB4F
:1002B80009F3AB420AD9ED1908F1FF3280F0238126
:1002C800AB4240F22081A8F102083D44ED1AA4B2E5
:1002D800B5FBFAF00AFB105544EA054400FB09F99E
:1002E800A14509D9E41900F1FF3380F00A81A1453D
:1002F80040F2078102383C44A4EB090440EA084074
:100308000021002E61D024FA0EF4002334607360BB
:10031800BDE8F0878B4207D9002E54D0002186E82B
:1003280021000846BDE8F087B3FA83F1002940F0C0
:100338008E80AB4202D3824200F2FA80841A65EBC7
:1003480003050120AC46002E3FD086E81010BDE81A
:10035800F08712B90127B7FBF2F7B7FA87FEBEF1AB
:10036800000F34D1EB1B3A0C1FFA87FC0121B3FBB9
:10037800F2F8250C02FB183345EA03450CFB08F399
:10038800AB4207D9ED1908F1FF3002D2AB4200F2B7
:10039800D1808046ED1AA3B2B5FBF2F002FB1055EE
:1003A80043EA05440CFB00FCA44507D9E41900F115
:1003B800FF3302D2A44500F2B8801846A4EB0C041F
:1003C80040EA08409DE731463046BDE8F087CEF167
:1003D800200405FA0EF307FA0EF720FA04F83A0C8F
:1003E80025FA04F448EA0308B4FBF2F14FEA184589
:1003F80002FB11441FFA87FC45EA044501FB0CF394
:10040800AB4200FA0EF409D9ED1901F1FF3080F082
:100418008A80AB4240F2878002393D44EB1A1FFACA
:1004280088F5B3FBF2F002FB103345EA034500FB05
:100438000CF3AB4207D9ED1900F1FF386FD2AB428C
:100448006DD902383D44EB1A40EA01418FE7C1F10A
:10045800200722FA07F88B4005FA01F448EA03035B
:1004680020FA07FE4FEA134CFD404EEA040EB5FB96
:10047800FCF94FEA1E440CFB19551FFA83F844EAAD
:10048800054509FB08F4AC4202FA01F200FA01FA48
:1004980008D9ED1809F1FF3043D2AC4241D9A9F18E
:1004A80002091D442D1B1FFA8EFEB5FBFCF00CFB48
:1004B80010554EEA054400FB08F8A04507D9E41892
:1004C80000F1FF3529D2A04527D902381C4440EA5B
:1004D8000940A4EB0804A0FB02894C45C6464D46DA
:1004E80015D312D056B1BAEB0E0364EB050404FA27
:1004F80007F7CB401F43CC40376074600021BDE84C
:10050800F0871846F8E69046E0E6C245EAD2B8EB2E
:10051800020E69EB03050138E4E72846D7E74046B1
:1005280091E78146BEE7014678E702383C4445E753
:10053800084608E7A8F102083D442BE7704700BFCA
:1005480038B50E4B05460E4A18784FF47A73B3FB4C
:10055800F0F31068B0FBF3F000F09EF8044658B9C9
:100568000F2D09D8024629464FF0FF3000F04EF80B
:10057800044B20461D6038BD012038BD0000002016
:10058800140000200400002008B5032000F02CF817
:100598000020FFF7D5FF01F03DFD002008BD000059
:1005A800034A044B11681B780B441360704700BF63
:1005B8003400002000000020014B1868704700BF7D
:1005C8003400002038B50446FFF7F6FF0546631CE3
:1005D8001EBF044B1B78E418FFF7EEFF401B844254
:1005E800FAD838BD00000020074A0002D36800F49A
:1005F800E06023F4E0631B041B0C43F0BF6343F487
:1006080000330343D360704700ED00E0194B30B569
:10061800DC68C4F30224C4F10703251D042B28BF9A
:100628000423062D4FF001058CBF033C002405FA76
:1006380003F3002803F1FF3301EA030101FA04F18F
:1006480005FA04F404F1FF3402EA040242EA010262
:100658004FEA021207DB00F16040D2B200F56140B8
:1006680080F8002330BD00F00F00D2B2024B1A54BC
:1006780030BD00BF00ED00E014ED00E0002808DB0D
:100688004209012300F01F0003FA00F0014B43F870
:100698002200704700E100E00138B0F1807F0AD203
:1006A800064BF021064A5860002082F823100722E2
:1006B80098601A6070470120704700BF10E000E0A2
:1006C80000ED00E090F83530022B03D0802343651D
:1006D800012070470268052380F835300020136830
:1006E80023F00103136070472DE9F04F0B6885B0C4
:1006F800DFF8C081019300236C4ADFF8BC914FF00A
:10070800010E019C0EFA03FE0EEA0406B64540F0FF
:10071800B3804C6824F01007022F16D14FEAD30A91
:1007280003F0070B4FF00F0C00EB8A0A4FEA8B0B14
:10073800DAF820500CFA0BFC25EA0C0C0D6905FAC6
:100748000BF545EA0C05CAF820504FEA430A032581
:10075800D0F800B004F0030C05FA0AF5013F0CFAD2
:100768000AFCED43012F0BEA050B4CEA0B0CC0F811
:1007780000C011D8876807EA050BCF6807FA0AFC9A
:100788004CEA0B078760476827EA0E0EC4F3001788
:100798009F4047EA0E074760C7683D408F6807FAE1
:1007A8000AF73D43C560E50066D5D8F8445023F004
:1007B800030703F0030E4FF00F0C45F4804507F1D3
:1007C80080474FEA8E0EC8F8445007F59C37D8F892
:1007D800445005F480450395039D0CFA0EF5D7F8AF
:1007E80008A02AEA050C324DA8424CD005F58065D0
:1007F800A8424AD005F58065A84248D005F580652D
:10080800A84246D005F58065A84244D0484544D062
:1008180005F50065A84242D005F58065A84240D09C
:1008280005F58065A8423ED005F58065A84214BF4D
:100838000A25092505FA0EF514F4803F45EA0C054A
:10084800BD606FEA060715680CBF3D40354314F4D8
:10085800003F156055680CBF3D40354314F4801FB8
:10086800556095680CBF3D403543A4029560D56836
:1008780054BF3D403543D5600133102B7FF43FAF63
:1008880005B0BDE8F08F0025D4E70125D2E70225A1
:10089800D0E70325CEE70425CCE70525CAE70625DA
:1008A800C8E70725C6E70825C4E700BF003C0140A4
:1008B8000000024000380240001402400AB1816181
:1008C80070470904FBE700002DE9F341044618B915
:1008D800012002B0BDE8F0810368D80710D423686E
:1008E80099075ED42368190700F1A38023685A0783
:1008F80000F1C480A269002A40F02E810020E8E7B8
:10090800934B9A6802F00C02042A07D09A6802F006
:100918000C02082A0AD15B685A0207D58C4B1B685F
:100928009B03DCD56368002BD9D1D1E76368884D78
:10093800B3F5803F11D12B6843F480332B60FFF768
:100948003BFE834D06462B689F03C8D4FFF734FE51
:10095800801B6428F7D90320BBE79BB92B6823F4D5
:1009680080332B602B6823F480232B60FFF724FE51
:1009780006462B689803B2D5FFF71EFE801B642835
:10098800F7D9E8E7B3F5A02F2B6803D143F4802308
:100998002B60D0E723F480332B602B6823F480236B
:1009A800CCE76B4B9A6812F00C0F07D09A6802F0EC
:1009B8000C02082A11D15B6859020ED4644B1A68DC
:1009C800920702D5E268012A82D11A68216922F0C9
:1009D800F80242EAC1021A6084E7E3685C4DBBB1E1
:1009E8002B6843F001032B60FFF7E6FD06462B68F2
:1009F8009F0707D52B68226923F0F80343EAC2034F
:100A08002B606FE7FFF7D8FD801B0228EFD9A2E71C
:100A18002B6823F001032B60FFF7CEFD06462B68F9
:100A280098077FF55FAFFFF7C7FD801B0228F6D94F
:100A380091E76369464D83B16B6F43F001036B67C0
:100A4800FFF7BAFD06466B6F9B073FF54FAFFFF701
:100A5800B3FD801B0228F6D97DE76B6F23F00103F5
:100A68006B67FFF7A9FD06466B6F9F077FF53EAFE3
:100A7800FFF7A2FD801B0228F6D96CE7344B1A6CED
:100A8800D00027D41A6C012642F080521A641B6CDD
:100A980003F080530193019B2E4D2B68D9051BD57C
:100AA800A3682B4D012B27D12B6F43F001032B6734
:100AB80041F28835FFF780FD254F80463B6F9B0745
:100AC8003FD5002E3FF416AF214A136C23F0805314
:100AD80013640FE70026DFE72B6843F480732B606D
:100AE800FFF76AFD07462B68DA05D9D4FFF764FDDE
:100AF800C01B6428F7D92EE7ABB92B6F41F28838B1
:100B080023F001032B672B6F23F004032B67FFF7F8
:100B180053FD07462B6F9807D3D5FFF74DFDC01B34
:100B28004045F7D917E7052B2B6F03D143F0040392
:100B38002B67B9E723F001032B672B6F23F004031E
:100B4800B5E7FFF739FDA0EB0800A842B6D902E7E0
:100B58000038024000700040244DAB6803F00C03DD
:100B6800082B3FF4B5AE2B68022A23F080732B6064
:100B78002FD1FFF721FD06462B68990123D4226A5D
:100B8800E3691343626A43EA8213E26A43EA02634F
:100B9800226B43EA0273A26A144C5208013A43EAF0
:100BA80002436B602B6843F080732B60FFF704FDF2
:100BB800054623689A013FF5A1AEFFF7FDFC401BEF
:100BC8000228F6D9C7E6FFF7F7FC801B0228D3D91D
:100BD800C1E6FFF7F1FC04462B689B017FF58EAE5A
:100BE800FFF7EAFC001B0228F6D9B4E600380240F9
:100BF800104908B58B6803F00C03082B18D14A6814
:100C08004B68496802F03F0213F480030A48C1F3B5
:100C1800881118BF0023A1FB0001FFF709FB054B52
:100C28005B68C3F3014301335B00B0FBF3F008BD1D
:100C3800014808BD003802400024F4002DE9F041C5
:100C48000D46044610B90120BDE8F081464A1368F4
:100C580003F00F038B4228D321688F0730D4C807CD
:100C680043D4414A136803F00F039D4267D32268B7
:100C7800510770D4130707D53C4A2169936823F4B8
:100C8800604343EAC1039360FFF7B2FF374B384A2A
:100C98009B68C3F30313D35CD840364B186000201D
:100CA800FFF74EFC0020BDE8F081136823F00F0326
:100CB8000B431360136803F00F039942C3D1CBE7CA
:100CC80011F0040F294B03D09A6842F4E0529A605D
:100CD8000E0703D59A6842F460429A609A68A06841
:100CE80022F0F00202439A60B9E761681F4B0129BC
:100CF8001A681CD112F4003FA5D09A6841F28838CE
:100D08001A4E22F003020A439A60FFF755FC074681
:100D1800B368626803F00C03B3EB820FA1D0FFF74E
:100D28004BFCC01B4045F3D90320BDE8F0810229E4
:100D380002D112F0007FDFE712F0020FDCE7136840
:100D480023F00F032B431360136803F00F039D4236
:100D58007FF479AF8BE70549E0688B6823F4E053AB
:100D680003438B6086E700BF003C02400038024026
:100D78004522000814000020044B054A9B68C3F371
:100D88008223D35C034A1068D84070470038024079
:100D98005522000814000020044B054A9B68C3F341
:100DA8004233D35C034A1068D84070470038024089
:100DB80055220008140000202DE9F7430268044674
:100DC80012F001060BD0BA4B996821F40001996022
:100DD800466B99683143B6FA86F67609996012F43B
:100DE800002512D0B249E56BD1F88C30B5F5801FDB
:100DF80023F4401308BF012643EA050316BFB5FADA
:100E080085F500256D09C1F88C30D70210D5A848A2
:100E1800216CD0F88C30B1F5800F23F4400343EAFD
:100E28000103C0F88C3000F0A981002908BF012512
:100E380012F0807F18BF0126900631D59C4B9D4F3C
:100E48001A6C42F080521A641B6C03F080530193B1
:100E5800019B3B6843F480733B60FFF7ADFB804622
:100E68003B68D90540F18C81914F3B6F13F4407377
:100E780040F09181236B03F44072B2F5407F8C4AB5
:100E880040F0AF81916823F0704021F4F81120F40C
:100E9800407001439160C3F30B03116F0B43136759
:100EA8002368DF060CD5824AD2F88C1021F08071B5
:100EB800C2F88C10D2F88C10A06B0143C2F88C10C9
:100EC800580408D57A49606ED1F8902022F440324F
:100ED8000243C1F89020190408D57549A06ED1F8CD
:100EE800902022F440220243C1F89020DA0308D56A
:100EF8006F49E06ED1F8902022F440120243C1F805
:100F080090209F0308D56A49206FD1F8902022F4D9
:100F180040020243C1F89020580608D56449606C25
:100F2800D1F8902022F003020243C1F8902019065C
:100F380008D55F49A06CD1F8902022F00C0202433A
:100F4800C1F89020DA0508D55949E06CD1F890200D
:100F580022F030020243C1F890209F0508D5544979
:100F6800206DD1F8902022F0C0020243C1F89020F1
:100F7800580508D54E49606DD1F8902022F440728A
:100F88000243C1F89020190508D54949A06DD1F848
:100F9800902022F440620243C1F89020DA0408D578
:100FA8004349E06DD1F8902022F440520243C1F841
:100FB80090209F0408D53E49206ED1F8902022F455
:100FC80040420243C1F89020580208D53849A06F22
:100FD800D1F8902022F080620243C1F89020990253
:100FE8000CD53348E16FD0F89020B1F1006F22F0B2
:100FF800006208BF01250A43C0F8902013F0080FCB
:1010080018BF01255A0308D52949606FD1F89020E7
:1010180022F040720243C1F890201F0209D52449EA
:10102800D4F88000D1F8902022F080520243C1F811
:101038009020580109D51E49D4F88400D1F8902091
:1010480022F000520243C1F89020190109D518492D
:10105800D4F88800D1F88C2022F000720243C1F83D
:101068008C20DA0009D51249D4F88C00D1F88C20EC
:1010780022F080620243C1F88C20012E00F0B58076
:10108800B3F1007F00F0B180012D75D1084D2B68B8
:1010980023F080532B60FFF78FFA06462B689F00DA
:1010A80000F1278121680E0306D5E36B43B103E005
:1010B8000038024000700040CD021DD5236CDBB91A
:1010C800934AD2F88830D2F8880003F4403300F00D
:1010D800E0400343606943EA8013A06943EA006380
:1010E800C2F88830D2F88C30A06A23F4F85301385B
:1010F80043EA0023C2F88C30880215D5E36FB3F1B8
:10110800006F11D1824AD2F88830D2F8880003F0F3
:10111800706300F0E0400343606943EA8013206A8B
:1011280043EA0043C2F888300A0719D57849D1F84C
:101138008820D1F8883002F0706203F440331343FA
:10114800626943EA8213E26943EA0273C1F88830AC
:10115800D1F88C30E26A23F440331343C1F88C3061
:101168006B4C236843F080532360FFF725FA05464C
:1011780023689B0040F1C480002009E0012657E65F
:10118800FFF71AFAA0EB080064287FF669AE03207F
:1011980003B0BDE8F083226B02F4407293423FF43F
:1011A80069AE3B6F3A6F23F4407342F480323A677A
:1011B8003A6F22F480323A673B673B6FDA077FF574
:1011C80059AEFFF7F9F941F2883980463B6F9B0722
:1011D8003FF550AEFFF7F0F9A0EB08004845F5D908
:1011E800D5E7916821F4F81154E6494E336823F0A5
:1011F80080633360FFF7E0F9074633681B0172D458
:101208002268D70712D5636B83B9D6F88430D6F82D
:10121800841003F4403301F070610B43616843EAC2
:101228008113A16843EA0173C6F88430160303D515
:10123800E36BB3F5801F05D0D0021ED5236CB3F540
:10124800800F1AD13249D1F88430D1F8840003F4E0
:10125800403300F0E0400343606843EA8013E068ED
:1012680043EA0063C1F88430D1F88C00636A20F047
:101278001F00013B0343C1F88C30D10111D524492B
:10128800D1F88430D1F8840003F0706300F0E040B6
:101298000343606843EA8013206943EA0043C1F8C6
:1012A800843092010DD5236962681B0443EA8213D6
:1012B800E26843EA0263A26843EA0273144AC2F886
:1012C8008430134E336843F080633360FFF774F95A
:1012D800074633681B013FF5D7AEFFF76DF9C01B12
:1012E8006428F6D953E7FFF767F9C01B642884D947
:1012F8004DE7FFF761F9801B64287FF6CFAE46E71C
:10130800FFF75AF9401B64287FF632AF3FE700BF6A
:10131800003802407047704770477047704703684D
:101328001A69910710B504460FD5DA6892070CD5EB
:101338006FF002021A6101229B690277990700F097
:101348008580FFF7E9FF0023237723681A6952078E
:1013580010D5DA6850070DD56FF0040220461A61DF
:1013680002229B69227713F4407F75D0FFF7D4FFE0
:101378000023237723681A6911070FD5DA68120743
:101388000CD56FF0080220461A610422DB69227727
:101398009B0767D0FFF7C0FF0023237723681A69EC
:1013A800D00610D5DA68D1060DD56FF010022046A8
:1013B8001A610822DB69227713F4407F58D0FFF7BF
:1013C800ABFF0023237723681A69D20708D5DA68A8
:1013D800D00705D56FF0010220461A61FFF79AFF82
:1013E80023681A69110608D5DA68120605D56FF060
:1013F800800220461A6100F08EF923681A69D00528
:1014080008D5DA68110605D56FF4807220461A618E
:1014180000F082F923681A69520608D5DA6850067E
:1014280005D56FF0400220461A61FFF777FF236861
:101438001A69910622D5DA6892061FD56FF0200244
:1014480020461A61BDE8104000F064B9FFF763FF59
:101458002046FFF762FF76E7FFF75DFF2046FFF7BC
:101468005CFF85E7FFF757FF2046FFF756FF93E736
:10147800FFF751FF2046FFF750FFA2E710BD00001D
:10148800304A0368904212D0B0F1804F0FD0A2F5D5
:101498007C4290420BD002F58062904207D002F560
:1014A8008062904203D002F57842904219D14A688E
:1014B80023F070031343234A904229D0B0F1804FA0
:1014C80026D0A2F57C42904222D002F5806290425A
:1014D8001ED002F5806290421AD002F578429042FE
:1014E80016D0194A904213D002F5806290420FD06C
:1014F80002F5806290420BD0A2F59832904207D054
:1015080002F58062904203D002F58062904203D1D6
:1015180023F44073CA6813434A6923F080031343D2
:1015280003608B68C3620B688362064B984203D0E2
:1015380003F58063984201D10B690363012343617A
:10154800704700BF000001400040014010B504464C
:10155800A0B190F83D3003F0FF021BB980F83C20A1
:1015680000F070FD02232068211D84F83D30FFF74C
:1015780087FF0123002084F83D3010BD012010BDF5
:1015880010B50A43846842EA032324F47F442343C2
:10159800836010BD90F83C30012B70B504464FF0C5
:1015A800020017D084F83D000123206884F83C30FD
:1015B8008268414B134083600B68402B65D015D877
:1015C800102B0CD007D853B10123002084F83D30EC
:1015D80084F83C0070BD202B01D0302BF4D18268F8
:1015E80043F0070322F0700213431AE0602B34D053
:1015F80019D8502BE8D14A68CE68016A056A21F0EB
:101608000A0125F001050A430562836923F0F00306
:1016180043EA061383610262836823F0700343F090
:1016280057038360D0E7702B0CD0B3F5005FCBD1A4
:10163800CB684A688968FFF7A3FF2268936843F478
:10164800804308E0CB684A688968FFF799FF2268F9
:10165800936843F077039360B6E74D68CE68016AF4
:1016680021F0100101628269036A22F4704223F0BA
:10167800A00342EA063243EA0513826103628368E3
:1016880023F0700343F06703CBE74A68CE68016A2A
:10169800056A21F00A0125F001050A4305628369FC
:1016A80023F0F00343EA061383610262836823F0A0
:1016B800700343F04703B4E78800FEFF90F83C301E
:1016C800012B4FF0020330B51FD00268104D80F88F
:1016D8003D30AA425368946803D005F58065AA4254
:1016E80003D123F470034D682B430D6823F0700376
:1016F800896824F080042B432143536001239160BF
:1017080080F83D30002380F83C30184630BD00BFDB
:101718000000014070477047704703681A6822F458
:1017280090721A609A6822F001029A6020238367F7
:101738000023036670477047704700000368DA6942
:10174800196870B5160704469D6809D1950663D5D2
:101758008E0661D5036E002B75D0BDE87040184722
:1017680015F0010002D111F4907F55D0D50707D5A7
:10177800CE0505D501251D62E56F45F00105E56734
:10178800950706D528B102251D62E56F45F00405C9
:10179800E567560706D528B104251D62E56F45F0B3
:1017A8000205E567150707D58E0600D420B1082085
:1017B8001862E36F0343E367E36F002B43D095069A
:1017C80005D5880603D5236E0BB1204698472268B5
:1017D8002046E56F9268510602D415F0080517D027
:1017E800FFF79BFF23689A6852060DD59A68E06E4A
:1017F80022F040029A6038B1134B0365FEF762FF8E
:1018080008B3E06E036DA8E72046FFF795FF70BDAB
:10181800FFF792FFE56770BD160605D50D0603D5DF
:10182800636E83B1204698E750060CD54A060AD560
:101838001A68204622F040021A60202363670023BA
:101848006366FFF778FF70BD5518000808B5806B10
:101858000023A0F85A30A0F85230FFF76DFF08BDFA
:1018680038B5C26904460368816800691D68014388
:1018780060690143904811432840256A0143E068A4
:101888001960596821F4405101435960A169986869
:10189800294320F430600143996088498B4217D16D
:1018A800874B8849D3F8903003F00303B2F5004F13
:1018B800CB5C29D1082B00F29D80DFE813F08C0067
:1018C800E800EE009B00FA009B009B009B0076005E
:1018D8007D498B4206D17A4B7C49D3F8903003F08E
:1018E8000C03E3E77A498B421DD1754BD3F890304E
:1018F80003F03003102B00F0D9800ED8002B67D0EE
:10190800B2F5004F76D01023082B73D8DFE803F028
:10191800999FA272B4727272B700202B00F0BA803D
:10192800302B3FD0ECE76B498B420DD1644BD3F899
:10193800903003F0C003402B00F0B880DED9802B34
:1019480000F0A880C02BECE763498B4210D15C4BB8
:10195800D3F8903003F44073B3F5807F00F0A6808D
:10196800CCD9B3F5007F00F09580B3F5407FD8E778
:101978005A498B421ED1524BD3F8903003F440633E
:10198800B3F5806F00F0928006D8002B7CD0B2F5BA
:10199800004F2FD110238DE7B3F5006F7AD0B3F540
:1019A800406FF4D1B2F5004F69D16368580800F56B
:1019B800803078E04A498B4224D1414BD3F89030AB
:1019C80003F44053B3F5805F70D015D8002BDED1F7
:1019D800B2F5004F35D1FFF7CFF96268530803EB32
:1019E8004000B0FBF2F080B24FF6EF73A0F11002A6
:1019F8009A421AD9012020E0B3F5005F4AD0B3F526
:101A0800405FCEE737498B42F4D12D4BD3F8903065
:101A180003F44043B3F5804F48D07FF66FAFB3F57A
:101A2800004F37D0B3F5404F7BE720F00F03C0F3EA
:101A3800420022681843D0600020002323666366B2
:101A480038BDFFF799F9636800EB530008E0FFF72A
:101A5800A3F9F8E76368580800F5740000F510501A
:101A6800B0FBF3F080B24FF6EF73A0F110029A4288
:101A7800C0D82368D860DFE7FFF7BAF8E3E7636800
:101A8800580800F50040EBE7B2F5004FDFD1FFF74B
:101A980083F9A2E7B2F5004FDCD16368580800F17A
:101AA800F47000F59040B0FBF3F09CE7B2F5004FFE
:101AB800E2D1FFF79DF890E7F369FFEF00100140CE
:101AC8000038024034220008004400403822000850
:101AD80000480040004C0040005000400014014005
:101AE80000780040007C0040436ADA0710B506D54C
:101AF8000168846A4A6822F4003222434A609C07DB
:101B080006D50168C46A4A6822F4803222434A60D2
:101B1800590706D50168046B4A6822F480222243DB
:101B28004A601A0706D50168446B4A6822F40042E5
:101B380022434A60DC0606D50168846B8A6822F471
:101B4800805222438A60990606D50168C46B8A6868
:101B580022F4005222438A605A0610D50168046CA8
:101B68004A68B4F5801F22F4801242EA04024A60EF
:101B780005D14A68446C22F4C00222434A601B061D
:101B880006D50268816C536823F400230B43536025
:101B980010BD2DE9F041069D04460F4616469846AD
:101BA8002168CA6937EA02030CBF01220022B24247
:101BB80002D00020BDE8F0816B1CF2D0FEF7FCFCDF
:101BC800A0EB0800854201D3002DE9D1236803204A
:101BD8001A6822F4D0721A609A6822F001029A6098
:101BE80020236367A367002384F87030BDE8F08181
:101BF8002DE9F7439846436F04460E46202B91463D
:101C08004BD1002947D0002A45D090F87030012BDD
:101C180043D00123002580F870302123C56743672E
:101C2800FEF7CAFCA3680746A4F85090B3F5805F96
:101C3800A4F8529003D123690BB935461E46B4F86F
:101C480052203B46CDF8008092B24AB94021204646
:101C5800FFF79FFF50B9202384F87000636706E000
:101C6800002280212046FFF794FF18B1032003B01B
:101C7800BDE8F08322685EB935F8023BC3F3080378
:101C88009362B4F85230013B9BB2A4F85230D6E7C5
:101C980016F8013BF4E70120E9E70220E7E737B54A
:101CA80000250446C567FEF787FC226803461268CC
:101CB800120707D420230020636784F87000A36705
:101CC80003B030BD6FF07E424FF400112046009201
:101CD8002A46FFF75EFF0028ECD00320F0E710B596
:101CE800044640B3436F1BB980F8703000F0C6F962
:101CF8002268242320466367136823F001031360D6
:101D0800FFF7AEFD012816D0636A13B12046FFF72E
:101D1800EBFE236820465A6822F490425A609A687B
:101D280022F02A029A601A6842F00102BDE81040C7
:101D38001A60FFF7B4BF012010BD000008B50146C6
:101D48004FF47A7304220448FFF752FF4FF4FA70F5
:101D5800BDE80840FEF736BC8400002010B5B8B0D6
:101D680034220021002407A800F04CFA1422002194
:101D780002A800F047FA0021902214A800F042FAC5
:101D8800194B07A81A6C42F080521A641B6C174A48
:101D980003F080530093009B136823F4404343F4FB
:101DA8008043136013680D9403F440430193019B2F
:101DB8000223079301230A9310230B93FEF784FD54
:101DC8000F23214602A8039402934FF480530494EE
:101DD80005930694FEF732FF802314A826941493E3
:101DE800FEF7EAFF38B010BD00380240007000402E
:101DF80080B58EB00024FEF7C7FB4FF40059FFF7FB
:101E0800ADFF1422002109A800F0FCF9764B44F23A
:101E1800810176481A6B032502260B2742F004023B
:101E28004FF001081A631A6B02F004020092009A3C
:101E38001A6B42F080021A631A6B02F08002019258
:101E4800019A1A6B42F001021A631A6B02F001023E
:101E58000292029A1A6B42F002021A631A6B02F09B
:101E680002020392039A1A6B42F008021A631A6B71
:101E780002F008020492049A1A6B42F040021A63B4
:101E880000221B6B03F040030593059BFEF716FD2C
:101E9800002240215648FEF711FD564B09A9564825
:101EA8000A930B94CDF82490FEF71EFC322309A95F
:101EB800514809930B940C950A960D97FEF714FC5C
:101EC800862309A94D4809930B940C950A960D97FA
:101ED800FEF70AFC44F2810309A9444809930B94CC
:101EE8000C94CDF82880FEF7FFFB09A93F480B9416
:101EF8000C95CDF824900A960D97FEF7F5FB4FF454
:101F0800407309A93E48099307230B940C950D9338
:101F18000A96FEF7E9FB402309A9354809930B9473
:101F28000C94CDF82880FEF7DFFB802309A9304800
:101F380009930A940B94FEF7D7FB4FF4E85309A9C9
:101F48002E4809930A230B940C950D930A96FEF7D5
:101F5800CBFB4FF4007309A9284809930A940B9402
:101F6800FEF7C2FB4FF4205309A9214809930B94AB
:101F78000C950A96234D0D97FEF7B6FB10222146C5
:101F880009A800F03FF94FF08043284606940794CB
:101F98000894AC60EC602C61AC6185E81800FFF730
:101FA800D5FA4FF4805309A928460993FFF7F2FAA6
:101FB80006A9284606940894FFF780FB12484FF4B8
:101FC8001653124A8460C46004618461C461046267
:101FD80044620F4C80E80C000C234361FFF77FFE3E
:101FE8002046FFF7ABFEFBE7003802400004024042
:101FF80000180240000011100008024000000240D2
:10200800000C0240440000208400002000440040EE
:10201800080000200A4B82B01A6C42F080521A6401
:102028001A6C02F080520092009A5A6C42F4804274
:102038005A645B6C03F480430193019B02B07047C0
:10204800003802400368B3F1804F07B512D103F599
:102058000E331C201A6C42F001021A6400221B6C19
:10206800114603F001030193019BFEF7CFFA1C20F0
:10207800FEF704FB03B05DF804FB000010B588B060
:1020880004461422002103A800F0BCF82268164B6D
:102098009A4227D103F5FA3303A914481A6C42F47B
:1020A80000321A641A6C02F400320192019A1A6B17
:1020B80042F008021A631B6B03F008030293029BA9
:1020C80060230393022304930323069307230793B0
:1020D800FEF70AFB002226201146FEF797FA262073
:1020E800FEF7CCFA08B010BD00440040000C0240D6
:1020F8007047FEE7FEE7FEE7FEE770477047704768
:10210800FEF74EBA0148FFF70AB900BF44000020A5
:102118000148FFF713BB00BF840000200F490020CF
:10212800D1F8883043F47003C1F888300C4B1A6832
:1021380042F001021A6098601A6822F0847222F450
:1021480080321A60074A5A601A6822F480221A609C
:10215800D8604FF000638B60704700BF00ED00E06F
:102168000038024010300024DFF834D0002103E0AA
:102178000C4B5B58435004310B480C4B42189A42A5
:10218800F6D30B4A02E0002342F8043B094B9A427B
:10219800F9D3FFF7C3FF00F011F8FFF729FE7047E6
:1021A800000008207022000800000020180000200D
:1021B8001800002004010020FEE7000070B50D4E55
:1021C8000D4CA41BA4100025A54209D10B4E0C4CA4
:1021D80000F020F8A41BA4100025A54205D170BD6D
:1021E80056F8253098470135EEE756F825309847D8
:1021F8000135F2E768220008682200086822000812
:102208006C22000802440346934200D1704703F849
:10221800011BF9E7F8B500BFF8BC08BC9E4670473B
:0C222800F8B500BFF8BC08BC9E4670472B
:1022340001040208001010100410101002101010F5
:102244000800000000000000000102030406070863
:0C2254000900000000010203040000006B
:0822600008E0FF7F010000000F
:042268001D0200084B
:04226C00F90100086C
:1022700001000000100000006D6173616161616127
:08228000000000000024F4003E
:04000005080021715D
:00000001FF
