:020000040800F2
:1000000000000820BD0F0008590F00085B0F000812
:100010005D0F00085F0F0008610F0008000000007E
:10002000000000000000000000000000630F000856
:10003000650F000800000000670F0008690F000846
:100040000D1000080D1000080D1000080D1000081C
:100050000D1000086D0F00080D1000080D100008AD
:100060000D1000080D1000080D1000080D100008FC
:100070000D1000080D1000080D1000080D100008EC
:100080000D1000080D1000080D1000080D100008DC
:100090000D1000080D1000080D1000080D100008CC
:1000A0000D1000080D1000080D1000080D100008BC
:1000B0000D1000080D1000080D1000080D100008AC
:1000C0000D1000080D1000080D1000080D1000089C
:1000D0000D1000080D1000080D1000080D1000088C
:1000E0000D1000080D1000080D1000080D1000087C
:1000F0000D1000080D1000080D1000080D1000086C
:100100000D1000080D1000080D1000080D1000085B
:100110000D1000080D1000080D1000080D1000084B
:100120000D1000080D1000080D1000080D1000083B
:100130000D1000080D1000080D1000080D1000082B
:100140000D1000080D1000080D1000080D1000081B
:100150000D1000080D1000080D1000080D1000080B
:100160000D1000080D1000080D1000080D100008FB
:100170000D1000080D1000080D1000080000000010
:100180000D1000080D1000080D1000080D100008DB
:100190000D1000080D1000080D1000080D100008CB
:1001A0000D1000080D1000080D1000080D100008BB
:1001B0000D1000080D1000080D1000080D100008AB
:1001C0000D1000080D100008000000000D100008C0
:1001D0000D1000080D1000080D1000080D1000088B
:1001E0000D1000080D1000080D1000080D1000087B
:0801F0000D1000080D100008BD
:1001F80010B5054C237833B9044B13B10448AFF359
:1002080000800123237010BD0C00002000000000B6
:100218006810000808B5034B1BB103490348AFF346
:10022800008008BD000000001000002068100008D1
:1002380053B94AB9002908BF00281CBF4FF0FF3145
:100248004FF0FF3000F07AB9ADF1080C6DE904CE3B
:1002580000F006F8DDF804E0DDE9022304B0704799
:100268002DE9F0478C460D460446089E002B51D1D7
:100278008A4217466DD9B2FA82FEBEF1000F0BD042
:10028800CEF1200C01FA0EF520FA0CFC02FA0EF75A
:100298004CEA050C00FA0EF44FEA174A250CBCFB91
:1002A800FAF81FFA87F90AFB18CC45EA0C4508FB4F
:1002B80009F3AB420AD9ED1908F1FF3280F0238126
:1002C800AB4240F22081A8F102083D44ED1AA4B2E5
:1002D800B5FBFAF00AFB105544EA054400FB09F99E
:1002E800A14509D9E41900F1FF3380F00A81A1453D
:1002F80040F2078102383C44A4EB090440EA084074
:100308000021002E61D024FA0EF4002334607360BB
:10031800BDE8F0878B4207D9002E54D0002186E82B
:1003280021000846BDE8F087B3FA83F1002940F0C0
:100338008E80AB4202D3824200F2FA80841A65EBC7
:1003480003050120AC46002E3FD086E81010BDE81A
:10035800F08712B90127B7FBF2F7B7FA87FEBEF1AB
:10036800000F34D1EB1B3A0C1FFA87FC0121B3FBB9
:10037800F2F8250C02FB183345EA03450CFB08F399
:10038800AB4207D9ED1908F1FF3002D2AB4200F2B7
:10039800D1808046ED1AA3B2B5FBF2F002FB1055EE
:1003A80043EA05440CFB00FCA44507D9E41900F115
:1003B800FF3302D2A44500F2B8801846A4EB0C041F
:1003C80040EA08409DE731463046BDE8F087CEF167
:1003D800200405FA0EF307FA0EF720FA04F83A0C8F
:1003E80025FA04F448EA0308B4FBF2F14FEA184589
:1003F80002FB11441FFA87FC45EA044501FB0CF394
:10040800AB4200FA0EF409D9ED1901F1FF3080F082
:100418008A80AB4240F2878002393D44EB1A1FFACA
:1004280088F5B3FBF2F002FB103345EA034500FB05
:100438000CF3AB4207D9ED1900F1FF386FD2AB428C
:100448006DD902383D44EB1A40EA01418FE7C1F10A
:10045800200722FA07F88B4005FA01F448EA03035B
:1004680020FA07FE4FEA134CFD404EEA040EB5FB96
:10047800FCF94FEA1E440CFB19551FFA83F844EAAD
:10048800054509FB08F4AC4202FA01F200FA01FA48
:1004980008D9ED1809F1FF3043D2AC4241D9A9F18E
:1004A80002091D442D1B1FFA8EFEB5FBFCF00CFB48
:1004B80010554EEA054400FB08F8A04507D9E41892
:1004C80000F1FF3529D2A04527D902381C4440EA5B
:1004D8000940A4EB0804A0FB02894C45C6464D46DA
:1004E80015D312D056B1BAEB0E0364EB050404FA27
:1004F80007F7CB401F43CC40376074600021BDE84C
:10050800F0871846F8E69046E0E6C245EAD2B8EB2E
:10051800020E69EB03050138E4E72846D7E74046B1
:1005280091E78146BEE7014678E702383C4445E753
:10053800084608E7A8F102083D442BE7704700BFCA
:1005480038B50E4B05460E4A18784FF47A73B3FB4C
:10055800F0F31068B0FBF3F000F09EF8044658B9C9
:100568000F2D09D8024629464FF0FF3000F04EF80B
:10057800044B20461D6038BD012038BD0000002016
:10058800080000200400002008B5032000F02CF823
:100598000020FFF7D5FF00F0B9FC002008BD0000DF
:1005A800034A044B11681B780B441360704700BF63
:1005B8002800002000000020014B1868704700BF89
:1005C8002800002038B50446FFF7F6FF0546631CEF
:1005D8001EBF044B1B78E418FFF7EEFF401B844254
:1005E800FAD838BD00000020074A0002D36800F49A
:1005F800E06023F4E0631B041B0C43F0BF6343F487
:1006080000330343D360704700ED00E0194B30B569
:10061800DC68C4F30224C4F10703251D042B28BF9A
:100628000423062D4FF001058CBF033C002405FA76
:1006380003F3002803F1FF3301EA030101FA04F18F
:1006480005FA04F404F1FF3402EA040242EA010262
:100658004FEA021207DB00F16040D2B200F56140B8
:1006680080F8002330BD00F00F00D2B2024B1A54BC
:1006780030BD00BF00ED00E014ED00E0002808DB0D
:100688004209012300F01F0003FA00F0014B43F870
:100698002200704700E100E00138B0F1807F0AD203
:1006A800064BF021064A5860002082F823100722E2
:1006B80098601A6070470120704700BF10E000E0A2
:1006C80000ED00E02DE9F04F0B6885B0DFF8C08140
:1006D800019300236C4ADFF8BC914FF0010E019C96
:1006E8000EFA03FE0EEA0406B64540F0B3804C68E5
:1006F80024F01007022F16D14FEAD30A03F0070B94
:100708004FF00F0C00EB8A0A4FEA8B0BDAF82050F7
:100718000CFA0BFC25EA0C0C0D6905FA0BF545EAF9
:100728000C05CAF820504FEA430A0325D0F800B058
:1007380004F0030C05FA0AF5013F0CFA0AFCED4334
:10074800012F0BEA050B4CEA0B0CC0F800C011D8BE
:10075800876807EA050BCF6807FA0AFC4CEA0B071B
:100768008760476827EA0E0EC4F300179F4047EAE0
:100778000E074760C7683D408F6807FA0AF73D4390
:10078800C560E50066D5D8F8445023F0030703F0A8
:10079800030E4FF00F0C45F4804507F180474FEAF0
:1007A8008E0EC8F8445007F59C37D8F8445005F425
:1007B80080450395039D0CFA0EF5D7F808A02AEAA0
:1007C800050C324DA8424CD005F58065A8424AD0A8
:1007D80005F58065A84248D005F58065A84246D051
:1007E80005F58065A84244D0484544D005F5006524
:1007F800A84242D005F58065A84240D005F580653D
:10080800A8423ED005F58065A84214BF0A250925EF
:1008180005FA0EF514F4803F45EA0C05BD606FEA51
:10082800060715680CBF3D40354314F4003F1560BA
:1008380055680CBF3D40354314F4801F55609568DA
:100848000CBF3D403543A4029560D56854BF3D4078
:100858003543D5600133102B7FF43FAF05B0BDE8B9
:10086800F08F0025D4E70125D2E70225D0E703253C
:10087800CEE70425CCE70525CAE70625C8E70725FE
:10088800C6E70825C4E700BF003C0140000002405D
:1008980000380240001402400AB18161704709041F
:1008A800FBE7436931EA030308BF09048161704724
:1008B800194B37B51A6C194C42F080521A641B6CEC
:1008C80003F080530193019B236843F48033236032
:1008D800FFF772FE05466368DA030CD5236843F414
:1008E80000332360FFF768FE0C4C054663689B03E2
:1008F8000AD5002006E0FFF75FFE401BB0F57A7FBF
:10090800E9D9032003B030BDFFF756FE401BB0F510
:100918007A7FEBD9F5E700BF00380240007000404D
:100928002DE9F341044618B9012002B0BDE8F08171
:100938000368D80710D4236899075ED42368190779
:1009480000F1A38023685A0700F1C480A269002A35
:1009580040F02E810020E8E7934B9A6802F00C02E1
:10096800042A07D09A6802F00C02082A0AD15B68A8
:100978005A0207D58C4B1B689B03DCD56368002B98
:10098800D9D1D1E76368884DB3F5803F11D12B6881
:1009980043F480332B60FFF70FFE834D06462B6828
:1009A8009F03C8D4FFF708FE801B6428F7D90320EB
:1009B800BBE79BB92B6823F480332B602B6823F4A7
:1009C80080232B60FFF7F8FD06462B689803B2D505
:1009D800FFF7F2FD801B6428F7D9E8E7B3F5A02FED
:1009E8002B6803D143F480232B60D0E723F48033B2
:1009F8002B602B6823F48023CCE76B4B9A6812F0AA
:100A08000C0F07D09A6802F00C02082A11D15B6813
:100A180059020ED4644B1A68920702D5E268012A7B
:100A280082D11A68216922F0F80242EAC1021A60EA
:100A380084E7E3685C4DBBB12B6843F001032B608E
:100A4800FFF7BAFD06462B689F0707D52B68226972
:100A580023F0F80343EAC2032B606FE7FFF7ACFD0E
:100A6800801B0228EFD9A2E72B6823F001032B6033
:100A7800FFF7A2FD06462B6898077FF55FAFFFF7E3
:100A88009BFD801B0228F6D991E76369464D83B127
:100A98006B6F43F001036B67FFF78EFD06466B6FC4
:100AA8009B073FF54FAFFFF787FD801B0228F6D95C
:100AB8007DE76B6F23F001036B67FFF77DFD06464B
:100AC8006B6F9F077FF53EAFFFF776FD801B02280F
:100AD800F6D96CE7344B1A6CD00027D41A6C01266F
:100AE80042F080521A641B6C03F080530193019BFF
:100AF8002E4D2B68D9051BD5A3682B4D012B27D16B
:100B08002B6F43F001032B6741F28835FFF754FD43
:100B1800254F80463B6F9B073FD5002E3FF416AF0D
:100B2800214A136C23F0805313640FE70026DFE794
:100B38002B6843F480732B60FFF73EFD07462B6854
:100B4800DA05D9D4FFF738FDC01B6428F7D92EE79A
:100B5800ABB92B6F41F2883823F001032B672B6F59
:100B680023F004032B67FFF727FD07462B6F980731
:100B7800D3D5FFF721FDC01B4045F7D917E7052B53
:100B88002B6F03D143F004032B67B9E723F001036C
:100B98002B672B6F23F00403B5E7FFF70DFDA0EBE0
:100BA8000800A842B6D902E70038024000700040A9
:100BB800244DAB6803F00C03082B3FF4B5AE2B684B
:100BC800022A23F080732B602FD1FFF7F5FC06462D
:100BD8002B68990123D4226AE3691343626A43EAC2
:100BE8008213E26A43EA0263226B43EA0273A26A4F
:100BF800144C5208013A43EA02436B602B6843F0F5
:100C080080732B60FFF7D8FC054623689A013FF5EF
:100C1800A1AEFFF7D1FC401B0228F6D9C7E6FFF7C3
:100C2800CBFC801B0228D3D9C1E6FFF7C5FC0446DC
:100C38002B689B017FF58EAEFFF7BEFC001B0228D8
:100C4800F6D9B4E600380240134908B58B6803F0BA
:100C58000C03042B03D0082B03D0104808BD104800
:100C680008BD4A684B68496802F03F0213F48003E4
:100C7800C1F388111ABF0A4800230848A1FB0001E4
:100C8800FFF7D6FA044B5B68C3F3014301335B00FB
:100C9800B0FBF3F008BD00BF003802400024F400A8
:100CA80000127A002DE9F0410D46044610B90120E2
:100CB800BDE8F081464A136803F00F038B4228D33E
:100CC80021688F0730D4C80743D4414A136803F01A
:100CD8000F039D4267D32268510770D4130707D5C5
:100CE8003C4A2169936823F4604343EAC103936053
:100CF800FFF7AAFF374B384A9B68C3F30313D35C4B
:100D0800D840364B18600020FFF71AFC0020BDE8D9
:100D1800F081136823F00F030B431360136803F08B
:100D28000F039942C3D1CBE711F0040F294B03D02D
:100D38009A6842F4E0529A600E0703D59A6842F422
:100D480060429A609A68A06822F0F00202439A60B2
:100D5800B9E761681F4B01291A681CD112F4003FDA
:100D6800A5D09A6841F288381A4E22F003020A4345
:100D78009A60FFF721FC0746B368626803F00C032A
:100D8800B3EB820FA1D0FFF717FCC01B4045F3D986
:100D98000320BDE8F081022902D112F0007FDFE7CD
:100DA80012F0020FDCE7136823F00F032B431360E4
:100DB800136803F00F039D427FF479AF8BE7054971
:100DC800E0688B6823F4E05303438B6086E700BF39
:100DD800003C024000380240801000080800002053
:100DE80030B595B034220021022407A8002500F070
:100DF8002FF90021142202A800F02AF91B4B07A89A
:100E08001A6C42F080521A641B6C194A03F0805322
:100E18000093009B136823F4404343F4804313601A
:100E28001368079403F440430D940E950193019BB6
:100E3800012311940A9310230B9308230F93602323
:100E4800109304231293FFF76BFDFFF731FD0F2377
:100E5800032102A802934FF4805303940495059349
:100E68000695FFF71FFF15B030BD00BF00380240E0
:100E78000070004000B589B0224CFFF785FBFFF7F2
:100E8800AFFF1422002103A800F0E2F81E4B44F241
:100E980081011C481A6B42F002021A631A6B02F0B5
:100EA80002020192019A1A6B42F001021A630022AF
:100EB8001B6B03F001030293029BFFF7EDFC44F266
:100EC800810303A90F480393012304930023059387
:100ED8000693FFF7F7FB01212046FFF7E2FC6420A9
:100EE800FFF770FB80212046FFF7DBFC6420FFF74B
:100EF80069FB20464FF48041FFF7D3FC6420FFF7DD
:100F080061FBE8E700040240003802400F4B07B5D8
:100F18001A6C052042F080521A641A6C02F0805252
:100F28000092009A5A6C42F480425A6400225B6C28
:100F3800114603F480430193019BFFF767FB0520EB
:100F4800FFF79CFB03B05DF804FB00BF00380240CC
:100F58007047FEE7FEE7FEE7FEE770477047704719
:100F6800FFF71EBB704700000F490020D1F88830FA
:100F780043F47003C1F888300C4B1A6842F0010240
:100F88001A6098601A6822F0847222F480321A601B
:100F9800074A5A601A6822F480221A60D8604FF013
:100FA80000638B60704700BF00ED00E0003802402E
:100FB80010300024DFF834D0002103E00C4B5B58DC
:100FC800435004310B480C4B42189A42F6D30B4A53
:100FD80002E0002342F8043B094B9A42F9D3FFF799
:100FE800C3FF00F011F8FFF745FF70470000082025
:100FF800A0100008000000200C0000200C000020B9
:101008002C000020FEE7000070B50D4E0D4CA41B0F
:10101800A4100025A54209D10B4E0C4C00F020F875
:10102800A41BA4100025A54205D170BD56F8253093
:1010380098470135EEE756F8253098470135F2E72D
:101048009810000898100008981000089C100008D4
:1010580002440346934200D1704703F8011BF9E7A5
:10106800F8B500BFF8BC08BC9E467047F8B500BF8D
:08107800F8BC08BC9E4670475D
:101080000000000000000000010203040607080938
:08109000D8F1FF7F0100000010
:041098001D0200082D
:04109C00F90100084E
:0C10A00001000000100000000024F4001B
:0400000508000FBD23
:00000001FF
