:020000040800F2
:10000000000008209D1700083D1700083F17000852
:1000100041170008431700084517000800000000BA
:10002000000000000000000000000000471700086A
:1000300049170008000000004B1700084D17000882
:10004000ED170008ED170008ED170008ED17000880
:10005000ED170008ED170008ED170008ED17000870
:10006000ED170008ED170008ED170008ED17000860
:10007000ED170008ED170008ED170008ED17000850
:10008000ED170008ED170008ED170008ED17000840
:10009000ED170008ED170008ED170008ED17000830
:1000A000ED170008ED170008ED170008ED17000820
:1000B000ED170008ED170008ED170008ED17000810
:1000C000ED170008ED170008ED170008ED17000800
:1000D000ED170008ED170008ED170008ED170008F0
:1000E000ED170008ED170008ED170008ED170008E0
:1000F000ED170008ED170008ED170008ED170008D0
:10010000ED170008ED170008ED170008ED170008BF
:10011000ED170008ED170008ED170008ED170008AF
:10012000ED170008ED170008ED170008ED1700089F
:10013000ED170008ED170008ED170008ED1700088F
:10014000ED170008ED170008ED170008ED1700087F
:10015000ED170008ED170008ED170008ED1700086F
:10016000ED170008ED170008ED170008ED1700085F
:10017000ED170008ED170008ED170008000000005B
:10018000ED170008ED170008ED170008ED1700083F
:10019000ED170008ED170008ED170008ED1700082F
:1001A000ED170008ED170008ED170008ED1700081F
:1001B000ED170008ED170008ED170008ED1700080F
:1001C000ED170008ED17000800000000ED1700080B
:1001D000ED170008ED170008ED170008ED170008EF
:1001E000ED170008ED170008ED170008ED170008DF
:0801F000ED170008ED170008EF
:1001F80010B5054C237833B9044B13B10448AFF359
:1002080000800123237010BD0C00002000000000B6
:100218004818000808B5034B1BB103490348AFF35E
:10022800008008BD000000001000002048180008E9
:1002380053B94AB9002908BF00281CBF4FF0FF3145
:100248004FF0FF3000F07AB9ADF1080C6DE904CE3B
:1002580000F006F8DDF804E0DDE9022304B0704799
:100268002DE9F0478C460D460446089E002B51D1D7
:100278008A4217466DD9B2FA82FEBEF1000F0BD042
:10028800CEF1200C01FA0EF520FA0CFC02FA0EF75A
:100298004CEA050C00FA0EF44FEA174A250CBCFB91
:1002A800FAF81FFA87F90AFB18CC45EA0C4508FB4F
:1002B80009F3AB420AD9ED1908F1FF3280F0238126
:1002C800AB4240F22081A8F102083D44ED1AA4B2E5
:1002D800B5FBFAF00AFB105544EA054400FB09F99E
:1002E800A14509D9E41900F1FF3380F00A81A1453D
:1002F80040F2078102383C44A4EB090440EA084074
:100308000021002E61D024FA0EF4002334607360BB
:10031800BDE8F0878B4207D9002E54D0002186E82B
:1003280021000846BDE8F087B3FA83F1002940F0C0
:100338008E80AB4202D3824200F2FA80841A65EBC7
:1003480003050120AC46002E3FD086E81010BDE81A
:10035800F08712B90127B7FBF2F7B7FA87FEBEF1AB
:10036800000F34D1EB1B3A0C1FFA87FC0121B3FBB9
:10037800F2F8250C02FB183345EA03450CFB08F399
:10038800AB4207D9ED1908F1FF3002D2AB4200F2B7
:10039800D1808046ED1AA3B2B5FBF2F002FB1055EE
:1003A80043EA05440CFB00FCA44507D9E41900F115
:1003B800FF3302D2A44500F2B8801846A4EB0C041F
:1003C80040EA08409DE731463046BDE8F087CEF167
:1003D800200405FA0EF307FA0EF720FA04F83A0C8F
:1003E80025FA04F448EA0308B4FBF2F14FEA184589
:1003F80002FB11441FFA87FC45EA044501FB0CF394
:10040800AB4200FA0EF409D9ED1901F1FF3080F082
:100418008A80AB4240F2878002393D44EB1A1FFACA
:1004280088F5B3FBF2F002FB103345EA034500FB05
:100438000CF3AB4207D9ED1900F1FF386FD2AB428C
:100448006DD902383D44EB1A40EA01418FE7C1F10A
:10045800200722FA07F88B4005FA01F448EA03035B
:1004680020FA07FE4FEA134CFD404EEA040EB5FB96
:10047800FCF94FEA1E440CFB19551FFA83F844EAAD
:10048800054509FB08F4AC4202FA01F200FA01FA48
:1004980008D9ED1809F1FF3043D2AC4241D9A9F18E
:1004A80002091D442D1B1FFA8EFEB5FBFCF00CFB48
:1004B80010554EEA054400FB08F8A04507D9E41892
:1004C80000F1FF3529D2A04527D902381C4440EA5B
:1004D8000940A4EB0804A0FB02894C45C6464D46DA
:1004E80015D312D056B1BAEB0E0364EB050404FA27
:1004F80007F7CB401F43CC40376074600021BDE84C
:10050800F0871846F8E69046E0E6C245EAD2B8EB2E
:10051800020E69EB03050138E4E72846D7E74046B1
:1005280091E78146BEE7014678E702383C4445E753
:10053800084608E7A8F102083D442BE7704700BFCA
:1005480038B50E4B05460E4A18784FF47A73B3FB4C
:10055800F0F31068B0FBF3F000F090F8044658B9D7
:100568000F2D09D8024629464FF0FF3000F04EF80B
:10057800044B20461D6038BD012038BD0000002016
:10058800080000200400002008B5032000F02CF823
:100598000020FFF7D5FF01F083F8002008BD000018
:1005A800034A044B11681B780B441360704700BF63
:1005B8002800002000000020014B1868704700BF89
:1005C8002800002038B50446FFF7F6FF0546631CEF
:1005D8001EBF044B1B78E418FFF7EEFF401B844254
:1005E800FAD838BD00000020074A0002D36800F49A
:1005F800E06023F4E0631B041B0C43F0BF6343F487
:1006080000330343D360704700ED00E0194B30B569
:10061800DC68C4F30224C4F10703251D042B28BF9A
:100628000423062D4FF001058CBF033C002405FA76
:1006380003F3002803F1FF3301EA030101FA04F18F
:1006480005FA04F404F1FF3402EA040242EA010262
:100658004FEA021207DB00F16040D2B200F56140B8
:1006680080F8002330BD00F00F00D2B2024B1A54BC
:1006780030BD00BF00ED00E014ED00E00138B0F13E
:10068800807F0AD2064BF021064A5860002082F883
:100698002310072298601A6070470120704700BF36
:1006A80010E000E000ED00E02DE9F04F0B6885B0A8
:1006B800DFF8C081019300236C4ADFF8BC914FF04A
:1006C800010E019C0EFA03FE0EEA0406B64540F040
:1006D800B3804C6824F01007022F16D14FEAD30AD2
:1006E80003F0070B4FF00F0C00EB8A0A4FEA8B0B55
:1006F800DAF820500CFA0BFC25EA0C0C0D6905FA07
:100708000BF545EA0C05CAF820504FEA430A0325C1
:10071800D0F800B004F0030C05FA0AF5013F0CFA12
:100728000AFCED43012F0BEA050B4CEA0B0CC0F851
:1007380000C011D8876807EA050BCF6807FA0AFCDA
:100748004CEA0B078760476827EA0E0EC4F30017C8
:100758009F4047EA0E074760C7683D408F6807FA21
:100768000AF73D43C560E50066D5D8F8445023F044
:10077800030703F0030E4FF00F0C45F4804507F113
:1007880080474FEA8E0EC8F8445007F59C37D8F8D2
:10079800445005F480450395039D0CFA0EF5D7F8EF
:1007A80008A02AEA050C324DA8424CD005F5806510
:1007B800A8424AD005F58065A84248D005F580656D
:1007C800A84246D005F58065A84244D0484544D0A3
:1007D80005F50065A84242D005F58065A84240D0DD
:1007E80005F58065A8423ED005F58065A84214BF8E
:1007F8000A25092505FA0EF514F4803F45EA0C058B
:10080800BD606FEA060715680CBF3D40354314F418
:10081800003F156055680CBF3D40354314F4801FF8
:10082800556095680CBF3D403543A4029560D56876
:1008380054BF3D403543D5600133102B7FF43FAFA3
:1008480005B0BDE8F08F0025D4E70125D2E70225E1
:10085800D0E70325CEE70425CCE70525CAE706251A
:10086800C8E70725C6E70825C4E700BF003C0140E4
:100878000000024000380240001402400AB18161C1
:1008880070470904FBE70000194B37B51A6C194C7F
:1008980042F080521A641B6C03F080530193019B51
:1008A800236843F480332360FFF786FE05466368B8
:1008B800DA030CD5236843F400332360FFF77CFE8A
:1008C8000C4C054663689B030AD5002006E0FFF739
:1008D80073FE401BB0F57A7FE9D9032003B030BD21
:1008E800FFF76AFE401BB0F57A7FEBD9F5E700BF4A
:1008F80000380240007000402DE9F341044618B961
:10090800012002B0BDE8F0810368D80710D423683D
:1009180099075ED42368190700F1A38023685A0752
:1009280000F1C480A269002A40F02E810020E8E787
:10093800934B9A6802F00C02042A07D09A6802F0D6
:100948000C02082A0AD15B685A0207D58C4B1B682F
:100958009B03DCD56368002BD9D1D1E76368884D48
:10096800B3F5803F11D12B6843F480332B60FFF738
:1009780023FE834D06462B689F03C8D4FFF71CFE51
:10098800801B6428F7D90320BBE79BB92B6823F4A5
:1009980080332B602B6823F480232B60FFF70CFE39
:1009A80006462B689803B2D5FFF706FE801B64281D
:1009B800F7D9E8E7B3F5A02F2B6803D143F48023D8
:1009C8002B60D0E723F480332B602B6823F480233B
:1009D800CCE76B4B9A6812F00C0F07D09A6802F0BC
:1009E8000C02082A11D15B6859020ED4644B1A68AC
:1009F800920702D5E268012A82D11A68216922F099
:100A0800F80242EAC1021A6084E7E3685C4DBBB1B0
:100A18002B6843F001032B60FFF7CEFD06462B68D9
:100A28009F0707D52B68226923F0F80343EAC2031E
:100A38002B606FE7FFF7C0FD801B0228EFD9A2E704
:100A48002B6823F001032B60FFF7B6FD06462B68E1
:100A580098077FF55FAFFFF7AFFD801B0228F6D937
:100A680091E76369464D83B16B6F43F001036B6790
:100A7800FFF7A2FD06466B6F9B073FF54FAFFFF7E9
:100A88009BFD801B0228F6D97DE76B6F23F00103DD
:100A98006B67FFF791FD06466B6F9F077FF53EAFCB
:100AA800FFF78AFD801B0228F6D96CE7344B1A6CD5
:100AB800D00027D41A6C012642F080521A641B6CAD
:100AC80003F080530193019B2E4D2B68D9051BD54C
:100AD800A3682B4D012B27D12B6F43F001032B6704
:100AE80041F28835FFF768FD254F80463B6F9B072D
:100AF8003FD5002E3FF416AF214A136C23F08053E4
:100B080013640FE70026DFE72B6843F480732B603C
:100B1800FFF752FD07462B68DA05D9D4FFF74CFDDD
:100B2800C01B6428F7D92EE7ABB92B6F41F2883880
:100B380023F001032B672B6F23F004032B67FFF7C8
:100B48003BFD07462B6F9807D3D5FFF735FDC01B34
:100B58004045F7D917E7052B2B6F03D143F0040362
:100B68002B67B9E723F001032B672B6F23F00403EE
:100B7800B5E7FFF721FDA0EB0800A842B6D902E7C8
:100B88000038024000700040244DAB6803F00C03AD
:100B9800082B3FF4B5AE2B68022A23F080732B6034
:100BA8002FD1FFF709FD06462B68990123D4226A45
:100BB800E3691343626A43EA8213E26A43EA02631F
:100BC800226B43EA0273A26A144C5208013A43EAC0
:100BD80002436B602B6843F080732B60FFF7ECFCDB
:100BE800054623689A013FF5A1AEFFF7E5FC401BD7
:100BF8000228F6D9C7E6FFF7DFFC801B0228D3D905
:100C0800C1E6FFF7D9FC04462B689B017FF58EAE41
:100C1800FFF7D2FC001B0228F6D9B4E600380240E0
:100C2800134908B58B6803F00C03042B03D0082B79
:100C380003D0104808BD104808BD4A684B68496889
:100C480002F03F0213F48003C1F388111ABF0A4867
:100C580000230848A1FB0001FFF7EAFA044B5B6890
:100C6800C3F3014301335B00B0FBF3F008BD00BFE1
:100C7800003802400024F40000127A002DE9F04107
:100C88000D46044610B90120BDE8F081464A1368B4
:100C980003F00F038B4228D321688F0730D4C8078D
:100CA80043D4414A136803F00F039D4267D3226877
:100CB800510770D4130707D53C4A2169936823F478
:100CC800604343EAC1039360FFF7AAFF374B384AF2
:100CD8009B68C3F30313D35CD840364B18600020DD
:100CE800FFF72EFC0020BDE8F081136823F00F0306
:100CF8000B431360136803F00F039942C3D1CBE78A
:100D080011F0040F294B03D09A6842F4E0529A601C
:100D18000E0703D59A6842F460429A609A68A06800
:100D280022F0F00202439A60B9E761681F4B01297B
:100D38001A681CD112F4003FA5D09A6841F288388D
:100D48001A4E22F003020A439A60FFF735FC074661
:100D5800B368626803F00C03B3EB820FA1D0FFF70E
:100D68002BFCC01B4045F3D90320BDE8F0810229C4
:100D780002D112F0007FDFE712F0020FDCE7136800
:100D880023F00F032B431360136803F00F039D42F6
:100D98007FF479AF8BE70549E0688B6823F4E0536B
:100DA80003438B6086E700BF003C024000380240E6
:100DB800601800080800002003685A6822F0E00262
:100DC8005A604268B2F5827F0AD18268B2F5004F54
:100DD80002D0B2F5806F03D11A6822F040021A607F
:100DE800826AB2F5005F07D11A6822F400521A60CD
:100DF8001A6842F400521A60012380F85D3000231B
:100E080080F85C300320704770B504460D461646DE
:100E18002368986810F0800000D170BD6A1CF8D073
:100E2800FFF7CAFB801B8542F2D82046BDE8704018
:100E3800FFF7C2BFF8B505460C4616461F46296897
:100E48008868204000D1F8BDB4F5C06F00D10B7B95
:100E5800731CF5D0FFF7B0FBC01B8642EFD82846BD
:100E6800BDE8F840FFF7A8BF70B513460D46164613
:100E78000A464FF4C0510446FFF7DCFF28B1236E41
:100E8800032043F0200323660FE03246294620461C
:100E9800FFF7BAFF0028F2D133462A464FF4C06163
:100EA8002046FFF7C7FF0028E9D170BDF8B54368B1
:100EB80004460E461746B3F5827F0BD18368B3F517
:100EC800004F02D0B3F5806F04D123681A6822F06E
:100ED80040021A603A4631462046FFF795FF05461C
:100EE80028B1236E032543F02003236613E06368CB
:100EF800B3F5827F0FD1A368B3F5004F02D0B3F5E5
:100F0800806F08D13B4632464FF4C0612046FFF758
:100F180091FF0028E5D12846F8BD70B504460028A1
:100F28004ED00023836290F85D3003F0FF021BB9B6
:100F380080F85C2000F0CCFB02232168E26884F88A
:100F48005D300B68B2F5E06F23F040030B604FF0A3
:100F5800000332D91846B2F5706F18BFA362236B2D
:100F68002BB9B2F5E06F8CBF022301232363A66877
:100F78006368A56933432669334366693343E66981
:100F88003343266A3343A66A334305F400762D0CAF
:100F9800334305F004050B60636A1A43636B1A4315
:100FA8002A43024300204A60CB6923F40063CB61E3
:100FB8000123206684F85D3070BD4FF48050CCE783
:100FC800012070BD2DE9F3411E4690F85C300446BF
:100FD8000D46012B904600F0B080012380F85C306C
:100FE800FFF7EAFA074694F85D00C0B2012840F01E
:100FF800A280002D5ED0B8F1000F5BD00323002043
:10100800A56384F85D30A3682066B3F5004FA4F8A3
:101018003E802064A4F84400A4F846002065E064FB
:10102800A4F83C80206803D1036843F4804303603C
:1010380003685B0603D4036843F040030360E36876
:10104800B3F5E06F63683ED913B1B8F1010F07D16A
:1010580035F8023BC360A563E38F013B9BB2E3878E
:10106800E38F9BB2A3B93A4631462046FFF7FCFE10
:1010780000285DD1A36833B901932368DA68019227
:101088009B680193019B206E003018BF012011E07E
:1010980022689368980705D5A36B33F8021BD160C3
:1010A800A363D9E7FFF788FAC01BB042D8D3711CF5
:1010B800D6D00320012384F85D30002384F85C3007
:1010C80002B0BDE8F08113B1B8F1010F13D1E38F7D
:1010D8009BB2012B06D935F8023BC360A563E38FA9
:1010E800023B06E02B780373A36B0133A363E38F02
:1010F800013B9BB2E387E38F9BB2002BB3D02368FD
:101108009A6892070CD5E28FA06B92B2012A04D993
:1011180030F8022BDA60A063E1E702781A73E3E79C
:10112800FFF74AFAC01B8642E5D8731CE3D0C0E734
:10113800202323669EE70220BCE70220C0E72DE9B2
:10114800F8431E4690F85C3004460D46012B914644
:10115800089F00F01581012380F85C30FFF72CFA16
:1011680094F85D3080466168DBB2012B0AD0B1F596
:10117800827F40F00381A068002840F0FF80042BA4
:1011880040F0FC80002D49D0B9F1000F46D0002E68
:1011980044D094F85D30042B02D0052384F85D30E8
:1011A800E26800232068B2F5E06F2366E364A4F8E0
:1011B80046602365E687C4F84090A4F84460A563B8
:1011C800A687436801D8012E2AD923F480534360A7
:1011D80003685B0603D4036843F040030360B2F579
:1011E800E06F56D909B1012E07D135F8023BC3602B
:1011F800E38FA563013B9BB2E3870125E38F9BB295
:101208008BB9B4F846309BB26BB942463946204692
:10121800FFF72AFE002834D020232366012030E07F
:1012280043F48053D3E72268936899070DD5E38F79
:101238009BB253B14DB1A36B002533F8021BD160AB
:10124800A363E38F013B9BB2E3879368DB070FD56A
:10125800B4F846309BB25BB1D2680125236C23F801
:10126800022B2364B4F84630013B9BB2A4F8463005
:10127800FFF7A2F9A0EB08008742BFD87E1CBDD0BB
:101288000320012384F85D30002384F85C30BDE836
:10129800F88309B1012E0BD1E38F9BB2012B51D9F1
:1012A80035F8023BC360E38FA563023B9BB2E3873B
:1012B8000125E38F9BB223B9B4F846309BB2002BCB
:1012C800A3D022689368980711D5E38F9BB273B1B6
:1012D8006DB1E38F9BB2012BA36B3BD933F8021B93
:1012E800D160A363E38F023B9BB20025E3872268AA
:1012F8009368D9071DD5B4F846309BB2CBB1B4F882
:1013080046309BB2012B236C2CD9D16823F8021BE1
:101318002364B4F84630023B9BB2A4F84630B4F8D4
:1013280046309BB2012B03D8536843F48053536073
:101338000125FFF741F9A0EB08008742B9D87B1CCB
:10134800B7D09DE72B780373A36B0133A363E38FB7
:10135800013BABE71B781373A36B0133A363E38FE4
:10136800013BC1E7127B1A70236C01332364B4F884
:101378004630013B9BB2A4F84630D9E7022080E70B
:101388000220BDE8F8832DE9F3411D464368044671
:101398008846B3F5827F17460CD1836853B9042376
:1013A80080F85D30134600950A46FFF7C8FE02B084
:1013B800BDE8F08194F85C30012B00F08D800123AA
:1013C80084F85C30FFF7F8F8064694F85D00C0B280
:1013D80001287FD1B8F1000F6AD0002F68D004230C
:1013E800E268216884F85D300023B2F5E06FC4F844
:1013F80040802366A363A4F84670A387E387E36469
:1014080023654B68A4F844708CBF23F4805343F4DD
:1014180080534B60A368B3F5004F03D10B6823F4E6
:1014280080430B600B685F0603D40B6843F04003EE
:101438000B60B2F5E06F23D9B4F846309BB223B302
:1014480023689A68D2073AD5DA68236C23F8022B06
:101458002364B4F84630013B9BB2A4F84630EBE76E
:1014680023689A68D0071BD51B7B226C1370236CEA
:1014780001332364B4F84630013B9BB2A4F84630EC
:10148800B4F846309BB2002BEAD1324629462046B2
:10149800FFF70CFDD8B9206E003018BF012007E017
:1014A800FFF78AF8801B8542EAD8691CE8D0032038
:1014B800012384F85D30002384F85C3077E7FFF778
:1014C8007BF8801B8542B7D86B1CB5D0EFE720238B
:1014D8002366E0E70220EBE7022068E730B595B025
:1014E80034220021022407A8002500F0A1F90021D8
:1014F800142202A800F09CF91B4B07A81A6C42F0B2
:1015080080521A641B6C194A03F080530093009BA5
:10151800136823F4404343F480431360136807942B
:1015280003F440430D940E950193019B01231194FC
:101538000A9310230B9308230F936023109304231B
:101548001293FFF7D9F9FFF79FF90F23032102A898
:1015580002934FF480530394049505930695FFF77F
:101568008DFB15B030BD00BF003802400070004050
:1015780080B588B00025FFF707F81026FFF7AEFF03
:101588001422002103A800F053F93F4B0127102132
:101598001A6B3E4842F010023D4C1A631A6B02F077
:1015A80010020092009A1A6B42F080021A631A6BBA
:1015B80002F080020192019A1A6B42F001021A634A
:1015C80001221B6B03F001030293029BFFF756F9FC
:1015D80003A92E480396059506950497FFF764F826
:1015E8002C4A4FF482732046A56025616561256207
:1015F8006562A562256384E80C004FF4E063E3604C
:101608004FF40073A3612023E3610723E3620823F7
:101618006363FFF782FC31463A461C48FFF72EF910
:101628000A20FEF7CFFF2A4631461848FFF726F969
:10163800194D06233A46294620462B706423FFF7A6
:10164800C1FC3146114E3A461048FFF717F93046AB
:1016580000221021FFF712F99F2301220E492B7057
:1016680020466423FFF7AEFC642304220B4920467E
:10167800FFF789FE304601221021FFF7FFF84FF4EB
:101688009670FEF79FFFE2E7003802400010024024
:101698004C00002000340140B00000202C00002045
:1016A8000A4B82B01A6C42F080521A641A6C02F02B
:1016B80080520092009A5A6C42F480425A645B6CE1
:1016C80003F480430193019B02B070470038024045
:1016D80010B588B004461422002103A800F0A8F829
:1016E8002268124B9A421FD103F5823303A910488E
:1016F8005A6C42F400525A645A6C02F40052019235
:10170800019A1A6B42F010021A631B6B03F0100364
:101718000293029B642303930223049303230693F7
:1017280005230793FEF7C0FF08B010BD0034014041
:10173800001002407047FEE7FEE7FEE7FEE770474D
:1017480070477047FEF72CBF0F490020D1F888304A
:1017580043F47003C1F888300C4B1A6842F0010258
:101768001A6098601A6822F0847222F480321A6033
:10177800074A5A601A6822F480221A60D8604FF02B
:1017880000638B60704700BF00ED00E00038024046
:1017980010300024DFF834D0002103E00C4B5B58F4
:1017A800435004310B480C4B42189A42F6D30B4A6B
:1017B80002E0002342F8043B094B9A42F9D3FFF7B1
:1017C800C3FF00F011F8FFF7D3FE704700000820B0
:1017D80080180008000000200C0000200C000020E9
:1017E800B4000020FEE7000070B50D4E0D4CA41BA0
:1017F800A4100025A54209D10B4E0C4C00F020F88E
:10180800A41BA4100025A54205D170BD56F82530AB
:1018180098470135EEE756F8253098470135F2E745
:101828007818000878180008781800087C1800084C
:1018380002440346934200D1704703F8011BF9E7BD
:10184800F8B500BFF8BC08BC9E467047F8B500BFA5
:08185800F8BC08BC9E46704775
:101860000000000000000000010203040607080950
:08187000F8E9FF7F0100000010
:041878001D02000845
:04187C00F901000866
:0C18800001000000100000000024F40033
:040000050800179D3B
:00000001FF
