:020000040800F2
:1000000000000820651800080518000807180008F7
:10001000091800080B1800080D180008000000005F
:100020000000000000000000000000000F180008A1
:100030001118000800000000131800081518000827
:10004000B5180008B5180008B5180008B51800085C
:10005000B5180008B5180008B5180008B51800084C
:10006000B5180008B5180008B5180008B51800083C
:10007000B5180008B5180008B5180008B51800082C
:10008000B5180008B5180008B5180008B51800081C
:10009000B5180008B5180008B5180008B51800080C
:1000A000B5180008B5180008B5180008B5180008FC
:1000B000B5180008B5180008B5180008B5180008EC
:1000C000B5180008B5180008B5180008B5180008DC
:1000D000B5180008B5180008B5180008B5180008CC
:1000E000B5180008B5180008B5180008B5180008BC
:1000F000B5180008B5180008B5180008B5180008AC
:10010000B5180008B5180008B5180008B51800089B
:10011000B5180008B5180008B5180008B51800088B
:10012000B5180008B5180008B5180008B51800087B
:10013000B5180008B5180008B5180008B51800086B
:10014000B5180008B5180008B5180008B51800085B
:10015000B5180008B5180008B5180008B51800084B
:10016000B5180008B5180008B5180008B51800083B
:10017000B5180008B5180008B51800080000000000
:10018000B5180008B5180008B5180008B51800081B
:10019000B5180008B5180008B5180008B51800080B
:1001A000B5180008B5180008B5180008B5180008FB
:1001B000B5180008B5180008B5180008B5180008EB
:1001C000B5180008B518000800000000B5180008B0
:1001D000B5180008B5180008B5180008B5180008CB
:1001E000B5180008B5180008B5180008B5180008BB
:0801F000B5180008B51800085D
:1001F80010B5054C237833B9044B13B10448AFF359
:1002080000800123237010BD0C00002000000000B6
:100218001019000808B5034B1BB103490348AFF395
:10022800008008BD00000000100000201019000820
:1002380053B94AB9002908BF00281CBF4FF0FF3145
:100248004FF0FF3000F07AB9ADF1080C6DE904CE3B
:1002580000F006F8DDF804E0DDE9022304B0704799
:100268002DE9F0478C460D460446089E002B51D1D7
:100278008A4217466DD9B2FA82FEBEF1000F0BD042
:10028800CEF1200C01FA0EF520FA0CFC02FA0EF75A
:100298004CEA050C00FA0EF44FEA174A250CBCFB91
:1002A800FAF81FFA87F90AFB18CC45EA0C4508FB4F
:1002B80009F3AB420AD9ED1908F1FF3280F0238126
:1002C800AB4240F22081A8F102083D44ED1AA4B2E5
:1002D800B5FBFAF00AFB105544EA054400FB09F99E
:1002E800A14509D9E41900F1FF3380F00A81A1453D
:1002F80040F2078102383C44A4EB090440EA084074
:100308000021002E61D024FA0EF4002334607360BB
:10031800BDE8F0878B4207D9002E54D0002186E82B
:1003280021000846BDE8F087B3FA83F1002940F0C0
:100338008E80AB4202D3824200F2FA80841A65EBC7
:1003480003050120AC46002E3FD086E81010BDE81A
:10035800F08712B90127B7FBF2F7B7FA87FEBEF1AB
:10036800000F34D1EB1B3A0C1FFA87FC0121B3FBB9
:10037800F2F8250C02FB183345EA03450CFB08F399
:10038800AB4207D9ED1908F1FF3002D2AB4200F2B7
:10039800D1808046ED1AA3B2B5FBF2F002FB1055EE
:1003A80043EA05440CFB00FCA44507D9E41900F115
:1003B800FF3302D2A44500F2B8801846A4EB0C041F
:1003C80040EA08409DE731463046BDE8F087CEF167
:1003D800200405FA0EF307FA0EF720FA04F83A0C8F
:1003E80025FA04F448EA0308B4FBF2F14FEA184589
:1003F80002FB11441FFA87FC45EA044501FB0CF394
:10040800AB4200FA0EF409D9ED1901F1FF3080F082
:100418008A80AB4240F2878002393D44EB1A1FFACA
:1004280088F5B3FBF2F002FB103345EA034500FB05
:100438000CF3AB4207D9ED1900F1FF386FD2AB428C
:100448006DD902383D44EB1A40EA01418FE7C1F10A
:10045800200722FA07F88B4005FA01F448EA03035B
:1004680020FA07FE4FEA134CFD404EEA040EB5FB96
:10047800FCF94FEA1E440CFB19551FFA83F844EAAD
:10048800054509FB08F4AC4202FA01F200FA01FA48
:1004980008D9ED1809F1FF3043D2AC4241D9A9F18E
:1004A80002091D442D1B1FFA8EFEB5FBFCF00CFB48
:1004B80010554EEA054400FB08F8A04507D9E41892
:1004C80000F1FF3529D2A04527D902381C4440EA5B
:1004D8000940A4EB0804A0FB02894C45C6464D46DA
:1004E80015D312D056B1BAEB0E0364EB050404FA27
:1004F80007F7CB401F43CC40376074600021BDE84C
:10050800F0871846F8E69046E0E6C245EAD2B8EB2E
:10051800020E69EB03050138E4E72846D7E74046B1
:1005280091E78146BEE7014678E702383C4445E753
:10053800084608E7A8F102083D442BE7704700BFCA
:1005480038B50E4B05460E4A18784FF47A73B3FB4C
:10055800F0F31068B0FBF3F000F090F8044658B9D7
:100568000F2D09D8024629464FF0FF3000F04EF80B
:10057800044B20461D6038BD012038BD0000002016
:10058800080000200400002008B5032000F02CF823
:100598000020FFF7D5FF01F0DDF8002008BD0000BE
:1005A800034A044B11681B780B441360704700BF63
:1005B8002800002000000020014B1868704700BF89
:1005C8002800002038B50446FFF7F6FF0546631CEF
:1005D8001EBF044B1B78E418FFF7EEFF401B844254
:1005E800FAD838BD00000020074A0002D36800F49A
:1005F800E06023F4E0631B041B0C43F0BF6343F487
:1006080000330343D360704700ED00E0194B30B569
:10061800DC68C4F30224C4F10703251D042B28BF9A
:100628000423062D4FF001058CBF033C002405FA76
:1006380003F3002803F1FF3301EA030101FA04F18F
:1006480005FA04F404F1FF3402EA040242EA010262
:100658004FEA021207DB00F16040D2B200F56140B8
:1006680080F8002330BD00F00F00D2B2024B1A54BC
:1006780030BD00BF00ED00E014ED00E00138B0F13E
:10068800807F0AD2064BF021064A5860002082F883
:100698002310072298601A6070470120704700BF36
:1006A80010E000E000ED00E02DE9F04F0B6885B0A8
:1006B800DFF8C081019300236C4ADFF8BC914FF04A
:1006C800010E019C0EFA03FE0EEA0406B64540F040
:1006D800B3804C6824F01007022F16D14FEAD30AD2
:1006E80003F0070B4FF00F0C00EB8A0A4FEA8B0B55
:1006F800DAF820500CFA0BFC25EA0C0C0D6905FA07
:100708000BF545EA0C05CAF820504FEA430A0325C1
:10071800D0F800B004F0030C05FA0AF5013F0CFA12
:100728000AFCED43012F0BEA050B4CEA0B0CC0F851
:1007380000C011D8876807EA050BCF6807FA0AFCDA
:100748004CEA0B078760476827EA0E0EC4F30017C8
:100758009F4047EA0E074760C7683D408F6807FA21
:100768000AF73D43C560E50066D5D8F8445023F044
:10077800030703F0030E4FF00F0C45F4804507F113
:1007880080474FEA8E0EC8F8445007F59C37D8F8D2
:10079800445005F480450395039D0CFA0EF5D7F8EF
:1007A80008A02AEA050C324DA8424CD005F5806510
:1007B800A8424AD005F58065A84248D005F580656D
:1007C800A84246D005F58065A84244D0484544D0A3
:1007D80005F50065A84242D005F58065A84240D0DD
:1007E80005F58065A8423ED005F58065A84214BF8E
:1007F8000A25092505FA0EF514F4803F45EA0C058B
:10080800BD606FEA060715680CBF3D40354314F418
:10081800003F156055680CBF3D40354314F4801FF8
:10082800556095680CBF3D403543A4029560D56876
:1008380054BF3D403543D5600133102B7FF43FAFA3
:1008480005B0BDE8F08F0025D4E70125D2E70225E1
:10085800D0E70325CEE70425CCE70525CAE706251A
:10086800C8E70725C6E70825C4E700BF003C0140E4
:100878000000024000380240001402400AB18161C1
:1008880070470904FBE700002DE9F341044618B955
:10089800012002B0BDE8F0810368D80710D42368AE
:1008A80099075ED42368190700F1A38023685A07C3
:1008B80000F1C480A269002A40F02E810020E8E7F8
:1008C800934B9A6802F00C02042A07D09A6802F047
:1008D8000C02082A0AD15B685A0207D58C4B1B68A0
:1008E8009B03DCD56368002BD9D1D1E76368884DB9
:1008F800B3F5803F11D12B6843F480332B60FFF7A9
:100908005BFE834D06462B689F03C8D4FFF754FE51
:10091800801B6428F7D90320BBE79BB92B6823F415
:1009280080332B602B6823F480232B60FFF744FE71
:1009380006462B689803B2D5FFF73EFE801B642855
:10094800F7D9E8E7B3F5A02F2B6803D143F4802348
:100958002B60D0E723F480332B602B6823F48023AB
:10096800CCE76B4B9A6812F00C0F07D09A6802F02C
:100978000C02082A11D15B6859020ED4644B1A681C
:10098800920702D5E268012A82D11A68216922F009
:10099800F80242EAC1021A6084E7E3685C4DBBB121
:1009A8002B6843F001032B60FFF706FE06462B6811
:1009B8009F0707D52B68226923F0F80343EAC2038F
:1009C8002B606FE7FFF7F8FD801B0228EFD9A2E73D
:1009D8002B6823F001032B60FFF7EEFD06462B681A
:1009E80098077FF55FAFFFF7E7FD801B0228F6D970
:1009F80091E76369464D83B16B6F43F001036B6701
:100A0800FFF7DAFD06466B6F9B073FF54FAFFFF721
:100A1800D3FD801B0228F6D97DE76B6F23F0010315
:100A28006B67FFF7C9FD06466B6F9F077FF53EAF03
:100A3800FFF7C2FD801B0228F6D96CE7344B1A6C0D
:100A4800D00027D41A6C012642F080521A641B6C1D
:100A580003F080530193019B2E4D2B68D9051BD5BC
:100A6800A3682B4D012B27D12B6F43F001032B6774
:100A780041F28835FFF7A0FD254F80463B6F9B0765
:100A88003FD5002E3FF416AF214A136C23F0805354
:100A980013640FE70026DFE72B6843F480732B60AD
:100AA800FFF78AFD07462B68DA05D9D4FFF784FDDE
:100AB800C01B6428F7D92EE7ABB92B6F41F28838F1
:100AC80023F001032B672B6F23F004032B67FFF739
:100AD80073FD07462B6F9807D3D5FFF76DFDC01B35
:100AE8004045F7D917E7052B2B6F03D143F00403D3
:100AF8002B67B9E723F001032B672B6F23F004035F
:100B0800B5E7FFF759FDA0EB0800A842B6D902E700
:100B18000038024000700040244DAB6803F00C031D
:100B2800082B3FF4B5AE2B68022A23F080732B60A4
:100B38002FD1FFF741FD06462B68990123D4226A7D
:100B4800E3691343626A43EA8213E26A43EA02638F
:100B5800226B43EA0273A26A144C5208013A43EA30
:100B680002436B602B6843F080732B60FFF724FD12
:100B7800054623689A013FF5A1AEFFF71DFD401B0E
:100B88000228F6D9C7E6FFF717FD801B0228D3D93C
:100B9800C1E6FFF711FD04462B689B017FF58EAE79
:100BA800FFF70AFD001B0228F6D9B4E60038024018
:100BB800104908B58B6803F00C03082B18D14A6854
:100BC8004B68496802F03F0213F480030A48C1F3F6
:100BD800881118BF0023A1FB0001FFF729FB054B73
:100BE8005B68C3F3014301335B00B0FBF3F008BD5E
:100BF800014808BD003802400024F4002DE9F04106
:100C08000D46044610B90120BDE8F081464A136834
:100C180003F00F038B4228D321688F0730D4C8070D
:100C280043D4414A136803F00F039D4267D32268F7
:100C3800510770D4130707D53C4A2169936823F4F8
:100C4800604343EAC1039360FFF7B2FF374B384A6A
:100C58009B68C3F30313D35CD840364B186000205D
:100C6800FFF76EFC0020BDE8F081136823F00F0346
:100C78000B431360136803F00F039942C3D1CBE70A
:100C880011F0040F294B03D09A6842F4E0529A609D
:100C98000E0703D59A6842F460429A609A68A06881
:100CA80022F0F00202439A60B9E761681F4B0129FC
:100CB8001A681CD112F4003FA5D09A6841F288380E
:100CC8001A4E22F003020A439A60FFF775FC0746A2
:100CD800B368626803F00C03B3EB820FA1D0FFF78F
:100CE8006BFCC01B4045F3D90320BDE8F081022905
:100CF80002D112F0007FDFE712F0020FDCE7136881
:100D080023F00F032B431360136803F00F039D4276
:100D18007FF479AF8BE70549E0688B6823F4E053EB
:100D280003438B6086E700BF003C02400038024066
:100D38002819000808000020036A23F0010370B591
:100D48000362036A4268846923F002030D6824F48D
:100D5800803424F073042C438D682B430E4DA84235
:100D680002D00E4EB04211D123F00803CE68A8423B
:100D780043EA060323F0040302D0084DA84205D134
:100D88004D6922F440728E6935432A4342604A68AD
:100D980084614263036270BD0000014000040140A9
:100DA800036A23F4807370B50362036A4268C469F6
:100DB80023F400730D6824F4803424F073042C4366
:100DC8008D6843EA0523114DA84203D005F58065D7
:100DD800A84214D1CD6823F4006343EA05230B4DE0
:100DE800A84223F4806303D005F58065A84206D1A4
:100DF8004D6922F440528E69354342EA0512426039
:100E08004A68C461C263036270BD00BF000001404C
:100E1800036A23F4805330B50362026A4468C369E5
:100E280022F400520D6823F0807323F4E64343EA6A
:100E380005238D6842EA0532084DA84203D005F51E
:100E48008065A84204D124F480444D6944EA85149D
:100E58004460C3614B680364026230BD0000014016
:100E6800036A23F4803330B50362026A4468436D31
:100E780022F400320D6823F4803323F070032B43EF
:100E88008D6842EA0542094DA84203D005F5806500
:100E9800A84204D124F480344D6944EA052444600E
:100EA80043654B688365026230BD00BF00000140A6
:100EB800036A23F4801330B50362026A4468436D01
:100EC80022F400120D6823F0807323F4E04343EA10
:100ED80005238D6842EA0552084DA84203D005F55E
:100EE8008065A84204D124F480244D6944EA85240D
:100EF800446043654B68C365026230BD0000014031
:100F080070470000304A0368904212D0B0F1804F19
:100F18000FD0A2F57C4290420BD002F5806290423D
:100F280007D002F58062904203D002F578429042E1
:100F380019D14A6823F070031343234A904229D0F9
:100F4800B0F1804F26D0A2F57C42904222D002F523
:100F5800806290421ED002F5806290421AD002F55B
:100F68007842904216D0194A904213D002F5806216
:100F780090420FD002F5806290420BD0A2F59832D1
:100F8800904207D002F58062904203D002F5806259
:100F9800904203D123F44073CA6813434A6923F08B
:100FA8008003134303608B68C3620B688362064B3C
:100FB800984203D003F58063984201D10B6903631B
:100FC80001234361704700BF000001400040014019
:100FD80010B50446A0B190F83D3003F0FF021BB9EC
:100FE80080F83C2000F0CEFB02232068211D84F805
:100FF8003D30FFF787FF0123002084F83D3010BD06
:10100800012010BD10B50446A0B190F83D3003F0A2
:10101800FF021BB980F83C20FFF772FF022320680B
:10102800211D84F83D30FFF76DFF0123002084F86F
:101038003D3010BD012010BD036A23F0100370B5C8
:101048000362036A4268846923F020030D6824F070
:10105800807424F4E64444EA05248D6843EA0513C1
:10106800104DA84203D005F58065A84214D1CD687B
:1010780023F0800343EA05130A4DA84223F04003F6
:1010880003D005F58065A84206D14D6922F4406277
:101098008E69354342EA850242604A688461826308
:1010A800036270BD0000014038B590F83C3004463A
:1010B8000220012B10D00123082A84F83D0084F86F
:1010C8003C3043D009D8FAB1042A2ED0012300209D
:1010D80084F83D3084F83C0038BD102A47D0142AE3
:1010E80056D00C2AF2D12068FFF792FE23680969CE
:1010F800DA6942F40062DA61DA6922F48062DA615C
:10110800DA6942EA012230E02068FFF715FE236819
:1011180009699A6942F008029A619A6922F0040200
:101128009A619A690A439A61D0E72068FFF784FFB9
:10113800236809699A6942F400629A619A6922F4FB
:1011480080629A619A6942EA0122ECE72068FFF717
:1011580027FE23680969DA6942F00802DA61DA6968
:1011680022F00402DA61DA690A43DA61AEE720683C
:10117800FFF776FE236809695A6D42F008025A653E
:101188005A6D22F004025A655A6D0A435A659DE762
:101198002068FFF78DFE236809695A6D42F40062E2
:1011A8005A655A6D22F480625A655A6D42EA0122E4
:1011B800ECE710B50A43846842EA032324F47F4429
:1011C8002343836010BD000090F83C30012B70B5BC
:1011D80004464FF0020017D084F83D000123206830
:1011E80084F83C308268414B134083600B68402B85
:1011F80065D015D8102B0CD007D853B10123002087
:1012080084F83D3084F83C0070BD202B01D0302B91
:10121800F4D1826843F0070322F0700213431AE006
:10122800602B34D019D8502BE8D14A68CE68016AAF
:10123800056A21F00A0125F001050A430562836960
:1012480023F0F00343EA061383610262836823F004
:10125800700343F057038360D0E7702B0CD0B3F5CD
:10126800005FCBD1CB684A688968FFF7A2FF226884
:10127800936843F4804308E0CB684A688968FFF7BD
:1012880098FF2268936843F077039360B6E74D6848
:10129800CE68016A21F0100101628269036A22F4B2
:1012A800704223F0A00342EA063243EA0513826142
:1012B8000362836823F0700343F06703CBE74A684F
:1012C800CE68016A056A21F00A0125F001050A4382
:1012D8000562836923F0F00343EA0613836102621F
:1012E800836823F0700343F04703B4E78800FEFFE8
:1012F80001F01F01036A10B501248A408C4023EADB
:1013080004030362036A1A43026210BD10B504465F
:1013180001220068FFF7ECFF23680D4A934211D0C1
:1013280002F5806293420DD099680A4A0A40062A5B
:1013380006D0B2F5803F03D01A6842F001021A6065
:10134800002010BD5A6C42F400425A64ECE700BF1A
:10135800000001400700010090F83C30012B4FF0DD
:10136800020330B51FD00268104D80F83D30AA4204
:101378005368946803D005F58065AA4203D123F425
:1013880070034D682B430D6823F07003896824F0BF
:1013980080042B43214353600123916080F83D3042
:1013A800002380F83C30184630BD00BF00000140E3
:1013B80090F83C30012B10B538D0CB688A6823F4FC
:1013C80040731B4C13434A6823F4806313430A6831
:1013D80023F4006313430A6923F4805313434A69CF
:1013E80023F4005313438A6A23F4804313438A691E
:1013F80023F4702343EA02430268A24203D004F5AF
:101408008064A2420CD14C6A23F4700343EA04536B
:10141800CC69096A23F08073234323F000730B43DC
:101428005364002380F83C30184610BD022010BDDC
:101438000000014030B595B034220021022407A8ED
:10144800002500F059FA0021142202A800F054FAED
:101458001A4B07A81A6C42F080521A641B6C184A7F
:1014680003F080530093009B136823F4404343F434
:10147800804313601368079403F440430D940E955A
:101488000193019B012312940A9310230B930823C1
:101498000F936023109306231193FFF7F5F90F2399
:1014A800294602A8039402938023069504934FF4D7
:1014B800A0530593FFF7A2FB15B030BD00380240DA
:1014C800007000402DE9F0474FF0140AA0B0FFF774
:1014D8005BF80024FFF7AEFF5246002115A800F084
:1014E8000BFA934B44F2810192481A6B4FF400595E
:1014F8000227032542F004024FF00B0801261A6365
:101508001A6B02F004020092009A1A6B42F08002F1
:101518001A631A6B02F080020192019A1A6B42F068
:1015280001021A631A6B02F001020292029A1A6B04
:1015380042F002021A631A6B02F002020392039A43
:101548001A6B42F010021A631A6B02F0100204922E
:10155800049A1A6B42F008021A631A6B02F0080226
:101568000592059A1A6B42F040021A6300221B6B1F
:1015780003F040030693069BFFF780F90022402101
:101588006D48FFF77BF96D4B15A96D481693CDF89B
:1015980054901794FFF788F8322315A968481593D3
:1015A800169718951794CDF86480FFF77DF8862371
:1015B80015A964481593169718951794CDF8648063
:1015C800FFF772F844F2810315A95A481593169645
:1015D80017941894FFF768F815A9564816971895A0
:1015E800CDF854901794CDF86480FFF75DF84FF468
:1015F800407315A9544815930723169718951993FE
:101608001794FFF751F8402315A94B4815931696E0
:101618000A2617941894FFF747F8802315A9464817
:10162800159316941794FFF73FF84FF4E85315A94C
:10163800444815931697189517941996FFF734F898
:101648004FF4007315A93F48159316941794FFF7A4
:101658002BF84FF420531697102715A936481593E1
:1016680018951794CDF86480FFF71EF83A4621467E
:101678000AA8364D00F040F91C2221460EA807940E
:101688000894099400F038F92C22214615A800F096
:1016980033F92F4B2846AC602C616C61AC6185E84E
:1016A80088006423EB60FFF793FC4FF480530AA98A
:1016B80028460A93FFF788FD2846FFF7A3FC07A9E9
:1016C8002846079408940994FFF746FE60232246AB
:1016D8000EA928460E93CDF83CA0109411941294AC
:1016E80013941494FFF7E0FC4FF0007315A92846F3
:1016F80015941D931694179418941994CDF868901E
:101708001B941C941E941F94FFF752FE284600F069
:101718004DF821462846FFF7F9FD2B684FF47A70FB
:101728005E630A36642E08BF0A26FEF74BFFF4E70D
:101738000038024000040240001802400000111066
:101748000008024000000240000C02402C0000206B
:10175800000001400A4B82B01A6C42F080521A64B1
:101768001A6C02F080520092009A5A6C42F480423D
:101778005A645B6C03F480430193019B02B0704789
:1017880000380240026882B0074B9A420AD103F53A
:101798009C335A6C42F001025A645B6C03F00103FB
:1017A8000193019B02B070470000014010B586B05C
:1017B80004461422002101A800F09EF822680D4B6F
:1017C8009A4215D103F59C3301A90B481A6B42F0D4
:1017D80010021A631B6B03F010030093009B4FF475
:1017E800007301930223029301230593FEF75CFF24
:1017F80006B010BD00000140001002407047FEE72F
:10180800FEE7FEE7FEE7704770477047FEF7C8BE81
:101818000F490020D1F8883043F47003C1F88830AC
:101828000C4B1A6842F001021A6098601A6822F09C
:10183800847222F480321A60074A5A601A6822F4C5
:1018480080221A60D8604FF000638B60704700BF39
:1018580000ED00E00038024010300024DFF834D0FA
:10186800002103E00C4B5B58435004310B480C4BF0
:1018780042189A42F6D30B4A02E0002342F8043B8E
:10188800094B9A42F9D3FFF7C3FF00F011F8FFF7AD
:1018980019FE7047000008204819000800000020C1
:1018A8000C0000200C0000206C000020FEE7000067
:1018B80070B50D4E0D4CA41BA4100025A54209D1EE
:1018C8000B4E0C4C00F020F8A41BA4100025A542D8
:1018D80005D170BD56F8253098470135EEE756F822
:1018E800253098470135F2E74019000840190008EB
:1018F800401900084419000802440346934200D1E5
:10190800704703F8011BF9E7F8B500BFF8BC08BC3D
:101918009E467047F8B500BFF8BC08BC9E467047A5
:101928000000000000000000010203040607080987
:0819380030E9FF7F010000000F
:041940001D0200087C
:04194400F90100089D
:0C19480001000000100000000024F4006A
:040000050800186572
:00000001FF
