:020000040800F2
:10000000000008202D1E0008991D00089B1D0008F7
:100010009D1D00089F1D0008A11D00080000000094
:10002000000000000000000000000000A31D000808
:10003000A51D000800000000A71D0008A91D00085C
:100040007D1E00087D1E00087D1E00087D1E000824
:100050007D1E00087D1E00087D1E00087D1E000814
:100060007D1E00087D1E00087D1E00087D1E000804
:100070007D1E00087D1E00087D1E00087D1E0008F4
:100080007D1E00087D1E00087D1E00087D1E0008E4
:100090007D1E00087D1E00087D1E00087D1E0008D4
:1000A0007D1E00087D1E00087D1E00087D1E0008C4
:1000B0007D1E00087D1E00087D1E00087D1E0008B4
:1000C0007D1E00087D1E00087D1E00087D1E0008A4
:1000D0007D1E00087D1E00087D1E00087D1E000894
:1000E0007D1E00087D1E00087D1E00087D1E000884
:1000F0007D1E00087D1E00087D1E00087D1E000874
:100100007D1E00087D1E00087D1E00087D1E000863
:100110007D1E00087D1E00087D1E00087D1E000853
:100120007D1E00087D1E00087D1E00087D1E000843
:100130007D1E00087D1E00087D1E00087D1E000833
:100140007D1E00087D1E00087D1E00087D1E000823
:100150007D1E00087D1E00087D1E00087D1E000813
:100160007D1E00087D1E00087D1E00087D1E000803
:100170007D1E00087D1E00087D1E00080000000096
:100180007D1E00087D1E00087D1E00087D1E0008E3
:100190007D1E00087D1E00087D1E00087D1E0008D3
:1001A0007D1E00087D1E00087D1E00087D1E0008C3
:1001B0007D1E00087D1E00087D1E00087D1E0008B3
:1001C0007D1E00087D1E0008000000007D1E000846
:1001D0007D1E00087D1E00087D1E00087D1E000893
:1001E0007D1E00087D1E00087D1E00087D1E000883
:0801F0007D1E00087D1E0008C1
:1001F80010B5054C237833B9044B13B10448AFF359
:1002080000800123237010BD700000200000000052
:100218006C34000808B5034B1BB103490348AFF31E
:10022800008008BD00000000740000206C34000845
:1002380053B94AB9002908BF00281CBF4FF0FF3145
:100248004FF0FF3000F07AB9ADF1080C6DE904CE3B
:1002580000F006F8DDF804E0DDE9022304B0704799
:100268002DE9F0478C460D460446089E002B51D1D7
:100278008A4217466DD9B2FA82FEBEF1000F0BD042
:10028800CEF1200C01FA0EF520FA0CFC02FA0EF75A
:100298004CEA050C00FA0EF44FEA174A250CBCFB91
:1002A800FAF81FFA87F90AFB18CC45EA0C4508FB4F
:1002B80009F3AB420AD9ED1908F1FF3280F0238126
:1002C800AB4240F22081A8F102083D44ED1AA4B2E5
:1002D800B5FBFAF00AFB105544EA054400FB09F99E
:1002E800A14509D9E41900F1FF3380F00A81A1453D
:1002F80040F2078102383C44A4EB090440EA084074
:100308000021002E61D024FA0EF4002334607360BB
:10031800BDE8F0878B4207D9002E54D0002186E82B
:1003280021000846BDE8F087B3FA83F1002940F0C0
:100338008E80AB4202D3824200F2FA80841A65EBC7
:1003480003050120AC46002E3FD086E81010BDE81A
:10035800F08712B90127B7FBF2F7B7FA87FEBEF1AB
:10036800000F34D1EB1B3A0C1FFA87FC0121B3FBB9
:10037800F2F8250C02FB183345EA03450CFB08F399
:10038800AB4207D9ED1908F1FF3002D2AB4200F2B7
:10039800D1808046ED1AA3B2B5FBF2F002FB1055EE
:1003A80043EA05440CFB00FCA44507D9E41900F115
:1003B800FF3302D2A44500F2B8801846A4EB0C041F
:1003C80040EA08409DE731463046BDE8F087CEF167
:1003D800200405FA0EF307FA0EF720FA04F83A0C8F
:1003E80025FA04F448EA0308B4FBF2F14FEA184589
:1003F80002FB11441FFA87FC45EA044501FB0CF394
:10040800AB4200FA0EF409D9ED1901F1FF3080F082
:100418008A80AB4240F2878002393D44EB1A1FFACA
:1004280088F5B3FBF2F002FB103345EA034500FB05
:100438000CF3AB4207D9ED1900F1FF386FD2AB428C
:100448006DD902383D44EB1A40EA01418FE7C1F10A
:10045800200722FA07F88B4005FA01F448EA03035B
:1004680020FA07FE4FEA134CFD404EEA040EB5FB96
:10047800FCF94FEA1E440CFB19551FFA83F844EAAD
:10048800054509FB08F4AC4202FA01F200FA01FA48
:1004980008D9ED1809F1FF3043D2AC4241D9A9F18E
:1004A80002091D442D1B1FFA8EFEB5FBFCF00CFB48
:1004B80010554EEA054400FB08F8A04507D9E41892
:1004C80000F1FF3529D2A04527D902381C4440EA5B
:1004D8000940A4EB0804A0FB02894C45C6464D46DA
:1004E80015D312D056B1BAEB0E0364EB050404FA27
:1004F80007F7CB401F43CC40376074600021BDE84C
:10050800F0871846F8E69046E0E6C245EAD2B8EB2E
:10051800020E69EB03050138E4E72846D7E74046B1
:1005280091E78146BEE7014678E702383C4445E753
:10053800084608E7A8F102083D442BE7704700BFCA
:1005480038B50E4B05460E4A18784FF47A73B3FB4C
:10055800F0F31068B0FBF3F000F090F8044658B9D7
:100568000F2D09D8024629464FF0FF3000F04EF80B
:10057800044B20461D6038BD012038BD0000002016
:10058800080000200400002008B5032000F02CF823
:100598000020FFF7D5FF01F083FB002008BD000015
:1005A800034A044B11681B780B441360704700BF63
:1005B8009800002000000020014B1868704700BF19
:1005C8009800002038B50446FFF7F6FF0546631C7F
:1005D8001EBF044B1B78E418FFF7EEFF401B844254
:1005E800FAD838BD00000020074A0002D36800F49A
:1005F800E06023F4E0631B041B0C43F0BF6343F487
:1006080000330343D360704700ED00E0194B30B569
:10061800DC68C4F30224C4F10703251D042B28BF9A
:100628000423062D4FF001058CBF033C002405FA76
:1006380003F3002803F1FF3301EA030101FA04F18F
:1006480005FA04F404F1FF3402EA040242EA010262
:100658004FEA021207DB00F16040D2B200F56140B8
:1006680080F8002330BD00F00F00D2B2024B1A54BC
:1006780030BD00BF00ED00E014ED00E00138B0F13E
:10068800807F0AD2064BF021064A5860002082F883
:100698002310072298601A6070470120704700BF36
:1006A80010E000E000ED00E02DE9F04F0B6885B0A8
:1006B800DFF8C081019300236C4ADFF8BC914FF04A
:1006C800010E019C0EFA03FE0EEA0406B64540F040
:1006D800B3804C6824F01007022F16D14FEAD30AD2
:1006E80003F0070B4FF00F0C00EB8A0A4FEA8B0B55
:1006F800DAF820500CFA0BFC25EA0C0C0D6905FA07
:100708000BF545EA0C05CAF820504FEA430A0325C1
:10071800D0F800B004F0030C05FA0AF5013F0CFA12
:100728000AFCED43012F0BEA050B4CEA0B0CC0F851
:1007380000C011D8876807EA050BCF6807FA0AFCDA
:100748004CEA0B078760476827EA0E0EC4F30017C8
:100758009F4047EA0E074760C7683D408F6807FA21
:100768000AF73D43C560E50066D5D8F8445023F044
:10077800030703F0030E4FF00F0C45F4804507F113
:1007880080474FEA8E0EC8F8445007F59C37D8F8D2
:10079800445005F480450395039D0CFA0EF5D7F8EF
:1007A80008A02AEA050C324DA8424CD005F5806510
:1007B800A8424AD005F58065A84248D005F580656D
:1007C800A84246D005F58065A84244D0484544D0A3
:1007D80005F50065A84242D005F58065A84240D0DD
:1007E80005F58065A8423ED005F58065A84214BF8E
:1007F8000A25092505FA0EF514F4803F45EA0C058B
:10080800BD606FEA060715680CBF3D40354314F418
:10081800003F156055680CBF3D40354314F4801FF8
:10082800556095680CBF3D403543A4029560D56876
:1008380054BF3D403543D5600133102B7FF43FAFA3
:1008480005B0BDE8F08F0025D4E70125D2E70225E1
:10085800D0E70325CEE70425CCE70525CAE706251A
:10086800C8E70725C6E70825C4E700BF003C0140E4
:100878000000024000380240001402400AB18161C1
:1008880070470904FBE703689A69910701D50022BC
:100898009A629A69D20703D49A6942F001029A616E
:1008A800704730B5039CC1F3090105682343640D03
:1008B800686804F48064194344F07F7441EA024193
:1008C80044F4583444F47F7444F0030420EA0404E4
:1008D8002143696030BD2DE9F041069F04468846F2
:1008E80016461D462268936938EA03030CBF0123A4
:1008F8000023B34202D00020BDE8F0816B1CF2D087
:10090800FFF75AFEC01B854201D3002DEAD1636C64
:10091800012043F020036364202384F8413000233E
:1009280084F8423084F84030BDE8F081036870B53F
:10093800044698690D46164610F0100016D170BD91
:10094800691C14D0FFF738FE801B854200D36DB9AF
:10095800636C43F020036364202384F84130002350
:10096800012084F8423084F8403070BD23689969CA
:100978008A06E5D5102220252046DA61DD61FFF7D9
:1009880082FF2268536823F0FF7323F48B3323F428
:10099800FF7323F001035360636C43F00403636443
:1009A80084F84150DBE770B504460D4616462368C7
:1009B8009B699B0701D5002070BD32462946204619
:1009C800FFF7B4FFA0B96A1CF1D0FFF7F5FD801B53
:1009D800854201D3002DEAD1636C43F020036364A0
:1009E800202384F84130002384F8423084F84030D2
:1009F800012070BD70B504460D46164623689B69F4
:100A08009B0601D5002070BD324629462046FFF7D7
:100A18008DFF90B9FFF7D0FD801B854201D3002DD3
:100A2800ECD1636C43F020036364202384F84130E5
:100A3800002384F8423084F84030012070BD70B53E
:100A480004460D46164623689B695B070ED432465A
:100A580029462046FFF76AFFF0B923689A6991068C
:100A68001CD59A69520703D5228D0AB1002070BDA2
:100A78002021D9615A6822F0FF7222F48B3222F4C5
:100A8800FF7222F001025A600023636484F8411067
:100A980084F8423084F84030012070BDFFF78CFDA7
:100AA800801B854201D3002DCDD1636C43F0200318
:100AB8006364202384F841300023EBE710B5044633
:100AC80000284AD090F8413003F0FF021BB980F8A3
:100AD800402001F0FDF82423E16884F84130012921
:100AE80023681A6822F001021A60626822F07062B4
:100AF8001A619A6822F400429A60A26824D142F4EA
:100B080000429A605A680020616942F0007242F41B
:100B180000425A60DA6822F40042DA6022690A4325
:100B2800A16942EA0122216ADA60E2690A431A608D
:100B38001A6842F001021A602023606484F8413088
:100B4800206384F8420010BD42F4044202299A60EE
:100B5800D8D14FF400625A60D4E7012010BD0000DC
:100B68002DE9F743984690F8413004460E46202B6D
:100B7800914640F0848090F84030012B7FD00127C7
:100B880080F84070FFF718FD1923054600903A4693
:100B98004FF400412046FFF79EFE18B1012003B034
:100BA800BDE8F0832123C4F82490606384F84130C1
:100BB800102384F842306064A4F82A80638D9BB2C5
:100BC800FF2B304B26D9FF22009322854FF08073EC
:100BD80031462046FFF765FE638D2A460A9920466E
:100BE8009BB2FBB9FFF706FF0028D7D12368202165
:100BF800D9615A6822F0FF7222F48B3222F4FF7214
:100C080022F001025A6084F8411084F8400084F808
:100C18004200C4E7628D009392B222854FF00073C0
:100C2800D2B2D5E7FFF7BFFE0028B7D1636A2268C2
:100C380013F8011B91626362638D228D013B013AB7
:100C48009BB292B26385638D22859BB2002BC3D081
:100C5800002AC1D1009580210A9B2046FFF73BFE60
:100C680000289BD1638D9BB2FF2B03D9FF220090F4
:100C78002285ABE7628D009092B22285CEE70220F2
:100C88008DE700BF002000802DE9F743984690F8D3
:100C9800413004460E46202B914640F0868090F85D
:100CA8004030012B00F08180012780F84070FFF769
:100CB80083FC1923054600903A464FF4004120462C
:100CC800FFF709FE18B1012003B0BDE8F083222325
:100CD800C4F82490606384F84130102384F84230CB
:100CE8006064A4F82A80638D9BB2FF2B304B26D911
:100CF800FF22009322854FF0807331462046FFF78C
:100D0800D0FD638D2A460A9920469BB2FBB9FFF7AE
:100D180071FE0028D7D123682021D9615A6822F0B2
:100D2800FF7222F48B3222F4FF7222F001025A6021
:100D380084F8411084F8400084F84200C4E7628DCA
:100D4800009392B222854FF00073D2B2D5E7FFF735
:100D580076FE0028B7D12268636A526A1A70636AFD
:100D6800228D0133013A6362638D92B2013B228581
:100D78009BB26385638D9BB2002BC2D0002AC0D181
:100D8800009580210A9B2046FFF7A5FD00289AD1EF
:100D9800638D9BB2FF2B03D9FF2200902285AAE71F
:100DA800628D009092B22285CDE702208CE700BFC9
:100DB8000024008090F84120D2B2202A10B51DD11D
:100DC80090F84030012B19D0242380F84130036873
:100DD8001C6824F001041C601C6824F480541C6006
:100DE8001C6821431960196841F00101196000234A
:100DF80080F8412080F84030184610BD022010BD10
:100E080010B590F84140E4B2202C1CD190F8403045
:100E1800012B18D0242380F8413003681A6822F087
:100E280001021A601A6822F4706242EA012119600C
:100E38001A6842F001021A60002380F8414080F8E5
:100E48004030184610BD022010BD0000194B37B5C0
:100E58001A6C194C42F080521A641B6C03F08053D0
:100E68000193019B236843F480332360FFF7A4FBBD
:100E780005466368DA030CD5236843F4003323601E
:100E8800FFF79AFB0C4C054663689B030AD50020C4
:100E980006E0FFF791FB401BB0F57A7FE9D9032004
:100EA80003B030BDFFF788FB401BB0F57A7FEBD964
:100EB800F5E700BF00380240007000402DE9F3411B
:100EC800044618B9012002B0BDE8F0810368D807CC
:100ED80010D4236899075ED42368190700F1A3800A
:100EE80023685A0700F1C480A269002A40F02E81C5
:100EF8000020E8E7934B9A6802F00C02042A07D016
:100F08009A6802F00C02082A0AD15B685A0207D5CF
:100F18008C4B1B689B03DCD56368002BD9D1D1E7C8
:100F28006368884DB3F5803F11D12B6843F4803353
:100F38002B60FFF741FB834D06462B689F03C8D4FF
:100F4800FFF73AFB801B6428F7D90320BBE79BB95E
:100F58002B6823F480332B602B6823F480232B60C9
:100F6800FFF72AFB06462B689803B2D5FFF724FB48
:100F7800801B6428F7D9E8E7B3F5A02F2B6803D1C5
:100F880043F480232B60D0E723F480332B602B6855
:100F980023F48023CCE76B4B9A6812F00C0F07D030
:100FA8009A6802F00C02082A11D15B6859020ED423
:100FB800644B1A68920702D5E268012A82D11A683E
:100FC800216922F0F80242EAC1021A6084E7E36864
:100FD8005C4DBBB12B6843F001032B60FFF7ECFAC3
:100FE80006462B689F0707D52B68226923F0F8036C
:100FF80043EAC2032B606FE7FFF7DEFA801B022883
:10100800EFD9A2E72B6823F001032B60FFF7D4FA8E
:1010180006462B6898077FF55FAFFFF7CDFA801B70
:101028000228F6D991E76369464D83B16B6F43F0A7
:1010380001036B67FFF7C0FA06466B6F9B073FF526
:101048004FAFFFF7B9FA801B0228F6D97DE76B6F1F
:1010580023F001036B67FFF7AFFA06466B6F9F0734
:101068007FF53EAFFFF7A8FA801B0228F6D96CE798
:10107800344B1A6CD00027D41A6C012642F08052E7
:101088001A641B6C03F080530193019B2E4D2B684F
:10109800D9051BD5A3682B4D012B27D12B6F43F006
:1010A80001032B6741F28835FFF786FA254F804602
:1010B8003B6F9B073FD5002E3FF416AF214A136CB8
:1010C80023F0805313640FE70026DFE72B6843F40F
:1010D80080732B60FFF770FA07462B68DA05D9D4BE
:1010E800FFF76AFAC01B6428F7D92EE7ABB92B6F54
:1010F80041F2883823F001032B672B6F23F0040398
:101108002B67FFF759FA07462B6F9807D3D5FFF7D8
:1011180053FAC01B4045F7D917E7052B2B6F03D1AE
:1011280043F004032B67B9E723F001032B672B6F08
:1011380023F00403B5E7FFF73FFAA0EB0800A84245
:10114800B6D902E70038024000700040244DAB6871
:1011580003F00C03082B3FF4B5AE2B68022A23F0EA
:1011680080732B602FD1FFF727FA06462B68990169
:1011780023D4226AE3691343626A43EA8213E26A68
:1011880043EA0263226B43EA0273A26A144C5208D0
:10119800013A43EA02436B602B6843F080732B608B
:1011A800FFF70AFA054623689A013FF5A1AEFFF753
:1011B80003FA401B0228F6D9C7E6FFF7FDF9801BA2
:1011C8000228D3D9C1E6FFF7F7F904462B689B013B
:1011D8007FF58EAEFFF7F0F9001B0228F6D9B4E6CA
:1011E80000380240134908B58B6803F00C03042B40
:1011F80003D0082B03D0104808BD104808BD4A6822
:101208004B68496802F03F0213F48003C1F3881168
:101218001ABF0A4800230848A1FB0001FFF708F895
:10122800044B5B68C3F3014301335B00B0FBF3F08D
:1012380008BD00BF003802400024F40000127A0004
:101248002DE9F0410D46044610B90120BDE8F081B2
:10125800464A136803F00F038B4228D321688F078F
:1012680030D4C80743D4414A136803F00F039D42A2
:1012780067D32268510770D4130707D53C4A216900
:10128800936823F4604343EAC1039360FFF7AAFF1E
:10129800374B384A9B68C3F30313D35CD840364BAB
:1012A80018600020FFF74CF90020BDE8F0811368B2
:1012B80023F00F030B431360136803F00F039942E5
:1012C800C3D1CBE711F0040F294B03D09A6842F43D
:1012D800E0529A600E0703D59A6842F460429A6019
:1012E8009A68A06822F0F00202439A60B9E7616840
:1012F8001F4B01291A681CD112F4003FA5D09A6827
:1013080041F288381A4E22F003020A439A60FFF726
:1013180053F90746B368626803F00C03B3EB820F16
:10132800A1D0FFF749F9C01B4045F3D90320BDE818
:10133800F081022902D112F0007FDFE712F0020FDC
:10134800DCE7136823F00F032B431360136803F0E3
:101358000F039D427FF479AF8BE70549E0688B68FE
:1013680023F4E05303438B6086E700BF003C024050
:101378000038024099340008080000202DE9F7439E
:101388000268044612F001060BD0BA4B996821F4A2
:1013980000019960466B99683143B6FA86F676097A
:1013A800996012F4002512D0B249E56BD1F88C305F
:1013B800B5F5801F23F4401308BF012643EA05034F
:1013C80016BFB5FA85F500256D09C1F88C30D7022E
:1013D80010D5A848216CD0F88C30B1F5800F23F4D3
:1013E800400343EA0103C0F88C3000F0A9810029CA
:1013F80008BF012512F0807F18BF0126900631D55D
:101408009C4B9D4F1A6C42F080521A641B6C03F07F
:1014180080530193019B3B6843F480733B60FFF763
:10142800CBF880463B68D90540F18C81914F3B6FE2
:1014380013F4407340F09181236B03F44072B2F5CA
:10144800407F8C4A40F0AF81916823F0704021F4CE
:10145800F81120F4407001439160C3F30B03116F3E
:101468000B4313672368DF060CD5824AD2F88C1029
:1014780021F08071C2F88C10D2F88C10A06B014357
:10148800C2F88C10580408D57A49606ED1F89020BB
:1014980022F440320243C1F89020190408D5754956
:1014A800A06ED1F8902022F440220243C1F8902087
:1014B800DA0308D56F49E06ED1F8902022F4401283
:1014C8000243C1F890209F0308D56A49206FD1F8DC
:1014D800902022F440020243C1F89020580608D513
:1014E8006449606CD1F8902022F003020243C1F8ED
:1014F8009020190608D55F49A06CD1F8902022F0F9
:101508000C020243C1F89020DA0508D55949E06C6D
:10151800D1F8902022F030020243C1F890209F05B4
:1015280008D55449206DD1F8902022F0C00202431A
:10153800C1F89020580508D54E49606DD1F8902023
:1015480022F440720243C1F89020190508D5494990
:10155800A06DD1F8902022F440620243C1F8902097
:10156800DA0408D54349E06DD1F8902022F44052BE
:101578000243C1F890209F0408D53E49206ED1F857
:10158800902022F440420243C1F89020580208D526
:101598003849A06FD1F8902022F080620243C1F848
:1015A800902099020CD53348E16FD0F89020B1F122
:1015B800006F22F0006208BF01250A43C0F890209E
:1015C80013F0080F18BF01255A0308D52949606F81
:1015D800D1F8902022F040720243C1F890201F02F7
:1015E80009D52449D4F88000D1F8902022F08052FF
:1015F8000243C1F89020580109D51E49D4F8840047
:10160800D1F8902022F000520243C1F8902019012D
:1016180009D51849D4F88800D1F88C2022F0007236
:101628000243C1F88C20DA0009D51249D4F88C009D
:10163800D1F88C2022F080620243C1F88C20012E60
:1016480000F0B580B3F1007F00F0B180012D75D1B5
:10165800084D2B6823F080532B60FEF7ADFF06463C
:101668002B689F0000F1278121680E0306D5E36BE4
:1016780043B103E00038024000700040CD021DD5A0
:10168800236CDBB9934AD2F88830D2F8880003F487
:10169800403300F0E0400343606943EA8013A069E7
:1016A80043EA0063C2F88830D2F88C30A06A23F489
:1016B800F853013843EA0023C2F88C30880215D564
:1016C800E36FB3F1006F11D1824AD2F88830D2F8B3
:1016D800880003F0706300F0E0400343606943EA68
:1016E8008013206A43EA0043C2F888300A0719D5F4
:1016F8007849D1F88820D1F8883002F0706203F474
:1017080040331343626943EA8213E26943EA02738E
:10171800C1F88830D1F88C30E26A23F4403313439F
:10172800C1F88C306B4C236843F080532360FEF77C
:1017380043FF054623689B0040F1C480002009E070
:10174800012657E6FEF738FFA0EB080064287FF66D
:1017580069AE032003B0BDE8F083226B02F4407247
:1017680093423FF469AE3B6F3A6F23F4407342F4FF
:1017780080323A673A6F22F480323A673B673B6FB0
:10178800DA077FF559AEFEF717FF41F28839804630
:101798003B6F9B073FF550AEFEF70EFFA0EB08002E
:1017A8004845F5D9D5E7916821F4F81154E6494E32
:1017B800336823F080633360FEF7FEFE0746336824
:1017C8001B0172D42268D70712D5636B83B9D6F888
:1017D8008430D6F8841003F4403301F070610B4371
:1017E800616843EA8113A16843EA0173C6F884304B
:1017F800160303D5E36BB3F5801F05D0D0021ED5C1
:10180800236CB3F5800F1AD13249D1F88430D1F85E
:10181800840003F4403300F0E0400343606843EA87
:101828008013E06843EA0063C1F88430D1F88C0083
:10183800636A20F01F00013B0343C1F88C30D101DB
:1018480011D52449D1F88430D1F8840003F07063AD
:1018580000F0E0400343606843EA8013206943EAEC
:101868000043C1F8843092010DD5236962681B04D6
:1018780043EA8213E26843EA0263A26843EA027316
:10188800144AC2F88430134E336843F080633360DF
:10189800FEF792FE074633681B013FF5D7AEFEF709
:1018A8008BFEC01B6428F6D953E7FEF785FEC01BE4
:1018B800642884D94DE7FEF77FFE801B64287FF6F5
:1018C800CFAE46E7FEF778FE401B64287FF632AFBE
:1018D8003FE700BF003802401FB500F0F0030001E9
:1018E8004E21C0B243F004028DF80D3040F00403DD
:1018F8008DF80C2003AA8DF80F008DF80E306423A4
:10190800034800930423FFF72BF905B05DF804FBA7
:10191800B00000201FB500F0F00300014E2143F095
:101928000502C0B243F001038DF80C2003AA8DF81C
:101938000D3040F0050340F001008DF80E306423AF
:101948008DF80F00009304230248FFF709F905B04A
:101958005DF804FBB000002008B50220FFF7BCFFCB
:101968002820FFF7B9FF0C20FFF7B6FF8020BDE85D
:101978000840FFF7B1BF10B5441E14F8010F00B9B5
:1019880010BDFFF7C7FFF8E710B5B8B03422002143
:10199800022407A800F0B8FA1422002102A800F0D7
:1019A800B3FA0021902214A800F0AEFA204B07A841
:1019B8001A6C42F080521A641B6C1E4A03F0805362
:1019C8000093009B136823F4404343F4804313605F
:1019D800136860220D9403F440431092119401930C
:1019E800019B012307934FF4803308934FF480033E
:1019F8000E9304230F931293FFF760FAFFF726FA6A
:101A08000F230394002402934FF48053032102A868
:101A1800059304940694FFF713FC4FF4404314A86D
:101A28002D9414932E94FFF7A9FC38B010BD00BF75
:101A3800003802400070004080B58CB00024FEF7EA
:101A4800A3FD0127FFF7A0FF1422002107A800F03B
:101A58005BFA7F4B01217F481A6B7F4D42F02002D1
:101A6800DFF830827D4E1A631A6B02F0200203926F
:101A7800039A1A6B42F080021A631A6B02F0800212
:101A88000492049A1A6B42F002021A631A6B02F06B
:101A980002020592059A1A6B42F001021A630022AB
:101AA8001B6B03F001030693069BFEF7E7FE07A9ED
:101AB800684809940A9407970897FEF7F5FD684B5C
:101AC8002846AC602C616C61AC61EC612C62EF6003
:101AD80085E80801FEF7F2FF21462846FFF76AF974
:101AE80021462846FFF78CF95E4B3046B4603461D6
:101AF8007461B461F4613462F76086E80801FEF746
:101B0800DDFF21463046FFF755F921463046564E4F
:101B1800FFF776F9FFF720FF022364227470B47090
:101B2800344633708021009228463246FFF718F871
:101B38006427E32332468021237028460123009737
:101B4800FFF70EF81420FEF73DFD324600970223FA
:101B580080212846FFF798F82278637880219FED46
:101B6800438A284643EA0223414ADFF82C8107EEDC
:101B7800903A1360E5233246B8EEE77ADFF81C9115
:101B88002370012327EE087A9FED2D5BB7EEC77A05
:101B98009FED2D6BA7EE056BB7EEC67B88ED007A3F
:101BA8000097FEF7DDFF1420FEF70CFD324680217A
:101BB800009702232846FFF767F822786378B9EE82
:101BC800087ADFED2C6A384643EA02232A4A07EEF0
:101BD800903A1360F8EEE77A67EE887AA7EEA67A6D
:101BE80089ED007AFEF7EEFC98ED000A0320234900
:101BF800B7EEC00A00F040F999ED000A2049032029
:101C0800B7EEC00A00F038F98020FFF765FE1D48DE
:101C1800FFF7B1FE1948FFF7AEFE1B48FFF7ABFE12
:101C2800C020FFF759FE1948FFF7A5FE1448FFF733
:101C3800A2FE1748FFF79FFE7AE700BFAFF30080C8
:101C4800D7A3703D0AF76540CDCCCCCCCC6C47C04F
:101C58000038024000040240FC000020B0000020D0
:101C680000580040005400407801002000008037F0
:101C7800800100200000FA42640100206801002071
:101C88009C000020883400088E3400089034000836
:101C9800973400085D3E3020AC000020840100200D
:101CA8000A4B82B01A6C42F080521A641A6C02F025
:101CB80080520092009A5A6C42F480425A645B6CDB
:101CC80003F480430193019B02B07047003802403F
:101CD80010B514228AB0044600210DEB020000F072
:101CE80013F92368254A934223D1254C05A9254891
:101CF800236B43F002032363236B03F00203019376
:101D0800019B4FF440730593122306930123079315
:101D18000323089304230993FEF7C6FC236C43F4BA
:101D280000132364236C03F400130293029B0AB08C
:101D380010BD154A9342FAD1114C122205A9134835
:101D4800236B43F020032363236B0692012203F0E5
:101D5800200307920393039B03230593089304230B
:101D68000993FEF7A1FC236C43F480032364236CDE
:101D780003F480030493049BD9E700BF0054004098
:101D8800003802400004024000580040001402409D
:101D98007047FEE7FEE7FEE7FEE7704770477047CB
:101DA800FEF7FEBB08B50A4B0246196809B909498E
:101DB80019601868694602448A4206D900F07AF820
:101DC8000C2303604FF0FF3008BD1A6008BD00BF48
:101DD8008C0000208C0100200F490020D1F88830A9
:101DE80043F47003C1F888300C4B1A6842F00102C2
:101DF8001A6098601A6822F0847222F480321A609D
:101E0800074A5A601A6822F480221A60D8604FF094
:101E180000638B60704700BF00ED00E000380240AF
:101E280010300024DFF834D0002103E00C4B5B585D
:101E3800435004310B480C4B42189A42F6D30B4AD4
:101E480002E0002342F8043B094B9A42F9D3FFF71A
:101E5800C3FF00F035F8FFF7EFFD704700000820DA
:101E6800CC35000800000020700000207000002021
:101E78008C010020FEE7000013B5B5EEC00B0A4642
:101E8800F1EE10FA42BF2D2300F1FF3002F8013BBA
:101E98000C4600230146064800930068672300F0BB
:101EA800AFF8002814BF2046002002B010BD00BFC4
:101EB8000C000020014B1868704700BF0C00002080
:101EC80070B50D4E0D4CA41BA4100025A54209D1D8
:101ED8000B4E0C4C01F0C6FAA41BA4100025A54219
:101EE80005D170BD56F8253098470135EEE756F80C
:101EF800253098470135F2E7C4350008C435000895
:101F0800C4350008C835000802440346934200D18E
:101F1800704703F8011BF9E7F0B587B01E4604AB1C
:101F2800019303AB00930F4605AB0221144601321F
:101F38000C9D00F015FD0146059842F20F7398427A
:101F480004D1384600F078FC07B0F0BD0B783B7040
:101F580045B93CB97B1C11F8012F3AB9672E0BD152
:101F6800652614E02E22BB1C7A70F4E7002CF5DD00
:101F780003F8012B013CEEE7472E3CD019463025EB
:101F8800621A1A44002A33DC002CA8BF1B19411E10
:101F98000029B8BFC0F101001A460591ACBF2B203B
:101FA800059002F8026BA8BF58700598BCBF2D2495
:101FB8005C70632811460BDD642390FBF3F303F197
:101FC800300111706FF0630101FB03030593511C8D
:101FD800059A0A2392FBF3F303F1300008706FF0BF
:101FE800090000FB032330334B7000238B70ABE7F1
:101FF80001F8015BC4E74526C9E7000000000000BE
:102008002DE9F041B5EEC00B2DED028BB0EE408B03
:10201800F1EE10FA86B048BFB1EE408BB5EE408BBA
:10202800F1EE10FA0546884614461F460E9E09D161
:102038003023137000235370204606B0BDEC028B8A
:10204800BDE8F0819FED4A7BB4EEC78BF1EE10FA44
:102058000AD8B0EE480B00963B4608F1FF322146FD
:102068002846FFF759FFE7E7084600F055FBB4EEAE
:10207800C08BF1EE10FAECDAB7EE007BB4EEC78B4A
:1020880005AAF1EE10FA04AB01920093424603ABA5
:102098004CBF03210221B0EE480B284600F060FC3B
:1020A800039A42F20F739A4211D023460178039F94
:1020B800A8EB030205462244013091B9BF1A4FF03C
:1020C800300EB818002835DC69B103900BE00146E2
:1020D800204600F0B1FBAFE7013F03F8011B03976F
:1020E800E4E7002FF8DC0EB9297801B39C4202BF5F
:1020F800631C302121702E211970039901330020AF
:102108004FF0300E00290F4620DB00B10391013D4E
:1021180015F8011F09B1002A20DC46B11846302500
:10212800111A194400291DDC002AA8BF9B18002297
:102138001A7081E7002AC7DD03F801EB013A012193
:10214800BFE703F801EB013A0120DBE7002A01F1C0
:102158000101F6DC0028DAD00397D8E703F8011B61
:10216800013AD5E700F8015BDAE700BFAFF300807A
:102178002D431CEBE2361A3F70B5456A04460E46FD
:102188003DB9102001F058F960624560856005602E
:10219800C560656AEB6883B1636ADB6853F826003B
:1021A800B8B9012101FA06F56A1D9200204600F02F
:1021B800C7FA60B1466085600EE0212204212046FE
:1021C80000F0BEFA636AE860DB68002BE4D1002007
:1021D80070BD026843F8262000230361C36070BD08
:1021E80070B5446A06460D463CB9102001F024F942
:1021F8007062446084600460C4603DB1736A6A6858
:10220800DB6853F82210296043F8225070BD2DE98D
:10221800F0410D691F4606460C4601F1140E0023D5
:10222800DEF8000081B202FB01710F0C000C02FB0A
:10223800007089B2013301EB00419D424FEA10471B
:102248004EF8041BECDCD7B1A3689D4212DB616831
:1022580030460131FFF790FF2269023204F10C0188
:10226800804692000C3001F0EFF821463046FFF727
:10227800B7FF444604EB850301355F6125612046BD
:10228800BDE8F081020C12040346B2B90304102021
:1022980013F07F4F04BF1B02083013F0704F04BFC8
:1022A8001B01043013F0404F04BF9B000230002B89
:1022B80006DB5B0003D5013070470020E8E72020EB
:1022C8007047036813F0070201460BD0DA0723D4DE
:1022D800980749BF5B089B0801200B605CBF0B6037
:1022E8000220704798B2A8B91B0C102013F0FF0FFA
:1022F80004BF1B0A08301A0704BF1B0904309A07D9
:1023080004BF9B080230DA0702D45B0806D001300C
:102318000B6070471046E9E700207047202070479F
:1023280010B50C460121FFF727FF01224461026125
:1023380010BD2DE9F74F14460A6923699A42B8BFC0
:102348000B468946BCBFA1461C46D9F81070D4F884
:1023580010A0D9F80830D9F8041007EB0A069E42F5
:10236800C8BF0131FFF708FF00F1140505EB860827
:102378002B460022434516D304F1140209F1140137
:1023880002EB8A0301EB87070193019C94421346F1
:102398000CD8002E03DD58F8043D002B54D00661FC
:1023A80003B0BDE8F08F43F8042BE3E7B3F800A0CF
:1023B8000432BAF1000F20D0AE4689464FF0000C27
:1023C80059F8044BBEF800B0A3B20AFB03B34FEAB6
:1023D800144BDEF8004063444FEA144C0AFB0BC46C
:1023E80004EB13449BB243EA04434F454FEA144CB1
:1023F8004EF8043BE4D8CEF800C032F8029CB9F19C
:10240800000F1FD02B68AE468C464FF0000ABCF870
:102418000040BEF802B009FB04B4A2449BB243EAF0
:102428000A434EF8043B5CF8043BBEF800401B0C22
:1024380009FB034303EB1A4367454FEA134AE6D8FF
:10244800CEF800300435A0E7013EA2E72DE9F843B5
:10245800154612F0030206460F4607D0013A214CF2
:10246800002354F82220FFF7D2FE0746AD1035D0DE
:10247800746A3CB9102000F0DFFF70624460846029
:102488000460C460D6F82480D8F808404CB940F2FB
:1024980071213046FFF744FF0023C8F808000446BE
:1024A80003604FF00008EB070AD53946224630464C
:1024B800FFF73FFF394681463046FFF791FE4F460A
:1024C8006D100BD0206838B9224621463046FFF7F8
:1024D80030FF2060C0F800800446E4E73846BDE8D5
:1024E800F88300BFA03500082DE9F0470C464FEAF5
:1024F800621A236949680AEB0309A3680746164666
:1025080009F10105AB4231DB3846FFF735FE002201
:10251800804600F11403114652452ADB20692AEA55
:10252800EA7A04F1140116F01F0203EB8A0301EBA7
:10253800800E22D0C2F1200C00200E689640304355
:1025480043F8040B51F8040B8E4520FA0CF0F4D82C
:10255800186008B109F10205013D3846C8F8105065
:102568002146FFF73DFE4046BDE8F08701315B009C
:10257800C8E743F822100132CEE7043B51F8042B98
:1025880043F8042F8E45F9D8E6E703690A699B1AD0
:1025980030B50CD19200143014318418114454F819
:1025A800045D51F8042D954203D005D30123184644
:1025B80030BDA042F3D3FAE74FF0FF33F7E72DE938
:1025C800F0470D460746114628461446FFF7DDFF3B
:1025D800061E08D131463846FFF7CEFD01230361B8
:1025E8004661BDE8F087A4BF23462C46384661689B
:1025F800A6BF1D4600260126FFF7BEFD2B69C66053
:10260800266905F1140904F1140202EB860709EBA7
:10261800830800F114054FF0000C52F804AB59F888
:10262800044B1CFA8AF1A3B2C91A230CC3EB1A4350
:1026380003EB214389B24FEA234CC84541EA0343DF
:10264800964645F8043BE8D8BE4505D355F8043D01
:102658008BB10661BDE8F0875EF8041B1CFA81F3B4
:102668001A1402EB11429BB243EA02434FEA224C8E
:1026780045F8043BE8E7013EE8E72DE9F7430E4655
:10268800012159EC108B1546FFF776FDC9F30A5462
:102698000746C9F3130334BB0193B8F1000F27D0E1
:1026A80002A840F8088DFFF70CFE0099F0B1019AD6
:1026B800C0F1200302FA03F30B43C2407B6101928D
:1026C800019BBB61002B14BF022101213961C4B1F8
:1026D800A4F2334404443460C0F13500286038461D
:1026E80003B0BDE8F08343F48013D5E77961E7E7E9
:1026F80001A8FFF7E6FD019B7B61012139612030CC
:10270800E5E707EB8103A0F2324030601869FFF774
:10271800B9FDC0EB4110E1E7172805DC074B03EBD7
:10272800C00090ED000B7047B7EE000BB2EE047BD3
:10273800013820EE070BFBD1704700BFD8340008E2
:1027480038B502FB01F4214600F008F8054618B137
:1027580022460021FFF7D8FB284638BD70B5CD1CAE
:1027680025F0030508350C2D38BF0C25002D06462D
:1027780001DBA94203D90C233360002070BD00F0AF
:102788006EFE234A1468214691B9224C23681BB96E
:10279800304600F041F820602946304600F03CF809
:1027A800431C26D10C233360304600F059FEE4E781
:1027B8000B685B1B1AD40B2B0FD90B60CD50CC18B0
:1027C800304600F04DFE04F10B00231D20F00700F9
:1027D800C31A1BD05A42E25070BD8C420DBF6368C9
:1027E8004B686360136018BF0C46E9E70C464968FC
:1027F800CAE7C41C24F00304A04205D0211A3046BD
:1028080000F00AF80130CDD02560D9E770BD00BFCF
:10281800900000209400002038B5064C002305469F
:1028280008462360FFF7BEFA431C02D1236803B1B0
:102838002B6038BD88010020034611F8012B03F8EE
:10284800012B002AF9D170472DE9F74F03690C696C
:102858009C42804600F38280013C01F114074FEA54
:10286800840E00F1140657F8245056F8240006EB9D
:102878000E03013507EB0E090193B0FBF5F595B38F
:102888004FF0000A3846B446D34650F8042B93B2AA
:1028980005FB03A34FEA134A9BB2ABEB0303120CED
:1028A800BCF800B005FB02A213FA8BF34FEA124AF8
:1028B8001FFA82FBDCF80020CBEB124202EB23422A
:1028C8009BB243EA024381454FEA224B4CF8043B52
:1028D800DBD256F80E3033B9019B043B9E421A46B0
:1028E80030D3C8F810404046FFF74FFE002825DBDC
:1028F800013530464FF0000E57F8042BD0F800C0D1
:1029080093B2AEEB0303120C13FA8CF3C2EB1C4226
:1029180002EB23429BB243EA0243B9454FEA224EF7
:1029280040F8043BE8D256F8242006EB84032AB981
:10293800043B9E421A460BD3C8F81040284603B001
:10294800BDE8F08F1268043B002ACAD1013CC5E7F4
:102958001268043B002AEFD1013CEAE70020EEE7C9
:102968002DE9F04F57EC106B95B0CDE90067466A3A
:10297800079105460B9210931E9C3EB9102000F05B
:102988005BFD6862466086600660C6606B6A1968AF
:1029980051B15A684A60012393408B602846FFF77B
:1029A8001FFC6B6A00221A60019B002BBFBF01232A
:1029B8002360019B23F00043B2BF019300232360EF
:1029C800019C734BA34318D1109A42F20F73136002
:1029D800009B23B9C4F31304002C00F018851F9B37
:1029E8003BB96C4B1DE06C4B049308331F9A136082
:1029F800A6E2684B04930333F8E79DED007BB5EE40
:102A0800407BF1EE10FA8DED047B0CD1109A012376
:102A180013601F9B002B00F0F784604B1F9A136014
:102A2800013B04938CE213A912AA9DED040B2846DE
:102A3800FFF723FEC4F30A5103901298002946D0E9
:102A4800DDE90423C3F3130444F07F53A1F2FF3AF2
:102A580043F44013002107EE90AA43EC162BB8EE7E
:102A6800E75B9FED454BB7EE087B36EE477B9FED66
:102A7800446BA7EE046BB0EE467B9FED436BA5EE6F
:102A8800067BFDEEC76BB5EEC07BF1EE10FA119137
:102A980016EE90BA08D5B8EEE66BB4EE467BF1EECA
:102AA80010FA18BF0BF1FF3BBBF1160F31D83C4BA6
:102AB80003EBCB0393ED007B9DED006BB4EEC67B7F
:102AC800F1EE10FA01DD0BF1FF3B002322E0139930
:102AD800014401F23243202B15DD009E01F212421F
:102AE800C3F1400326FA02F204FA03F31A4307EE8D
:102AF800902AB8EE677B01F1FF3A53EC172B0121BE
:102B0800A3F1F873A7E7C3F12002009B03FA02F2CE
:102B1800EDE70123A0EB0A0ABAF1010746BFCAF1A3
:102B2800010A00274FF0000ABBF1000F0D93BCBF4C
:102B380000230C93079BA3BFCDF830B05F444FF040
:102B48000008AAEB0B0AB8BFCBF10008092B00F26A
:102B5800F880052BC4BF043B0793079BA3F102032E
:102B6800CCBF00240124032B00F2F780DFE813F028
:102B7800E500E7001A00D90061436F63A787D23FD9
:102B8800B3C8608B288AC63FFB799F501344D33F54
:102B98000000F07FB5350008AC350008BA350008EC
:102BA800D834000801230A930B9B002B40F3D880EC
:102BB800069399466E6A00227260042101F114029C
:102BC8009A4240F2D28071682846FFF7D5FA6B6ABC
:102BD80030601B680493B9F10E0F75D8002C73D0C0
:102BE8009DED007BBBF1000F8DED0E7B40F3CE8099
:102BF800B54A0BF00F0302EBC3034FEA2B1293ED18
:102C0800007BD30640F1B680B04B9DED0E4B93EDA3
:102C1800086B84EE065B8DED005B02F00F02032368
:102C2800AA49002A40F0A8809DED005B85EE076B5D
:102C38008DED006B0D9A002A00F0DA80B7EE006B7C
:102C48009DED007BB4EEC67BF1EE10FA40F1D0802A
:102C5800B9F1000F00F0CC80069A002A30DDB2EE00
:102C6800046B27EE067B8DED007B069C0BF1FF3293
:102C780001339DED006BB1EE0C5B07EE903AB8EEB8
:102C8800E77BA7EE065B8DED005B019BA3F150731C
:102C98000193002C40F0AF80B1EE047B36EE476B19
:102CA8009DED007BB4EEC76BF1EE10FA00F30083E4
:102CB800B1EE477BB4EEC76BF1EE10FA00F1F68285
:102CC800DDE90E348DE81800139B002BC0F2588103
:102CD800BBF10E0F00F354817B4B03EBCB0393ED59
:102CE800006B0B9B002B80F2F380B9F1000F00F30F
:102CF800EF8040F0DA82B1EE047B26EE076B9DEDA3
:102D0800007BB4EEC76BF1EE10FA4C464E4680F2EB
:102D1800AC82049B0499312201330A700BF1010B38
:102D2800A7E201230A930B9B5B4403F10109069375
:102D38004B46012BB8BF01233CE7002333E70023B0
:102D4800F0E70124002307930A944FF0FF3306931A
:102D58009946002212230B922CE701230A93F4E7E9
:102D68000123069399461A46F5E7726801327260A4
:102D7800490023E7022353E7D60704D591ED006BFA
:102D8800013327EE067B521008314AE72ED0CBF1EB
:102D980000024D4B02F00F0103EBC10393ED007BE2
:102DA8009DED0E6B26EE077B8DED087BDDE9083483
:102DB80046498DE818001211002002233AB900286C
:102DC8003FF438AFDDE908128DE8060032E7D40792
:102DD80009D59DED086B91ED007B26EE077B8DED07
:102DE800087B0133012052100831E7E7022321E76D
:102DF8005A464C463DE70498334B611E04440A98F2
:102E080003EBC10393ED005B58B3B6EE004B84EEC1
:102E1800057B9DED005BB7EE002BB2EE043B049BF7
:102E280037EE457BFDEEC64B14EE901AB8EEE45B28
:102E3800303136EE456BB4EEC76BF1EE10FA03F89D
:102E4800011B39D432EE465BB4EEC75BF1EE10FAE3
:102E58007BD4A3423FF434AF27EE037B26EE036B0B
:102E6800E0E79DED007BB2EE043B049B25EE075B9B
:102E7800FDEEC64B14EE901A303103F8011B9C424C
:102E8800B8EEE47B36EE476B1AD1B6EE007B35EE32
:102E9800074BB4EEC46BF1EE10FA56DC37EE455B27
:102EA800B4EEC56BF1EE10FA7FF50AAF13F8011C0A
:102EB800302903F1FF3001D0934631E00346F5E7AE
:102EC80026EE036BD4E700BFD8340008B0340008FE
:102ED8009DED007BB1EE463BB2EE044B049B87EEC2
:102EE800065BBDEEC55B15EE102A303203F8012BE8
:102EF800049A9A1A9145B8EEC52BA3EE027B37D1F6
:102F080037EE077BB4EEC76BF1EE10FA1CD4B4EEC3
:102F1800476BF1EE10FA03D115EE102AD20713D43D
:102F2800039900932846FFF75BF9009B109900224C
:102F38001A700BF101020A601F9A002A7FF457AD3C
:102F4800049815B0BDE8F08F5A4613F8010C3928DB
:102F580003F1FF3106D10498884207D1302101706E
:102F680001320146087801300870A5E70B46ECE706
:102F780027EE047BB5EE407BF1EE10FAAFD1CFE738
:102F88000A9A002A00F02981079A012A00F30B8186
:102F9800119A002A00F0038103F233434446CDF826
:102FA80020A0012128469A441F44FFF7B9F9064694
:102FB800089B002B0ADD002F08DDBB42089AA8BF3A
:102FC8003B46D21AAAEB030A0892FF1AB8F1000F7F
:102FD8001FD00A9B002B00F00581002C11DD314623
:102FE80022462846FFF732FA039A01460646284643
:102FF800FFF79FF903990E902846FFF7F1F80E9B0B
:103008000393B8EB040204D003992846FFF71EFA8D
:10301800039001212846FFF783F90C9B002B0446F7
:1030280040F3E2801A4601462846FFF70FFA079B4D
:10303800012B044640F3DB804FF00008236904EBC2
:1030480083031869FFF71EF9C0F12000384410F017
:103058001F0000F0F180C0F12003042B40F3E3804F
:10306800089BC0F11C000344824408930744BAF14A
:10307800000F05DD524603992846FFF735FA0390FD
:10308800002F05DD21463A462846FFF72DFA04466B
:103098000D9B002B00F0D28021460398FFF775FAAC
:1030A800002880F2CB8000230A2203992846FFF7E4
:1030B800AEF80A9B03900BF1FF3B002B00F0AE81AA
:1030C800002331460A222846FFF7A1F8069B002B69
:1030D800064603DC079B022B00F3B880089B002BF5
:1030E80005DD31461A462846FFF7FEF90646B8F1CF
:1030F800000F00F0158171682846FFF73DF8326926
:1031080002320746920006F10C010C3000F09CF9DF
:10311800012239462846FFF7E7F9009B049F03F090
:103128000103B1460893064621460398FFF78CFB36
:103138004946824600F130080398FFF726FA3246DE
:10314800009021462846FFF73AFAC3680246002B4A
:1031580040F0E88001460A900398FFF716FA0A9AA9
:103168000346114628460A93FFF73AF80A9B002BB4
:1031780040F0DA80079A002A40F0D680089A002AA0
:1031880040F0D280B8F1390F00F0EE80009B002BA0
:1031980001DD0AF131087B1C87F800806BE0129B87
:1031A800C3F13603FAE609F1FF34A045BFBF0C9B13
:1031B800A4EB080843440C93B6BFA046A8EB04044C
:1031C8000024B9F1000FBBBFAAEB09030893CDF89F
:1031D80020A00023A8BF4B46E3E64446CDF820A034
:1031E8000A9EE5E642460FE7079B012B16DC009B8B
:1031F800A3B9019BC3F3130383B9019B23F00043D5
:103208001B0D1B056BB10AF1010A01374FF00108CC
:103218000C9B002B7FF412AF012017E74FF000083A
:10322800F6E79846F4E73FF422AF089A1C331A44AD
:103238009A4408921F441AE70346F6E7B9F1000FCB
:1032480039DC079B022B36DDCDF81890069B63B955
:10325800214605222846FEF7DAFF01460446039870
:10326800FFF793F900283FF754AD0B9B6FEA030B68
:10327800049B4FF00009214628460093FEF7B0FF53
:10328800009B002E3FF44CAEB9F1000F06D0B145BB
:1032980004D049462846FEF7A3FF009B0093314619
:1032A8002846FEF79DFF009B3AE600242646DCE709
:1032B800934626462DE50A9BCDF81890002B7FF4FF
:1032C8000DAF049F03982146FFF7BEFA00F13008BE
:1032D80007F8018B049B069AFB1A9A4200F3818037
:1032E800049B012AACBF9B1801331F464FF000090D
:1032F800012203992846FFF7F7F821460390FFF7C4
:1033080044F9002833DC02D118F0010F2FD13B46D5
:1033180013F8012C302A03F1FF31ACD10B46F7E743
:103328003046FAE601231CE7009A002A04DB27D17D
:10333800079A2ABB089A1ABB002B7FF72CAF0122E9
:1033480003992846FFF7D0F821460390FFF71DF9A7
:10335800002805DC7FF41FAF18F0010F3FF41BAF06
:10336800B8F1390F7FF415AF39233B7001373B466D
:1033780013F8012C392A03F1FF313AD001323FE02A
:10338800002B07F1010305DDB8F1390FECD008F186
:10339800010801E71F4603F8018C049B069AFB1AF3
:1033A8009342A5D000230A2203992846FEF72FFF4F
:1033B800B14503904FF000034FF00A0249462846F2
:1033C80004D1FEF724FF81460646ADE6FEF71FFF4F
:1033D8003146814600230A222846FEF718FF064692
:1033E800A2E600230A2203992846FEF710FF03905D
:1033F80068E7049A8A4205D104990BF1010B31223E
:103408000A7038E70B46B3E7094BFFF70ABB1F9B67
:10341800002B7FF4E8AA074BFFF703BB069B002BA2
:103428003FF74FAF079B022B7FF74BAF0EE700BF6D
:10343800B9350008AC350008024B01461868FFF79B
:103448008DB900BF0C00002010B5431E0A449142FC
:1034580000D110BD11F8014B03F8014FF7E7704791
:1034680070470000F8B500BFF8BC08BC9E4670471E
:0C347800F8B500BFF8BC08BC9E467047C9
:1034880054454D503A00430048554D49443A0025AB
:103498000000000000000000000102030406070805
:1034A80009000000000000000080E03779C34143B4
:1034B800176E05B5B5B89346F5F93FE9034F384D92
:1034C800321D30F94877825A3CBF737FDD4F15753E
:1034D800000000000000F03F000000000000244051
:1034E80000000000000059400000000000408F402C
:1034F800000000000088C34000000000006AF84097
:103508000000000080842E4100000000D0126341BA
:103518000000000084D797410000000065CDCD4130
:10352800000000205FA00242000000E87648374211
:10353800000000A2941A6D42000040E59C30A242AF
:103548000000901EC4BCD64200003426F56B0C4324
:103558000080E03779C3414300A0D88557347643CB
:1035680000C84E676DC1AB43003D9160E458E1432C
:10357800408CB5781DAF154450EFE2D6E41A4B44A1
:1035880092D54D06CFF08044F64AE1C7022DB544E6
:10359800B49DD9794378EA44050000001900000079
:1035A8007D000000496E66696E697479004E614E4F
:0435B80000300000DF
:0835BC00ACCCFF7F0100000010
:0435C4001D020008DC
:0435C800F9010008FD
:1035CC0001000000100000000024F4001000002096
:1035DC0000000000000000000000000000000000DF
:1035EC0000000000000000000000000000000000CF
:1035FC0000000000000000000000000000000000BF
:10360C0000000000000000000000000000000000AE
:10361C00000000000000000000000000000000009E
:10362C00000000000000000000000000000000008E
:0400000508001E2DA4
:00000001FF
