:020000040800F2
:1000000000000820992A00082D2A00082F2A00083D
:10001000312A0008332A0008352A000800000000B1
:10002000000000000000000000000000372A000867
:10003000392A0008000000003B2A00083D2A000879
:10004000E92A0008E92A0008E92A0008E92A000844
:10005000E92A0008E92A0008E92A0008E92A000834
:10006000E92A0008E92A0008E92A0008E92A000824
:10007000E92A0008E92A0008E92A0008E92A000814
:10008000E92A0008E92A0008E92A0008E92A000804
:10009000E92A0008E92A0008E92A0008E92A0008F4
:1000A000E92A0008E92A0008E92A0008E92A0008E4
:1000B000E92A0008E92A0008E92A0008E92A0008D4
:1000C000E92A0008E92A0008E92A0008E92A0008C4
:1000D000E92A0008E92A0008412A0008E92A00085C
:1000E000E92A0008E92A0008E92A0008E92A0008A4
:1000F000E92A0008E92A0008E92A0008E92A000894
:10010000E92A0008E92A0008E92A0008E92A000883
:10011000E92A0008E92A0008E92A0008E92A000873
:10012000E92A0008E92A0008E92A0008E92A000863
:10013000E92A0008E92A0008E92A0008E92A000853
:10014000E92A0008E92A0008E92A0008E92A000843
:10015000E92A0008E92A0008E92A0008E92A000833
:10016000E92A0008E92A0008E92A0008E92A000823
:10017000E92A0008E92A0008E92A0008000000002E
:10018000E92A0008E92A0008E92A0008E92A000803
:10019000E92A0008E92A0008E92A0008E92A0008F3
:1001A000E92A0008E92A0008E92A0008E92A0008E3
:1001B000E92A0008E92A0008E92A0008E92A0008D3
:1001C000E92A0008E92A000800000000E92A0008DE
:1001D000E92A0008E92A0008E92A0008E92A0008B3
:1001E000E92A0008E92A0008E92A0008E92A0008A3
:0801F000E92A0008E92A0008D1
:1001F80010B5054C237833B9044B13B10448AFF359
:1002080000800123237010BD0C00002000000000B6
:10021800442B000808B5034B1BB103490348AFF34F
:10022800008008BD0000000010000020442B0008DA
:1002380053B94AB9002908BF00281CBF4FF0FF3145
:100248004FF0FF3000F07AB9ADF1080C6DE904CE3B
:1002580000F006F8DDF804E0DDE9022304B0704799
:100268002DE9F0478C460D460446089E002B51D1D7
:100278008A4217466DD9B2FA82FEBEF1000F0BD042
:10028800CEF1200C01FA0EF520FA0CFC02FA0EF75A
:100298004CEA050C00FA0EF44FEA174A250CBCFB91
:1002A800FAF81FFA87F90AFB18CC45EA0C4508FB4F
:1002B80009F3AB420AD9ED1908F1FF3280F0238126
:1002C800AB4240F22081A8F102083D44ED1AA4B2E5
:1002D800B5FBFAF00AFB105544EA054400FB09F99E
:1002E800A14509D9E41900F1FF3380F00A81A1453D
:1002F80040F2078102383C44A4EB090440EA084074
:100308000021002E61D024FA0EF4002334607360BB
:10031800BDE8F0878B4207D9002E54D0002186E82B
:1003280021000846BDE8F087B3FA83F1002940F0C0
:100338008E80AB4202D3824200F2FA80841A65EBC7
:1003480003050120AC46002E3FD086E81010BDE81A
:10035800F08712B90127B7FBF2F7B7FA87FEBEF1AB
:10036800000F34D1EB1B3A0C1FFA87FC0121B3FBB9
:10037800F2F8250C02FB183345EA03450CFB08F399
:10038800AB4207D9ED1908F1FF3002D2AB4200F2B7
:10039800D1808046ED1AA3B2B5FBF2F002FB1055EE
:1003A80043EA05440CFB00FCA44507D9E41900F115
:1003B800FF3302D2A44500F2B8801846A4EB0C041F
:1003C80040EA08409DE731463046BDE8F087CEF167
:1003D800200405FA0EF307FA0EF720FA04F83A0C8F
:1003E80025FA04F448EA0308B4FBF2F14FEA184589
:1003F80002FB11441FFA87FC45EA044501FB0CF394
:10040800AB4200FA0EF409D9ED1901F1FF3080F082
:100418008A80AB4240F2878002393D44EB1A1FFACA
:1004280088F5B3FBF2F002FB103345EA034500FB05
:100438000CF3AB4207D9ED1900F1FF386FD2AB428C
:100448006DD902383D44EB1A40EA01418FE7C1F10A
:10045800200722FA07F88B4005FA01F448EA03035B
:1004680020FA07FE4FEA134CFD404EEA040EB5FB96
:10047800FCF94FEA1E440CFB19551FFA83F844EAAD
:10048800054509FB08F4AC4202FA01F200FA01FA48
:1004980008D9ED1809F1FF3043D2AC4241D9A9F18E
:1004A80002091D442D1B1FFA8EFEB5FBFCF00CFB48
:1004B80010554EEA054400FB08F8A04507D9E41892
:1004C80000F1FF3529D2A04527D902381C4440EA5B
:1004D8000940A4EB0804A0FB02894C45C6464D46DA
:1004E80015D312D056B1BAEB0E0364EB050404FA27
:1004F80007F7CB401F43CC40376074600021BDE84C
:10050800F0871846F8E69046E0E6C245EAD2B8EB2E
:10051800020E69EB03050138E4E72846D7E74046B1
:1005280091E78146BEE7014678E702383C4445E753
:10053800084608E7A8F102083D442BE7704700BFCA
:1005480038B50E4B05460E4A18784FF47A73B3FB4C
:10055800F0F31068B0FBF3F000F058FA044658B90D
:100568000F2D09D8024629464FF0FF3000F008FA4F
:10057800044B20461D6038BD012038BD0000002016
:10058800080000200400002008B5032000F0E6F968
:100598000020FFF7D5FF02F0F9F8002008BD0000A1
:1005A800034A044B11681B780B441360704700BF63
:1005B8002800002000000020014B1868704700BF89
:1005C8002800002038B50446FFF7F6FF0546631CEF
:1005D8001EBF044B1B78E418FFF7EEFF401B844254
:1005E800FAD838BD0000002038B50446002800F0CD
:1005F8009B80056C25B902F0E1F8656484F83C50ED
:10060800236CDB0600F18E80236C23F4885323F0DF
:10061800020343F002032364444B5A6822F4403235
:100628005A605A6861680A435A60236821695A689F
:1006380022F480725A605A6842EA0122A1685A601C
:100648005A6822F040725A605A680A43E1685A6050
:100658009A6822F400629A609A680A4334499A6058
:10066800A26A8A4252D0996821F0706199609968AB
:100678000A43E16A9A609A6822F040529A609A683E
:100688000A439A609A68A16922F002029A609A68FD
:1006980042EA41029A6094F82020002A3ED05A6823
:1006A800616A42F4006201395A605A6822F4604271
:1006B8005A605A6842EA41325A600020DA6AE169AF
:1006C80022F470020139DA62DA6A42EA015294F8D5
:1006D8003010DA629A6822F400729A609A6842EAE4
:1006E800412261699A609A6822F480629A609A68E5
:1006F80042EA81229A606064236C23F0030343F08A
:1007080001032364002384F83C3038BD9A6822F042
:1007180070629A609A6822F04052B2E75A6822F4EE
:100728000062C9E70120EDE7012038BD0023014040
:100738000100000F002382B0019390F83C30012B98
:100748005CD0012380F83C3003689A68D20705D54D
:100758009A68D10714D4002002B070479A682849D3
:1007680042F001029A60274A1268B2FBF1F202EBEA
:1007780042020192019A002AEAD0019A013AF8E766
:10078800026C22F4E06222F0010242F480720264F8
:100798005A68520505D5026C22F4405242F4805240
:1007A8000264026C12F4805202D0426C22F00602FB
:1007B8004264002280F83C206FF022021A60124A3C
:1007C8005168C90608D1986810F04050C3D19A689A
:1007D80042F080429A60BFE70C498B4207D1996882
:1007E80011F0405F03D1996841F0804199605268E7
:1007F800D206B0D4064A9342ADD1E4E70220ABE773
:1008080040420F0008000020002301400020014062
:10081800002201400368D86C704700000023F7B538
:10082800019390F83C30012B71D00D6801230468C6
:10083800092D80F83C30AEB28A6831D906EB460300
:100848004FF0070EE7681E3B0EFA03FE27EA0E0775
:10085800E7603D4FBD421ED1E36843EA0263E360AF
:100868004A68062A4FEA82032AD81344676B591F3D
:100878001F238B4006FA01F127EA03036363626BC7
:1008880011436163314B9C4239D0002380F83C30DE
:10089800184603B0F0BDE76802FA03F33B43DEE70E
:1008A80005EB45034FF0070E27690EFA03FE02FA1F
:1008B80003F327EA0E07276127693B432361CFE744
:1008C8000C2A0ED81344216BA3F123021F23934053
:1008D80006FA02F221EA03032363236B1A43226315
:1008E800D0E713441F22E16A413B9A4021EA020201
:1008F80006FA03F1E262E26A1143E162C2E7122DED
:1009080007D1134A536843F480035360BDE70220BC
:10091800BFE70D4B9D4201D0112DB6D10C499D4228
:100928004A6842F400024A60AFD10A4B0A4A1B687F
:10093800B3FBF2F20A2353430193019B002BA4D08B
:10094800019B013BF8E700BF1200001000200140A6
:10095800002301400800002040420F00074A00021F
:10096800D36800F4E06023F4E0631B041B0C43F03D
:10097800BF6343F400330343D360704700ED00E0E6
:10098800194B30B5DC68C4F30224C4F10703251DF4
:10099800042B28BF0423062D4FF001058CBF033C10
:1009A800002405FA03F3002803F1FF3301EA0301E9
:1009B80001FA04F105FA04F404F1FF3402EA04022E
:1009C80042EA01024FEA021207DB00F16040D2B2AC
:1009D80000F5614080F8002330BD00F00F00D2B26E
:1009E800024B1A5430BD00BF00ED00E014ED00E0EA
:1009F800002808DB4209012300F01F0003FA00F079
:100A0800014B43F82200704700E100E00138B0F1E3
:100A1800807F0AD2064BF021064A5860002082F8EF
:100A28002310072298601A6070470120704700BFA2
:100A380010E000E000ED00E090F83530022B03D024
:100A480080234365012070470268052380F835300C
:100A58000020136823F001031360704770B5044643
:100A680029B14FF40063C3604FF480438360E369A6
:100A78002268002BE068A368156808BF4FF48061FE
:100A880043EA00032E4818BF0021284043F40073AE
:100A9800034301200B4313601568FFF793FD236898
:100AA800402201201D605A605D68FFF78BFD2368B6
:100AB80001205D6000259D60DD609A6922F0BE021C
:100AC8001204120C42F080029A619E69FFF77AFDC7
:100AD800236801209E61DD61DD69FFF773FD2268EF
:100AE8000120184BD56141F2180551590B4043F0CC
:100AF800087343F0040353515659FFF763FD236805
:100B08000120114A5E5103F580531A601D68FFF7F2
:100B180059FD226802F580531D60A369012B07D196
:100B280041F21C01535843F4803343F040035350BF
:100B38006369064A998811601A68054B1A6070BD86
:100B48000F8120FF233FDEF88020C1024080024051
:100B580044800240F8B590F8443005461646822B8A
:100B680030D002688223890180F84430136901F487
:100B7800F86403F01C012143048AE402A4B20C4384
:100B880044F001041461FFF717FD074614F0010053
:100B980007D12B685B699BB23360012385F8443029
:100BA800F8BDFFF709FDC01BB0F5803F07D301234F
:100BB800032085F84430002385F84530F8BD2B68BC
:100BC8001C69E3E70220F8BD90F84430422B70B569
:100BD80005462ED042238C0192B280F8443004F4AA
:100BE800F864036844F00304186900F01C0020430B
:100BF8002C8A5A61E402A4B204431C61FFF7DCFCAE
:100C0800064614F0010003D1012385F8443070BD75
:100C1800FFF7D2FC801BB0F5803F07D301230320E8
:100C280085F84430002385F8453070BD2B681C6971
:100C3800E7E7022070BD00000023F7B504460093E3
:100C4800002800F0DC8090F8443003F0FF021BB964
:100C580080F8452001F0E0FD6A4B5A6C42F480426E
:100C68005A645B6C03F480430193019B664B5A689A
:100C780022F400025A605A68216A0A435A602368BB
:100C880003F580531A6842F001021A60FFF794FCDA
:100C98000546236803F580521268D0071DD41D69E4
:100CA80000F0B4FC594B5A4A25F01C050344934202
:100CB80022D845F0080523684FF400420021204659
:100CC8001D61FFF781FF054668B301250121204614
:100CD800FFF7C4FE84F844500BE0FFF76DFC401B9F
:100CE800B0F5FA7FD5D90325002384F8445084F859
:100CF8004530284603B0F0BD464B474A034493426B
:100D080002D845F00C05D6E7444B454A03449342C4
:100D1800D1D9444B444A0344934294BF45F0040557
:100D280045F01005C7E7FF20FFF74CFC6368002B70
:100D380053D0FFF741FC41F2883706466A46012145
:100D48002046FFF707FFFFF737FC801BB8420BD997
:100D580001212046FFF782FE0123032584F8443051
:100D6800002384F84530C4E7009B5907E6D54FF4C3
:100D7800805200212046FFF727FF0028A5D1FFF762
:100D88001BFC41F2883706466A4601212046FFF7D8
:100D9800E1FEFFF711FC801BB842D9D8009B9A06E8
:100DA800F2D56A461F212046FFF7D4FE00288CD1D1
:100DB800009B13F0100218BF4FF400625B074CBF92
:100DC80000234FF48043E260A36000212046FFF730
:100DD80045FE012384F844308BE7A3682946E2687E
:100DE80020465B0843EAD20292B2FFF7EDFE0028E4
:100DF8007FF46BAF40F6FF70FFF7E4FBE5E70125F2
:100E080077E700BF003802400038014000D3CEFE2B
:100E1800BFE1E40040F1E9FD3F787D0100796CFC19
:100E2800FF596202001F0AFA7FF0FA022DE9F04F1B
:100E38000B6885B0DFF8C081019300236C4ADFF8A6
:100E4800BC914FF0010E019C0EFA03FE0EEA040657
:100E5800B64540F0B3804C6824F01007022F16D135
:100E68004FEAD30A03F0070B4FF00F0C00EB8A0A86
:100E78004FEA8B0BDAF820500CFA0BFC25EA0C0C25
:100E88000D6905FA0BF545EA0C05CAF820504FEA3A
:100E9800430A0325D0F800B004F0030C05FA0AF55C
:100EA800013F0CFA0AFCED43012F0BEA050B4CEA53
:100EB8000B0CC0F800C011D8876807EA050BCF688B
:100EC80007FA0AFC4CEA0B078760476827EA0E0E08
:100ED800C4F300179F4047EA0E074760C7683D40C4
:100EE8008F6807FA0AF73D43C560E50066D5D8F86C
:100EF800445023F0030703F0030E4FF00F0C45F4A2
:100F0800804507F180474FEA8E0EC8F8445007F530
:100F18009C37D8F8445005F480450395039D0CFA96
:100F28000EF5D7F808A02AEA050C324DA8424CD095
:100F380005F58065A8424AD005F58065A84248D0E5
:100F480005F58065A84246D005F58065A84244D0DD
:100F5800484544D005F50065A84242D005F58065AE
:100F6800A84240D005F58065A8423ED005F58065C9
:100F7800A84214BF0A25092505FA0EF514F4803F86
:100F880045EA0C05BD606FEA060715680CBF3D40D1
:100F9800354314F4003F156055680CBF3D40354398
:100FA80014F4801F556095680CBF3D403543A4027A
:100FB8009560D56854BF3D403543D5600133102B4B
:100FC8007FF43FAF05B0BDE8F08F0025D4E70125D9
:100FD800D2E70225D0E70325CEE70425CCE705258F
:100FE800CAE70625C8E70725C6E70825C4E700BFFE
:100FF800003C01400000024000380240001402405A
:101008000AB1816170470904FBE7F0B504468BB06B
:1010180030B390F8BD3303F0FF021BB980F8BC234E
:1010280001F0BAFC254603236E46271D55F8100B20
:1010380084F8BD3301F021F90FCD0FC60FCD0FC6CF
:1010480095E80300254686E8030097E80E0055F862
:10105800100B01F0D7F8064620B1022384F8BD33FF
:10106800012554E00146206801F00DF93046D4F816
:1010780004E01C264FF0010C0146C2B2013096452F
:101088001BD800231C261946D8B20133864522D81E
:101098000FCD6E460FC60FCD0FC695E8030086E844
:1010A800030097E80E00206801F02EF90123054699
:1010B80000B3022284F8BD23D2E706FB024383F87B
:1010C8003DC083F83C20A3F8422083F83F105964C0
:1010D80099641965D1E706FB004282F8FD1182F890
:1010E800FC0182F8FF11C2F80412C2F80812C2F813
:1010F8001012C9E784F8380084F8BD33636A012BFD
:1011080002D1204600F006F8206801F0C1F928460F
:101118000BB0F0BD012102680346C0F8FC130020A3
:1011280083F8F403936943F000639361536D43F0CC
:10113800805343F00303536570470000024A136865
:1011480043F4807313607047007000402DE9F34149
:10115800044618B9012002B0BDE8F0810368D80739
:1011680010D4236899075ED42368190700F1A38077
:1011780023685A0700F1C480A269002A40F02E8132
:101188000020E8E7934B9A6802F00C02042A07D083
:101198009A6802F00C02082A0AD15B685A0207D53D
:1011A8008C4B1B689B03DCD56368002BD9D1D1E736
:1011B8006368884DB3F5803F11D12B6843F48033C1
:1011C8002B60FFF7F9F9834D06462B689F03C8D4B7
:1011D800FFF7F2F9801B6428F7D90320BBE79BB916
:1011E8002B6823F480332B602B6823F480232B6037
:1011F800FFF7E2F906462B689803B2D5FFF7DCF94A
:10120800801B6428F7D9E8E7B3F5A02F2B6803D132
:1012180043F480232B60D0E723F480332B602B68C2
:1012280023F48023CCE76B4B9A6812F00C0F07D09D
:101238009A6802F00C02082A11D15B6859020ED490
:10124800644B1A68920702D5E268012A82D11A68AB
:10125800216922F0F80242EAC1021A6084E7E368D1
:101268005C4DBBB12B6843F001032B60FFF7A4F979
:1012780006462B689F0707D52B68226923F0F803D9
:1012880043EAC2032B606FE7FFF796F9801B022839
:10129800EFD9A2E72B6823F001032B60FFF78CF945
:1012A80006462B6898077FF55FAFFFF785F9801B27
:1012B8000228F6D991E76369464D83B16B6F43F015
:1012C80001036B67FFF778F906466B6F9B073FF5DD
:1012D8004FAFFFF771F9801B0228F6D97DE76B6FD6
:1012E80023F001036B67FFF767F906466B6F9F07EB
:1012F8007FF53EAFFFF760F9801B0228F6D96CE74F
:10130800344B1A6CD00027D41A6C012642F0805254
:101318001A641B6C03F080530193019B2E4D2B68BC
:10132800D9051BD5A3682B4D012B27D12B6F43F073
:1013380001032B6741F28835FFF73EF9254F8046B8
:101348003B6F9B073FD5002E3FF416AF214A136C25
:1013580023F0805313640FE70026DFE72B6843F47C
:1013680080732B60FFF728F907462B68DA05D9D474
:10137800FFF722F9C01B6428F7D92EE7ABB92B6F0A
:1013880041F2883823F001032B672B6F23F0040305
:101398002B67FFF711F907462B6F9807D3D5FFF78F
:1013A8000BF9C01B4045F7D917E7052B2B6F03D165
:1013B80043F004032B67B9E723F001032B672B6F76
:1013C80023F00403B5E7FFF7F7F8A0EB0800A842FD
:1013D800B6D902E70038024000700040244DAB68DF
:1013E80003F00C03082B3FF4B5AE2B68022A23F058
:1013F80080732B602FD1FFF7DFF806462B68990121
:1014080023D4226AE3691343626A43EA8213E26AD5
:1014180043EA0263226B43EA0273A26A144C52083D
:10142800013A43EA02436B602B6843F080732B60F8
:10143800FFF7C2F8054623689A013FF5A1AEFFF70A
:10144800BBF8401B0228F6D9C7E6FFF7B5F8801BA2
:101458000228D3D9C1E6FFF7AFF804462B689B01F1
:101468007FF58EAEFFF7A8F8001B0228F6D9B4E680
:1014780000380240134908B58B6803F00C03042BAD
:1014880003D0082B03D0104808BD104808BD4A688F
:101498004B68496802F03F0213F48003C1F38811D6
:1014A8001ABF0A4800230848A1FB0001FEF7C0FE46
:1014B800044B5B68C3F3014301335B00B0FBF3F0FB
:1014C80008BD00BF003802400024F40000127A0072
:1014D8002DE9F0410D46044610B90120BDE8F08120
:1014E800464A136803F00F038B4228D321688F07FD
:1014F80030D4C80743D4414A136803F00F039D4210
:1015080067D32268510770D4130707D53C4A21696D
:10151800936823F4604343EAC1039360FFF7AAFF8B
:10152800374B384A9B68C3F30313D35CD840364B18
:1015380018600020FFF704F80020BDE8F081136868
:1015480023F00F030B431360136803F00F03994252
:10155800C3D1CBE711F0040F294B03D09A6842F4AA
:10156800E0529A600E0703D59A6842F460429A6086
:101578009A68A06822F0F00202439A60B9E76168AD
:101588001F4B01291A681CD112F4003FA5D09A6894
:1015980041F288381A4E22F003020A439A60FFF794
:1015A8000BF80746B368626803F00C03B3EB820FCD
:1015B800A1D0FFF701F8C01B4045F3D90320BDE8CF
:1015C800F081022902D112F0007FDFE712F0020F4A
:1015D800DCE7136823F00F032B431360136803F051
:1015E8000F039D427FF479AF8BE70549E0688B686C
:1015F80023F4E05303438B6086E700BF003C0240BE
:10160800003802406D2B000808000020014B1868C4
:10161800704700BF08000020044B054A9B68C3F3CD
:101628008223D35C034A1068D840704700380240D0
:101638007D2B000808000020044B054A9B68C3F373
:101648004233D35C034A1068D840704700380240E0
:101658007D2B0008080000202DE9F74302680446A6
:1016680012F001060BD0BA4B996821F40001996079
:10167800466B99683143B6FA86F67609996012F492
:10168800002512D0B249E56BD1F88C30B5F5801F32
:1016980023F4401308BF012643EA050316BFB5FA31
:1016A80085F500256D09C1F88C30D70210D5A848FA
:1016B800216CD0F88C30B1F5800F23F4400343EA55
:1016C8000103C0F88C3000F0A981002908BF01256A
:1016D80012F0807F18BF0126900631D59C4B9D4F94
:1016E8001A6C42F080521A641B6C03F08053019309
:1016F800019B3B6843F480733B60FEF75DFF8046C7
:101708003B68D90540F18C81914F3B6F13F44073CE
:1017180040F09181236B03F44072B2F5407F8C4A0C
:1017280040F0AF81916823F0704021F4F81120F463
:10173800407001439160C3F30B03116F0B431367B0
:101748002368DF060CD5824AD2F88C1021F080710C
:10175800C2F88C10D2F88C10A06B0143C2F88C1020
:10176800580408D57A49606ED1F8902022F44032A6
:101778000243C1F89020190408D57549A06ED1F824
:10178800902022F440220243C1F89020DA0308D5C1
:101798006F49E06ED1F8902022F440120243C1F85C
:1017A80090209F0308D56A49206FD1F8902022F431
:1017B80040020243C1F89020580608D56449606C7D
:1017C800D1F8902022F003020243C1F890201906B4
:1017D80008D55F49A06CD1F8902022F00C02024392
:1017E800C1F89020DA0508D55949E06CD1F8902065
:1017F80022F030020243C1F890209F0508D55449D1
:10180800206DD1F8902022F0C0020243C1F8902048
:10181800580508D54E49606DD1F8902022F44072E1
:101828000243C1F89020190508D54949A06DD1F89F
:10183800902022F440620243C1F89020DA0408D5CF
:101848004349E06DD1F8902022F440520243C1F898
:1018580090209F0408D53E49206ED1F8902022F4AC
:1018680040420243C1F89020580208D53849A06F79
:10187800D1F8902022F080620243C1F890209902AA
:101888000CD53348E16FD0F89020B1F1006F22F009
:10189800006208BF01250A43C0F8902013F0080F22
:1018A80018BF01255A0308D52949606FD1F890203F
:1018B80022F040720243C1F890201F0209D5244942
:1018C800D4F88000D1F8902022F080520243C1F869
:1018D8009020580109D51E49D4F88400D1F89020E9
:1018E80022F000520243C1F89020190109D5184985
:1018F800D4F88800D1F88C2022F000720243C1F895
:101908008C20DA0009D51249D4F88C00D1F88C2043
:1019180022F080620243C1F88C20012E00F0B580CD
:10192800B3F1007F00F0B180012D75D1084D2B680F
:1019380023F080532B60FEF73FFE06462B689F007E
:1019480000F1278121680E0306D5E36B43B103E05C
:101958000038024000700040CD021DD5236CDBB971
:10196800934AD2F88830D2F8880003F4403300F064
:10197800E0400343606943EA8013A06943EA0063D7
:10198800C2F88830D2F88C30A06A23F4F8530138B2
:1019980043EA0023C2F88C30880215D5E36FB3F10F
:1019A800006F11D1824AD2F88830D2F8880003F04B
:1019B800706300F0E0400343606943EA8013206AE3
:1019C80043EA0043C2F888300A0719D57849D1F8A4
:1019D8008820D1F8883002F0706203F44033134352
:1019E800626943EA8213E26943EA0273C1F8883004
:1019F800D1F88C30E26A23F440331343C1F88C30B9
:101A08006B4C236843F080532360FEF7D5FD0546F1
:101A180023689B0040F1C480002009E0012657E6B6
:101A2800FEF7CAFDA0EB080064287FF669AE032024
:101A380003B0BDE8F083226B02F4407293423FF496
:101A480069AE3B6F3A6F23F4407342F480323A67D1
:101A58003A6F22F480323A673B673B6FDA077FF5CB
:101A680059AEFEF7A9FD41F2883980463B6F9B07C6
:101A78003FF550AEFEF7A0FDA0EB08004845F5D9AC
:101A8800D5E7916821F4F81154E6494E336823F0FC
:101A980080633360FEF790FD074633681B0172D4FC
:101AA8002268D70712D5636B83B9D6F88430D6F885
:101AB800841003F4403301F070610B43616843EA1A
:101AC8008113A16843EA0173C6F88430160303D56D
:101AD800E36BB3F5801F05D0D0021ED5236CB3F598
:101AE800800F1AD13249D1F88430D1F8840003F438
:101AF800403300F0E0400343606843EA8013E06845
:101B080043EA0063C1F88430D1F88C00636A20F09E
:101B18001F00013B0343C1F88C30D10111D5244982
:101B2800D1F88430D1F8840003F0706300F0E0400D
:101B38000343606843EA8013206943EA0043C1F81D
:101B4800843092010DD5236962681B0443EA82132D
:101B5800E26843EA0263A26843EA0273144AC2F8DD
:101B68008430134E336843F080633360FEF724FDFE
:101B7800074633681B013FF5D7AEFEF71DFDC01BB6
:101B88006428F6D953E7FEF717FDC01B642884D9EB
:101B98004DE7FEF711FD801B64287FF6CFAE46E7C0
:101BA800FEF70AFD401B64287FF632AF3FE700BF0F
:101BB8000038024003681A6822F490721A609A6822
:101BC80022F001029A60202383670023036670478E
:101BD800704770470368DA69196870B516070446D4
:101BE8009D6809D1950663D58E0661D5036E002BD5
:101BF80075D0BDE87040184715F0010002D111F406
:101C0800907F55D0D50707D5CE0505D501251D628E
:101C1800E56F45F00105E567950706D528B102256A
:101C28001D62E56F45F00405E567560706D528B13E
:101C380004251D62E56F45F00205E567150707D520
:101C48008E0600D420B108201862E36F0343E367CF
:101C5800E36F002B43D0950605D5880603D5236E80
:101C68000BB12046984722682046E56F92685106D6
:101C780002D415F0080517D0FFF79CFF23689A686F
:101C880052060DD59A68E06E22F040029A6038B18B
:101C9800134B0365FEF7D0FE08B3E06E036DA8E7AB
:101CA8002046FFF796FF70BDFFF793FFE56770BD0D
:101CB800160605D50D0603D5636E83B1204698E751
:101CC80050060CD54A060AD51A68204622F040026A
:101CD8001A602023636700236366FFF779FF70BDEE
:101CE800ED1C000808B5806B0023A0F85A30A0F856
:101CF8005230FFF76EFF08BD38B5C2690446036865
:101D0800816800691D680143606901439048114377
:101D18002840256A0143E0681960596821F4405158
:101D280001435960A1699868294320F43060014350
:101D3800996088498B4217D1874B8849D3F89030EE
:101D480003F00303B2F5004FCB5C29D1082B00F256
:101D58009D80DFE813F08C00E800EE009B00FA009D
:101D68009B009B009B0076007D498B4206D17A4BF5
:101D78007C49D3F8903003F00C03E3E77A498B42AF
:101D88001DD1754BD3F8903003F03003102B00F0C1
:101D9800D9800ED8002B67D0B2F5004F76D010232B
:101DA800082B73D8DFE803F0999FA272B47272729D
:101DB800B700202B00F0BA80302B3FD0ECE76B49FE
:101DC8008B420DD1644BD3F8903003F0C003402B05
:101DD80000F0B880DED9802B00F0A880C02BECE79B
:101DE80063498B4210D15C4BD3F8903003F44073B5
:101DF800B3F5807F00F0A680CCD9B3F5007F00F062
:101E08009580B3F5407FD8E75A498B421ED1524B93
:101E1800D3F8903003F44063B3F5806F00F09280FC
:101E280006D8002B7CD0B2F5004F2FD110238DE7B8
:101E3800B3F5006F7AD0B3F5406FF4D1B2F5004F27
:101E480069D16368580800F5803078E04A498B42C8
:101E580024D1414BD3F8903003F44053B3F5805F5D
:101E680070D015D8002BDED1B2F5004F35D1FFF771
:101E7800D3FB6268530803EB4000B0FBF2F080B27A
:101E88004FF6EF73A0F110029A421AD9012020E010
:101E9800B3F5005F4AD0B3F5405FCEE737498B42D0
:101EA800F4D12D4BD3F8903003F44043B3F5804F71
:101EB80048D07FF66FAFB3F5004F37D0B3F5404F3A
:101EC8007BE720F00F03C0F3420022681843D0607C
:101ED800002000232366636638BDFFF79DFB636817
:101EE80000EB530008E0FFF7A7FBF8E76368580822
:101EF80000F5740000F51050B0FBF3F080B24FF617
:101F0800EF73A0F110029A42C0D82368D860DFE7C7
:101F1800FFF7B0FAE3E76368580800F50040EBE71D
:101F2800B2F5004FDFD1FFF787FBA2E7B2F5004F0C
:101F3800DCD16368580800F1F47000F59040B0FBFC
:101F4800F3F09CE7B2F5004FE2D1FFF793FA90E780
:101F5800F369FFEF00100140003802405C2B0008D5
:101F680000440040602B000800480040004C00403E
:101F7800005000400014014000780040007C004000
:101F8800436ADA0710B506D50168846A4A6822F4FC
:101F9800003222434A609C0706D50168C46A4A6831
:101FA80022F4803222434A60590706D50168046B3F
:101FB8004A6822F4802222434A601A0706D501683B
:101FC800446B4A6822F4004222434A60DC0606D584
:101FD8000168846B8A6822F4805222438A609906D9
:101FE80006D50168C46B8A6822F4005222438A60CD
:101FF8005A0610D50168046C4A68B4F5801F22F4AB
:10200800801242EA04024A6005D14A68446C22F40C
:10201800C00222434A601B0606D50268816C5368D9
:1020280023F400230B43536010BD2DE9F041069DB6
:1020380004460F46164698462168CA6937EA0203DD
:102048000CBF01220022B24202D00020BDE8F0817C
:102058006B1CF2D0FEF7B0FAA0EB0800854201D362
:10206800002DE9D1236803201A6822F4D0721A607F
:102078009A6822F001029A6020236367A36700230D
:1020880084F87030BDE8F0812DE9F7439846436F36
:1020980004460E46202B91464BD1002947D0002AF2
:1020A80045D090F87030012B43D00123002580F8EB
:1020B80070302123C5674367FEF77EFAA368074699
:1020C800A4F85090B3F5805FA4F8529003D1236927
:1020D8000BB935461E46B4F852203B46CDF8008071
:1020E80092B24AB940212046FFF79FFF50B92023FA
:1020F80084F87000636706E0002280212046FFF71D
:1021080094FF18B1032003B0BDE8F08322685EB9DC
:1021180035F8023BC3F308039362B4F85230013B2D
:102128009BB2A4F85230D6E716F8013BF4E7012039
:10213800E9E70220E7E737B500250446C567FEF75B
:102148003BFA226803461268120707D420230020AE
:10215800636784F87000A36703B030BD6FF07E42F8
:102168004FF40011204600922A46FFF75EFF002830
:10217800ECD00320F0E710B5044640B3436F1BB919
:1021880080F8703000F0CEFB226824232046636775
:10219800136823F001031360FFF7AEFD012816D082
:1021A800636A13B12046FFF7EBFE236820465A689E
:1021B80022F490425A609A6822F02A029A601A68B9
:1021C80042F00102BDE810401A60FFF7B4BF0120D9
:1021D80010BD00000A4B013B01D103207047026982
:1021E800002AF8DA0369064A43F001030361013A59
:1021F800F3D0036913F00103F9D11846704700BF03
:10220800410D030084B038B505AD044685E80E00DD
:102218000A9B012B26D1836B23F480338363C36825
:1022280023F4840323F04003C360C36823F44013FA
:10223800C360119B012B03D1C36843F48013C360AF
:102248002046FFF7C7FF089B012B07D1A36843F07F
:102258000603A360A36843F02003A360BDE83840E9
:1022680004B07047C36843F04003C360FFF7B2FF90
:10227800A36B43F48033A363E5E7836823F001038A
:1022880083600020704708B5C368012923F0C04364
:10229800C36008D1C36843F00053C3603220FEF71F
:1022A80091F9002008BD19B9C36843F08043F4E7E9
:1022B800012008BD8901074A41F020010161013A66
:1022C80005D0036913F02003F9D11846704703209D
:1022D800704700BF410D03001023064A0361013A0D
:1022E80005D0036913F01003F9D11846704703208D
:1022F800704700BF410D0300D0F800381943C0F8FB
:10230800001800207047000084B02DE9F04704460B
:1023180009A8884680E80E0000230B9A0C9F0E99A6
:102328001D46139E03F14000013304EB80000F2B80
:102338004560F7D1A36B002E71D123F40013A3637A
:10234800236843F040032360236843F0800323603D
:102358000023012904F50065C4F8003ED4F80038CC
:10236800C4F8003861D1002A5DD100212046FFF76A
:10237800C3FF10212046FFF79DFF01462046FFF7C7
:10238800ABFF002855D1081C18BF0120002304F515
:1023980010624FF0904E4FF0006C19464FF67F399F
:1023A8002B616B61EB61434545D1002104F5306237
:1023B8004FF0904C4FF000688E464FF67F398B42B5
:1023C8004CD12B69012F23F480732B6107D12E4B3D
:1023D8002B632B6B43F4803343F003032B630023FD
:1023E800A3616FF0804363611FB9A36943F01003D1
:1023F800A361A269254B1343A3610F9B1BB1A3697A
:1024080043F00803A361012E05D1A36943F080437B
:1024180043F00403A361BDE8F04704B0704743F4F8
:102428000013A36394E70121A0E703299BD00321AC
:102438009CE70120AAE7D2F800A0BAF1000F0BDA56
:102448003BB9C2F800C011610133C2F808902032CC
:10245800A9E7C2F800E0F6E71160F4E7D2F800A0B7
:10246800BAF1000F0CDA41B9C2F80080C2F810E0E6
:102478000131C2F808902032A1E7C2F800C0F5E7A0
:10248800C2F800E0F2E700BF0001800000383C809D
:1024980008B5D0F8043843F00203C0F80438032024
:1024A800FEF790F8002008BD30B5B9B034220021FD
:1024B800022407A8012500F039FB1422002102A8F4
:1024C80000F034FB0021902214A800F02FFBFEF747
:1024D80035FE204B07A81A6C42F080521A641B6C18
:1024E8001D4A03F080530093009B136823F4404374
:1024F80043F48043136013686022079503F4404354
:1025080010920D940193019B4FF4A023119408930A
:102518004FF480030E9304230F931293FEF716FED5
:102528000F23294602A803940293802304934FF4AF
:10253800805305934FF4A0530693FEF7C9FF074B4A
:1025480014A81493002326933393FFF785F839B022
:1025580030BD00BF003802400070004080002000FD
:1025680080B58CB00024FEF70FF80126FFF79CFF1A
:102578001422002107A800F0D9FA754B44F2810112
:1025880074481A6B022507274FF0800842F00402AE
:102598001A631A6B02F004020192019A1A6B42F054
:1025A80080021A631A6B02F080020292029A1A6B76
:1025B80042F001021A631A6B02F001020392039AB5
:1025C8001A6B42F002021A631A6B02F002020492BA
:1025D800049A1A6B42F008021A631A6B02F0080296
:1025E8000592059A1A6B42F040021A6300221B6B8F
:1025F80003F040030693069BFEF702FD00224021EC
:102608005548FEF7FDFC4FF4005307A953480793BC
:10261800534B09940893FEF709FC44F2810307A978
:102628004C480793089609940A94FEF7FFFB4FF469
:10263800407307A94B4807930323089509940A9305
:102648000B97FEF7F3FB402307A943480793089627
:1026580009940A94FEF7EAFB07A93F4808940994ED
:10266800CDF81C80FEF7E2FB3F48E1223F4B048295
:1026780080E8480043691C70436983F80180436916
:102688009A704369DC7043691C7143695C714FF44B
:1026980000038461C4610362FEF7CEFA344806235E
:1026A8004FF0A042C56004618561C661046244625E
:1026B800C66204632F4D80E80C00FEF7A6FC1022CA
:1026C800214607A800F032FA4FF400312A484FF0AB
:1026D80000732C61AE6185F82040EC62EC60EE611D
:1026E80085F830406E6185E80B00244B2846AB62C4
:1026F800FDF77AFF07A92846079408960997FEF779
:102708008DF81F4E4FF416571E4BB4603046F460D8
:102718003461B461F461346274621B4C86E88800E9
:102728000C237361FFF727FD2846FEF703F82846B8
:10273800FEF770F84FF47A73207001221249304680
:10274800FFF7A2FC4FF4FA70FDF73CFFECE700BF7F
:10275800003802400004024000180240000802400D
:1027680000001110000C0240FC0400200080024010
:102778002C00002030040020002001400100000F40
:102788007C04002000440040780400200A4B82B0FA
:102798001A6C42F080521A641A6C02F0805200924D
:1027A800009A5A6C42F480425A645B6C03F480438A
:1027B8000193019B02B070470038024010B588B001
:1027C80004461422002103A800F0B0F92268104B37
:1027D8009A421BD103F58C3303A90E485A6C42F474
:1027E80080725A645A6C02F480720192019A1A6BD0
:1027F80042F001021A631B6B03F001030293029B70
:102808000123039303230493FEF710FB08B010BDC4
:102818000020014000000240F0B58DB004461422AB
:10282800002107A800F082F92268394B9A426DD13D
:10283800A3F59043022603250B241A6B07A93548F4
:10284800002742F000721A631A6B02F000720092BD
:10285800009A1A6B42F080621A631A6B02F0806267
:102868000192019A1A6B42F000621A631A6B02F025
:1028780000620292029A1A6B42F004021A631A6BFF
:1028880002F004020392039A1A6B42F001021A63DF
:102898001A6B02F001020492049A1A6B42F00202C7
:1028A8001A631A6B02F002020592059A1A6B42F03B
:1028B80040021A631B6B089603F040030A950B94B9
:1028C8000693069B32230793FEF7B0FA862307A9DF
:1028D80011480793089609970A950B94FEF7A6FAEC
:1028E8004FF4005307A90D480793089609970A95CE
:1028F8000B94FEF79BFA4FF4205307A90848079357
:10290800089609970A950B94FEF790FA0DB0F0BD5A
:10291800008002400008024000000240000402401B
:102928000018024010B588B004461422002103A8FC
:1029380000F0FCF82268164B9A4227D103F5FA33C7
:1029480003A914481A6C42F400321A641A6C02F48F
:1029580000320192019A1A6B42F008021A631B6B4B
:1029680003F008030293029B60230393022304935A
:102978000323069307230793FEF758FA002226201D
:102988001146FDF7FDFF2620FEF732F808B010BD0E
:1029980000440040000C024010B588B004461422E0
:1029A800002103A800F0C2F82368B3F1A04F32D188
:1029B8001A4C03A91A48236B43F001032363236BC2
:1029C80003F001030093009B4FF4E85303930223A1
:1029D8000493032306930A230793FEF727FA4FF479
:1029E800007303A90E480393002304930593FEF78D
:1029F8001DFA636B43F080036363636B03F080032A
:102A08000193019B636C43F480436364636C03F438
:102A180080430293029B08B010BD00BF00380240FB
:102A2800000002407047FEE7FEE7FEE7FEE770475A
:102A380070477047FDF7B4BD0148FFF7CBB800BF3A
:102A48007C0400200F490020D1F8883043F470033B
:102A5800C1F888300C4B1A6842F001021A6098607D
:102A68001A6822F0847222F480321A60074A5A6087
:102A78001A6822F480221A60D8604FF000638B60D5
:102A8800704700BF00ED00E000380240103000241D
:102A9800DFF834D0002103E00C4B5B58435004317D
:102AA8000B480C4B42189A42F6D30B4A02E000231B
:102AB80042F8043B094B9A42F9D3FFF7C3FF00F0F1
:102AC80011F8FFF74DFD704700000820982B00080B
:102AD800000000200C0000200C000020440500200D
:102AE800FEE7000070B50D4E0D4CA41BA410002588
:102AF800A54209D10B4E0C4C00F020F8A41BA410E1
:102B08000025A54205D170BD56F8253098470135F6
:102B1800EEE756F8253098470135F2E7902B000884
:102B2800902B0008902B0008942B000802440346C1
:102B3800934200D1704703F8011BF9E7F8B500BFCD
:102B4800F8BC08BC9E467047F8B500BFF8BC08BC86
:042B58009E467047DE
:102B5C0001040208001010100410101002101010C4
:102B6C000800000000000000000102030406070832
:0C2B7C000900000000010203040000003A
:082B8800E0D6FF7F0100000010
:042B90001D0200081A
:042B9400F90100083B
:0C2B980001000000100000000024F40008
:0400000508002A992C
:00000001FF
