:020000040800F2
:1000000000000820BD2500084525000847250008F8
:10001000492500084B2500084D2500080000000078
:100020000000000000000000000000004F25000854
:100030005125000800000000532500085525000840
:100040000D2600080D2600080D2600080D260008C4
:100050000D2600080D2600080D2600080D260008B4
:100060000D2600080D2600080D2600080D260008A4
:100070000D2600080D2600080D2600080D26000894
:100080000D2600080D2600080D2600080D26000884
:100090000D2600080D2600080D2600080D26000874
:1000A0000D2600080D2600080D2600080D26000864
:1000B0000D2600080D2600080D2600080D26000854
:1000C0000D2600080D2600080D2600080D26000844
:1000D0000D2600080D260008592500080D260008E9
:1000E0000D2600080D2600080D2600080D26000824
:1000F0000D2600080D2600080D2600080D26000814
:100100000D2600080D2600080D2600080D26000803
:100110000D2600080D2600080D2600080D260008F3
:10012000652500080D2600080D2600080D2600088C
:100130000D2600080D2600080D2600080D260008D3
:100140000D2600080D2600080D2600080D260008C3
:100150000D2600080D2600080D2600080D260008B3
:100160000D2600080D2600080D2600080D260008A3
:100170000D2600080D2600080D26000800000000CE
:100180000D2600080D2600080D2600080D26000883
:100190000D2600080D2600080D2600080D26000873
:1001A0000D2600080D2600080D2600080D26000863
:1001B0000D2600080D2600080D2600080D26000853
:1001C0000D2600080D260008000000000D2600087E
:1001D0000D2600080D2600080D2600080D26000833
:1001E0000D2600080D2600080D2600080D26000823
:0801F0000D2600080D26000891
:1001F80010B5054C237833B9044B13B10448AFF359
:1002080000800123237010BD0C00002000000000B6
:100218006826000808B5034B1BB103490348AFF330
:10022800008008BD000000001000002068260008BB
:1002380053B94AB9002908BF00281CBF4FF0FF3145
:100248004FF0FF3000F07AB9ADF1080C6DE904CE3B
:1002580000F006F8DDF804E0DDE9022304B0704799
:100268002DE9F0478C460D460446089E002B51D1D7
:100278008A4217466DD9B2FA82FEBEF1000F0BD042
:10028800CEF1200C01FA0EF520FA0CFC02FA0EF75A
:100298004CEA050C00FA0EF44FEA174A250CBCFB91
:1002A800FAF81FFA87F90AFB18CC45EA0C4508FB4F
:1002B80009F3AB420AD9ED1908F1FF3280F0238126
:1002C800AB4240F22081A8F102083D44ED1AA4B2E5
:1002D800B5FBFAF00AFB105544EA054400FB09F99E
:1002E800A14509D9E41900F1FF3380F00A81A1453D
:1002F80040F2078102383C44A4EB090440EA084074
:100308000021002E61D024FA0EF4002334607360BB
:10031800BDE8F0878B4207D9002E54D0002186E82B
:1003280021000846BDE8F087B3FA83F1002940F0C0
:100338008E80AB4202D3824200F2FA80841A65EBC7
:1003480003050120AC46002E3FD086E81010BDE81A
:10035800F08712B90127B7FBF2F7B7FA87FEBEF1AB
:10036800000F34D1EB1B3A0C1FFA87FC0121B3FBB9
:10037800F2F8250C02FB183345EA03450CFB08F399
:10038800AB4207D9ED1908F1FF3002D2AB4200F2B7
:10039800D1808046ED1AA3B2B5FBF2F002FB1055EE
:1003A80043EA05440CFB00FCA44507D9E41900F115
:1003B800FF3302D2A44500F2B8801846A4EB0C041F
:1003C80040EA08409DE731463046BDE8F087CEF167
:1003D800200405FA0EF307FA0EF720FA04F83A0C8F
:1003E80025FA04F448EA0308B4FBF2F14FEA184589
:1003F80002FB11441FFA87FC45EA044501FB0CF394
:10040800AB4200FA0EF409D9ED1901F1FF3080F082
:100418008A80AB4240F2878002393D44EB1A1FFACA
:1004280088F5B3FBF2F002FB103345EA034500FB05
:100438000CF3AB4207D9ED1900F1FF386FD2AB428C
:100448006DD902383D44EB1A40EA01418FE7C1F10A
:10045800200722FA07F88B4005FA01F448EA03035B
:1004680020FA07FE4FEA134CFD404EEA040EB5FB96
:10047800FCF94FEA1E440CFB19551FFA83F844EAAD
:10048800054509FB08F4AC4202FA01F200FA01FA48
:1004980008D9ED1809F1FF3043D2AC4241D9A9F18E
:1004A80002091D442D1B1FFA8EFEB5FBFCF00CFB48
:1004B80010554EEA054400FB08F8A04507D9E41892
:1004C80000F1FF3529D2A04527D902381C4440EA5B
:1004D8000940A4EB0804A0FB02894C45C6464D46DA
:1004E80015D312D056B1BAEB0E0364EB050404FA27
:1004F80007F7CB401F43CC40376074600021BDE84C
:10050800F0871846F8E69046E0E6C245EAD2B8EB2E
:10051800020E69EB03050138E4E72846D7E74046B1
:1005280091E78146BEE7014678E702383C4445E753
:10053800084608E7A8F102083D442BE7704700BFCA
:1005480038B50E4B05460E4A18784FF47A73B3FB4C
:10055800F0F31068B0FBF3F000F0BEFA044658B9A7
:100568000F2D09D8024629464FF0FF3000F06EFAE9
:10057800044B20461D6038BD012038BD0000002016
:10058800080000200400002008B5032000F04CFA01
:100598000020FFF7D5FF01F021FF002008BD000073
:1005A800034A044B11681B780B441360704700BF63
:1005B8002C00002000000020014B1868704700BF85
:1005C8002C00002038B50446FFF7F6FF0546631CEB
:1005D8001EBF044B1B78E418FFF7EEFF401B844254
:1005E800FAD838BD0000002038B50446002800F0CD
:1005F8009B80056C25B901F009FF656484F83C50BF
:10060800236CDB0600F18E80236C23F4885323F0DF
:10061800020343F002032364444B5A6822F4403235
:100628005A605A6861680A435A60236821695A689F
:1006380022F480725A605A6842EA0122A1685A601C
:100648005A6822F040725A605A680A43E1685A6050
:100658009A6822F400629A609A680A4334499A6058
:10066800A26A8A4252D0996821F0706199609968AB
:100678000A43E16A9A609A6822F040529A609A683E
:100688000A439A609A68A16922F002029A609A68FD
:1006980042EA41029A6094F82020002A3ED05A6823
:1006A800616A42F4006201395A605A6822F4604271
:1006B8005A605A6842EA41325A600020DA6AE169AF
:1006C80022F470020139DA62DA6A42EA015294F8D5
:1006D8003010DA629A6822F400729A609A6842EAE4
:1006E800412261699A609A6822F480629A609A68E5
:1006F80042EA81229A606064236C23F0030343F08A
:1007080001032364002384F83C3038BD9A6822F042
:1007180070629A609A6822F04052B2E75A6822F4EE
:100728000062C9E70120EDE7012038BD0023014040
:100738000100000F37B5134600220446019290F8D5
:100748003C20012A73D00122056880F83C20AA6861
:10075800D00705D5AA68D20715D4002003B030BD4C
:10076800AA6842F00102AA60324A1068324AB0FB15
:10077800F2F000EB40000190019A002AEAD0019AB9
:10078800013A0192F8E7206C20F4E06020F00100C3
:1007980040F4807020646A68500505D5206C20F408
:1007A800405040F480502064226C12F4805202D0F1
:1007B800626C22F0060262640022A06B84F83C207E
:1007C8001E4AC2631E4A02641E4AC2646FF02202B5
:1007D8002A606A6842F080626A60AA6842F480729D
:1007E800AA600A4605F14C0100F020FA164A53683F
:1007F80013F01F0F236808D1986810F04050ACD14F
:100808009A6842F080429A60A8E710498B4207D163
:10081800996811F0405F03D1996841F0804199606F
:100828005268D20699D40A4A934296D1E4E7022044
:1008380094E700BF0800002040420F00830800082A
:10084800610800086D0800080023014000200140ED
:10085800002201407047704708B5806BFFF7FBFF27
:1008680008BD704708B5806B40230364436C43F0B0
:1008780004034364FFF7F5FF08BD836B1A6C12F09D
:10088800500F1A6C10B523D142F400721A641A681A
:10089800916811F0405F17D19969A9B9D16A11F42B
:1008A800700F02D0916848050ED4516821F02001DC
:1008B80051601A6C22F480721A641A6CD10403D441
:1008C8001A6C42F001021A641846FFF7C3FF10BD04
:1008D800D20603D51846FFF7C4FF10BD9B6BBDE8D1
:1008E8001040DB6C184700000023F7B5019390F81F
:1008F8003C30012B71D00D6801230468092D80F864
:100908003C30AEB28A6831D906EB46034FF0070E89
:10091800E7681E3B0EFA03FE27EA0E07E7603D4F25
:10092800BD421ED1E36843EA0263E3604A68062ACF
:100938004FEA82032AD81344676B591F1F238B4041
:1009480006FA01F127EA03036363626B11436163EB
:10095800314B9C4239D0002380F83C30184603B014
:10096800F0BDE76802FA03F33B43DEE705EB450316
:100978004FF0070E27690EFA03FE02FA03F327EA7F
:100988000E07276127693B432361CFE70C2A0ED85E
:100998001344216BA3F123021F23934006FA02F2AA
:1009A80021EA03032363236B1A432263D0E713442A
:1009B8001F22E16A413B9A4021EA020206FA03F14A
:1009C800E262E26A1143E162C2E7122D07D1134ADB
:1009D800536843F480035360BDE70220BFE70D4B23
:1009E8009D4201D0112DB6D10C499D424A6842F46E
:1009F80000024A60AFD10A4B0A4A1B68B3FBF2F205
:100A08000A2353430193019B002BA4D0019B013B74
:100A1800F8E700BF12000010002001400023014049
:100A28000800002040420F00074A0002D36800F483
:100A3800E06023F4E0631B041B0C43F0BF6343F442
:100A480000330343D360704700ED00E0194B30B525
:100A5800DC68C4F30224C4F10703251D042B28BF56
:100A68000423062D4FF001058CBF033C002405FA32
:100A780003F3002803F1FF3301EA030101FA04F14B
:100A880005FA04F404F1FF3402EA040242EA01021E
:100A98004FEA021207DB00F16040D2B200F5614074
:100AA80080F8002330BD00F00F00D2B2024B1A5478
:100AB80030BD00BF00ED00E014ED00E0002808DBC9
:100AC8004209012300F01F0003FA00F0014B43F82C
:100AD8002200704700E100E00138B0F1807F0AD2BF
:100AE800064BF021064A5860002082F8231007229E
:100AF80098601A6070470120704700BF10E000E05E
:100B080000ED00E003681821DAB223F47F73103A8D
:100B180023F00303B2FBF1F20449032A895C88BF7E
:100B28000433C1658365806D704700BF8026000867
:100B380070B50446FFF740FD0546002C71D0002330
:100B4800226884F83430022384F83530136823F09F
:100B58000103136021680B68D8073CD40B68324D39
:100B680062681D40A368A0691343E26813432269C1
:100B7800134362691343E26903431343226A13432D
:100B8800626A042A43EA050301BF266BE56A354316
:100B98002B43042A0B604B6923F0070343EA020343
:100BA8000BD1A26AE56A13433DB1F8B9012A2DD0E9
:100BB80001D3022A01D1EA012BD44B612046FFF769
:100BC800A1FFE26D3F23934083600020012360650D
:100BD80084F8353070BDFFF7EFFC401B0528B9D904
:100BE80020230320636584F8350070BDB0F5005FED
:100BF80013D1032AE1D801A050F822F01B0C0008F9
:100C0800BF0B00081B0C0008150C0008B5F1C07FCD
:100C1800D3D1402301206365E5E7022AF9D9032AE5
:100C2800C8E7012070BD00BF3F8010E070B590F8A4
:100C38003440012C35D00124866D002580F83440DD
:100C480090F83540012C4FF0020428D180F8354047
:100C580004684565256825F48025256063608368F8
:100C6800402B19D1A260E160C26D3F239340B3606D
:100C7800236843F016032360636943F080036361CC
:100C8800036C1BB1236843F008032360236800202A
:100C980043F00103236070BDA160E260E4E780F8DF
:100CA8003450022070BD90F83530022B03D08023D9
:100CB8004365012070470268052380F8353000201D
:100CC800136823F001031360704700000023F7B591
:100CD80001930822594B0446856D1F68C36D2E6821
:100CE8009A4016420CD001680868400708D5086881
:100CF80020F004000860AA60626D42F0010262659B
:100D080001229A40164208D021684969090604D58B
:100D1800AA60626D42F00202626504229A4016429D
:100D280008D021680968880704D5AA60626D42F076
:100D38000402626510229A40164210D0236819688E
:100D480009070CD5AA601A68500335D51B68190322
:100D580001D4236C00E0A36C0BB120469847E16DE9
:100D680020228A40164238D023681868C60634D52F
:100D7800AA6094F83520052A1A6825D122F01602AF
:100D88001A605A6922F080025A61226C0AB9A26C70
:100D98001AB11A6822F008021A603F238B40AB6030
:100DA800002384F83430012384F83530236D0BB1E7
:100DB8002046984703B0F0BD1A68D205C9D41A680E
:100DC80022F008021A60C4E7500328D51B681903EB
:100DD80032D4636C0BB120469847636D002BE9D081
:100DE800636DDA0719D50523226884F8353013684E
:100DF80023F0010313604FF41653B7FBF3F7019B7D
:100E080001339F42019302D31368DB07F7D4002311
:100E180084F83430012384F83530E36CC7E71A6866
:100E280012F4807208D1196821F0100119600123A9
:100E380084F8342084F83530E36BCBE708000020D1
:100E48002DE9F04F0B6885B0DFF8C08101930023CE
:100E58006C4ADFF8BC914FF0010E019C0EFA03FEBC
:100E68000EEA0406B64540F0B3804C6824F010073B
:100E7800022F16D14FEAD30A03F0070B4FF00F0CDD
:100E880000EB8A0A4FEA8B0BDAF820500CFA0BFCBD
:100E980025EA0C0C0D6905FA0BF545EA0C05CAF8AC
:100EA80020504FEA430A0325D0F800B004F0030CA1
:100EB80005FA0AF5013F0CFA0AFCED43012F0BEA8B
:100EC800050B4CEA0B0CC0F800C011D8876807EA7C
:100ED800050BCF6807FA0AFC4CEA0B0787604768DE
:100EE80027EA0E0EC4F300179F4047EA0E07476033
:100EF800C7683D408F6807FA0AF73D43C560E500BB
:100F080066D5D8F8445023F0030703F0030E4FF0DA
:100F18000F0C45F4804507F180474FEA8E0EC8F85C
:100F2800445007F59C37D8F8445005F4804503959C
:100F3800039D0CFA0EF5D7F808A02AEA050C324DE5
:100F4800A8424CD005F58065A8424AD005F58065D1
:100F5800A84248D005F58065A84246D005F58065C9
:100F6800A84244D0484544D005F50065A84242D07F
:100F780005F58065A84240D005F58065A8423ED0B9
:100F880005F58065A84214BF0A25092505FA0EF55E
:100F980014F4803F45EA0C05BD606FEA0607156842
:100FA8000CBF3D40354314F4003F156055680CBF35
:100FB8003D40354314F4801F556095680CBF3D4093
:100FC8003543A4029560D56854BF3D403543D5608C
:100FD8000133102B7FF43FAF05B0BDE8F08F00253B
:100FE800D4E70125D2E70225D0E70325CEE704257B
:100FF800CCE70525CAE70625C8E70725C6E708257B
:10100800C4E700BF003C0140000002400038024035
:10101800001402400AB1816170470904FBE700002F
:101028002DE9F341044618B9012002B0BDE8F0816A
:101038000368D80710D4236899075ED42368190772
:1010480000F1A38023685A0700F1C480A269002A2E
:1010580040F02E810020E8E7934B9A6802F00C02DA
:10106800042A07D09A6802F00C02082A0AD15B68A1
:101078005A0207D58C4B1B689B03DCD56368002B91
:10108800D9D1D1E76368884DB3F5803F11D12B687A
:1010980043F480332B60FFF78FFA834D06462B68A5
:1010A8009F03C8D4FFF788FA801B6428F7D9032068
:1010B800BBE79BB92B6823F480332B602B6823F4A0
:1010C80080232B60FFF778FA06462B689803B2D581
:1010D800FFF772FA801B6428F7D9E8E7B3F5A02F69
:1010E8002B6803D143F480232B60D0E723F48033AB
:1010F8002B602B6823F48023CCE76B4B9A6812F0A3
:101108000C0F07D09A6802F00C02082A11D15B680C
:1011180059020ED4644B1A68920702D5E268012A74
:1011280082D11A68216922F0F80242EAC1021A60E3
:1011380084E7E3685C4DBBB12B6843F001032B6087
:10114800FFF73AFA06462B689F0707D52B682269EE
:1011580023F0F80343EAC2032B606FE7FFF72CFA8A
:10116800801B0228EFD9A2E72B6823F001032B602C
:10117800FFF722FA06462B6898077FF55FAFFFF75F
:101188001BFA801B0228F6D991E76369464D83B1A3
:101198006B6F43F001036B67FFF70EFA06466B6F40
:1011A8009B073FF54FAFFFF707FA801B0228F6D9D8
:1011B8007DE76B6F23F001036B67FFF7FDF90646C8
:1011C8006B6F9F077FF53EAFFFF7F6F9801B02288C
:1011D800F6D96CE7344B1A6CD00027D41A6C012668
:1011E80042F080521A641B6C03F080530193019BF8
:1011F8002E4D2B68D9051BD5A3682B4D012B27D164
:101208002B6F43F001032B6741F28835FFF7D4F9C0
:10121800254F80463B6F9B073FD5002E3FF416AF06
:10122800214A136C23F0805313640FE70026DFE78D
:101238002B6843F480732B60FFF7BEF907462B68D1
:10124800DA05D9D4FFF7B8F9C01B6428F7D92EE717
:10125800ABB92B6F41F2883823F001032B672B6F52
:1012680023F004032B67FFF7A7F907462B6F9807AE
:10127800D3D5FFF7A1F9C01B4045F7D917E7052BD0
:101288002B6F03D143F004032B67B9E723F0010365
:101298002B672B6F23F00403B5E7FFF78DF9A0EB5D
:1012A8000800A842B6D902E70038024000700040A2
:1012B800244DAB6803F00C03082B3FF4B5AE2B6844
:1012C800022A23F080732B602FD1FFF775F90646A9
:1012D8002B68990123D4226AE3691343626A43EABB
:1012E8008213E26A43EA0263226B43EA0273A26A48
:1012F800144C5208013A43EA02436B602B6843F0EE
:1013080080732B60FFF758F9054623689A013FF56B
:10131800A1AEFFF751F9401B0228F6D9C7E6FFF73F
:101328004BF9801B0228D3D9C1E6FFF745F90446DB
:101338002B689B017FF58EAEFFF73EF9001B022854
:10134800F6D9B4E600380240104908B58B6803F0B6
:101358000C03082B18D14A684B68496802F03F0211
:1013680013F480030A48C1F3881118BF0023A1FBB6
:101378000001FEF75DFF054B5B68C3F301430133D2
:101388005B00B0FBF3F008BD014808BD003802401F
:101398000024F4002DE9F0410D46044610B901205F
:1013A800BDE8F081464A136803F00F038B4228D347
:1013B80021688F0730D4C80743D4414A136803F023
:1013C8000F039D4267D32268510770D4130707D5CE
:1013D8003C4A2169936823F4604343EAC10393605C
:1013E800FFF7B2FF374B384A9B68C3F30313D35C4C
:1013F800D840364B18600020FFF7A2F80020BDE85F
:10140800F081136823F00F030B431360136803F094
:101418000F039942C3D1CBE711F0040F294B03D036
:101428009A6842F4E0529A600E0703D59A6842F42B
:1014380060429A609A68A06822F0F00202439A60BB
:10144800B9E761681F4B01291A681CD112F4003FE3
:10145800A5D09A6841F288381A4E22F003020A434E
:101468009A60FFF7A9F80746B368626803F00C03AF
:10147800B3EB820FA1D0FFF79FF8C01B4045F3D90B
:101488000320BDE8F081022902D112F0007FDFE7D6
:1014980012F0020FDCE7136823F00F032B431360ED
:1014A800136803F00F039D427FF479AF8BE705497A
:1014B800E0688B6823F4E05303438B6086E700BF42
:1014C800003C02400038024099260008080000202D
:1014D800044B054A9B68C3F38223D35C034A106814
:1014E800D840704700380240A926000808000020AC
:1014F800044B054A9B68C3F34233D35C034A106824
:10150800D840704700380240A9260008080000208B
:101518002DE9F7430268044612F001060BD0BA4BD6
:10152800996821F400019960466B99683143B6FACD
:1015380086F67609996012F4002512D0B249E56B57
:10154800D1F88C30B5F5801F23F4401308BF01266D
:1015580043EA050316BFB5FA85F500256D09C1F8FC
:101568008C30D70210D5A848216CD0F88C30B1F552
:10157800800F23F4400343EA0103C0F88C3000F0E5
:10158800A981002908BF012512F0807F18BF012614
:10159800900631D59C4B9D4F1A6C42F080521A64CC
:1015A8001B6C03F080530193019B3B6843F48073E9
:1015B8003B60FFF701F880463B68D90540F18C8114
:1015C800914F3B6F13F4407340F09181236B03F408
:1015D8004072B2F5407F8C4A40F0AF81916823F0A9
:1015E800704021F4F81120F4407001439160C3F376
:1015F8000B03116F0B4313672368DF060CD5824A70
:10160800D2F88C1021F08071C2F88C10D2F88C10AE
:10161800A06B0143C2F88C10580408D57A49606E53
:10162800D1F8902022F440320243C1F890201904E6
:1016380008D57549A06ED1F8902022F440220243C3
:10164800C1F89020DA0308D56F49E06ED1F89020F0
:1016580022F440120243C1F890209F0308D56A493A
:10166800206FD1F8902022F440020243C1F8902064
:10167800580608D56449606CD1F8902022F003021E
:101688000243C1F89020190608D55F49A06CD1F82B
:10169800902022F00C020243C1F89020DA0508D508
:1016A8005949E06CD1F8902022F030020243C1F889
:1016B80090209F0508D55449206DD1F8902022F03C
:1016C800C0020243C1F89020580508D54E49606D04
:1016D800D1F8902022F440720243C1F890201905F5
:1016E80008D54949A06DD1F8902022F44062024300
:1016F800C1F89020DA0408D54349E06DD1F890206C
:1017080022F440520243C1F890209F0408D53E4974
:10171800206ED1F8902022F440420243C1F8902074
:10172800580208D53849A06FD1F8902022F080627D
:101738000243C1F8902099020CD53348E16FD0F8E4
:101748009020B1F1006F22F0006208BF01250A4322
:10175800C0F8902013F0080F18BF01255A0308D5C8
:101768002949606FD1F8902022F040720243C1F8F5
:1017780090201F0209D52449D4F88000D1F8902080
:1017880022F080520243C1F89020580109D51E4921
:10179800D4F88400D1F8902022F000520243C1F816
:1017A8009020190109D51849D4F88800D1F88C205F
:1017B80022F000720243C1F88C20DA0009D51249E0
:1017C800D4F88C00D1F88C2022F080620243C1F852
:1017D8008C20012E00F0B580B3F1007F00F0B180BD
:1017E800012D75D1084D2B6823F080532B60FEF72F
:1017F800E3FE06462B689F0000F1278121680E034F
:1018080006D5E36B43B103E00038024000700040A6
:10181800CD021DD5236CDBB9934AD2F88830D2F8B3
:10182800880003F4403300F0E0400343606943EA72
:101838008013A06943EA0063C2F88830D2F88C307C
:10184800A06A23F4F853013843EA0023C2F88C3025
:10185800880215D5E36FB3F1006F11D1824AD2F82F
:101868008830D2F8880003F0706300F0E04003434A
:10187800606943EA8013206A43EA0043C2F888306B
:101888000A0719D57849D1F88820D1F8883002F0AC
:10189800706203F440331343626943EA8213E269D6
:1018A80043EA0273C1F88830D1F88C30E26A23F435
:1018B80040331343C1F88C306B4C236843F080539A
:1018C8002360FEF779FE054623689B0040F1C4803B
:1018D800002009E0012657E6FEF76EFEA0EB08009F
:1018E80064287FF669AE032003B0BDE8F083226B5D
:1018F80002F4407293423FF469AE3B6F3A6F23F4AF
:10190800407342F480323A673A6F22F480323A6781
:101918003B673B6FDA077FF559AEFEF74DFE41F2A4
:10192800883980463B6F9B073FF550AEFEF744FE73
:10193800A0EB08004845F5D9D5E7916821F4F811DE
:1019480054E6494E336823F080633360FEF734FE73
:10195800074633681B0172D42268D70712D5636B18
:1019680083B9D6F88430D6F8841003F4403301F0F4
:1019780070610B43616843EA8113A16843EA01730C
:10198800C6F88430160303D5E36BB3F5801F05D082
:10199800D0021ED5236CB3F5800F1AD13249D1F885
:1019A8008430D1F8840003F4403300F0E04003436E
:1019B800606843EA8013E06843EA0063C1F8843052
:1019C800D1F88C00636A20F01F00013B0343C1F883
:1019D8008C30D10111D52449D1F88430D1F8840054
:1019E80003F0706300F0E0400343606843EA80134B
:1019F800206943EA0043C1F8843092010DD5236978
:101A080062681B0443EA8213E26843EA0263A2683D
:101A180043EA0273144AC2F88430134E336843F021
:101A280080633360FEF7C8FD074633681B013FF546
:101A3800D7AEFEF7C1FDC01B6428F6D953E7FEF701
:101A4800BBFDC01B642884D94DE7FEF7B5FD801B9C
:101A580064287FF6CFAE46E7FEF7AEFD401B64284C
:101A68007FF632AF3FE700BF0038024003681A68CC
:101A780022F490721A609A6822F001029A60202378
:101A88008367002303667047704770470368DA6905
:101A9800196870B5160704469D6809D1950663D57F
:101AA8008E0661D5036E002B75D0BDE870401847CF
:101AB80015F0010002D111F4907F55D0D50707D554
:101AC800CE0505D501251D62E56F45F00105E567E1
:101AD800950706D528B102251D62E56F45F0040576
:101AE800E567560706D528B104251D62E56F45F060
:101AF8000205E567150707D58E0600D420B1082032
:101B08001862E36F0343E367E36F002B43D0950646
:101B180005D5880603D5236E0BB120469847226861
:101B28002046E56F9268510602D415F0080517D0D3
:101B3800FFF79CFF23689A6852060DD59A68E06EF5
:101B480022F040029A6038B1134B0365FFF7ABF8F7
:101B580008B3E06E036DA8E72046FFF796FF70BD57
:101B6800FFF793FFE56770BD160605D50D0603D58B
:101B7800636E83B1204698E750060CD54A060AD50D
:101B88001A68204622F040021A6020236367002367
:101B98006366FFF779FF70BDA51B000808B5806B69
:101BA8000023A0F85A30A0F85230FFF76EFF08BDA6
:101BB80038B5C26904460368816800691D68014335
:101BC80060690143904811432840256A0143E06851
:101BD8001960596821F4405101435960A169986816
:101BE800294320F430600143996088498B4217D11A
:101BF800874B8849D3F8903003F00303B2F5004FC0
:101C0800CB5C29D1082B00F29D80DFE813F08C0013
:101C1800E800EE009B00FA009B009B009B0076000A
:101C28007D498B4206D17A4B7C49D3F8903003F03A
:101C38000C03E3E77A498B421DD1754BD3F89030FA
:101C480003F03003102B00F0D9800ED8002B67D09A
:101C5800B2F5004F76D01023082B73D8DFE803F0D5
:101C6800999FA272B4727272B700202B00F0BA80EA
:101C7800302B3FD0ECE76B498B420DD1644BD3F846
:101C8800903003F0C003402B00F0B880DED9802BE1
:101C980000F0A880C02BECE763498B4210D15C4B65
:101CA800D3F8903003F44073B3F5807F00F0A6803A
:101CB800CCD9B3F5007F00F09580B3F5407FD8E725
:101CC8005A498B421ED1524BD3F8903003F44063EB
:101CD800B3F5806F00F0928006D8002B7CD0B2F567
:101CE800004F2FD110238DE7B3F5006F7AD0B3F5ED
:101CF800406FF4D1B2F5004F69D16368580800F518
:101D0800803078E04A498B4224D1414BD3F8903057
:101D180003F44053B3F5805F70D015D8002BDED1A3
:101D2800B2F5004F35D1FFF7D3FB6268530803EBD8
:101D38004000B0FBF2F080B24FF6EF73A0F1100252
:101D48009A421AD9012020E0B3F5005F4AD0B3F5D2
:101D5800405FCEE737498B42F4D12D4BD3F8903012
:101D680003F44043B3F5804F48D07FF66FAFB3F527
:101D7800004F37D0B3F5404F7BE720F00F03C0F397
:101D8800420022681843D06000200023236663665F
:101D980038BDFFF79DFB636800EB530008E0FFF7D1
:101DA800A7FBF8E76368580800F5740000F51050C1
:101DB800B0FBF3F080B24FF6EF73A0F110029A4235
:101DC800C0D82368D860DFE7FFF7BEFAE3E76368A7
:101DD800580800F50040EBE7B2F5004FDFD1FFF7F8
:101DE80087FBA2E7B2F5004FDCD16368580800F121
:101DF800F47000F59040B0FBF3F09CE7B2F5004FAB
:101E0800E2D1FFF7A1FA90E7F369FFEF0010014074
:101E18000038024088260008004400408C2600084C
:101E280000480040004C00400050004000140140B1
:101E380000780040007C0040436ADA0710B506D5F8
:101E48000168846A4A6822F4003222434A609C0787
:101E580006D50168C46A4A6822F4803222434A607F
:101E6800590706D50168046B4A6822F48022224388
:101E78004A601A0706D50168446B4A6822F4004292
:101E880022434A60DC0606D50168846B8A6822F41E
:101E9800805222438A60990606D50168C46B8A6815
:101EA80022F4005222438A605A0610D50168046C55
:101EB8004A68B4F5801F22F4801242EA04024A609C
:101EC80005D14A68446C22F4C00222434A601B06CA
:101ED80006D50268816C536823F400230B435360D2
:101EE80010BD2DE9F041069D04460F46164698465A
:101EF8002168CA6937EA02030CBF01220022B242F4
:101F080002D00020BDE8F0816B1CF2D0FEF754FB34
:101F1800A0EB0800854201D3002DE9D123680320F6
:101F28001A6822F4D0721A609A6822F001029A6044
:101F380020236367A367002384F87030BDE8F0812D
:101F48002DE9F7439846436F04460E46202B9146E9
:101F58004BD1002947D0002A45D090F87030012B8A
:101F680043D00123002580F870302123C5674367DB
:101F7800FEF722FBA3680746A4F85090B3F5805FEC
:101F8800A4F8529003D123690BB935461E46B4F81C
:101F980052203B46CDF8008092B24AB940212046F3
:101FA800FFF79FFF50B9202384F87000636706E0AD
:101FB800002280212046FFF794FF18B1032003B0C8
:101FC800BDE8F08322685EB935F8023BC3F3080325
:101FD8009362B4F85230013B9BB2A4F85230D6E772
:101FE80016F8013BF4E70120E9E70220E7E737B5F7
:101FF80000250446C567FEF7DFFA22680346126823
:10200800120707D420230020636784F87000A367B1
:1020180003B030BD6FF07E424FF4001120460092AD
:102028002A46FFF75EFF0028ECD00320F0E710B542
:10203800044640B3436F1BB980F8703000F044FA8F
:102048002268242320466367136823F00103136082
:10205800FFF7AEFD012816D0636A13B12046FFF7DB
:10206800EBFE236820465A6822F490425A609A6828
:1020780022F02A029A601A6842F00102BDE8104074
:102088001A60FFF7B4BF012010BD000010B5B8B04A
:1020980034220021002407A800F0DAFA14220021D3
:1020A80002A800F0D5FA0021902214A800F0D0FA76
:1020B800194B07A81A6C42F080521A641B6C174A15
:1020C80003F080530093009B136823F4404343F4C8
:1020D8008043136013680D9403F440430193019BFC
:1020E8000223079301230A9310230B93FEF798FF0B
:1020F8000F23214602A8039402934FF480530494BB
:1021080005930694FFF746F9802314A826941493A0
:10211800FFF7FEF938B010BD0038024000700040EB
:1021280080B58CB09D4DFEF72FFA0024FFF7AEFF67
:102138001422002107A800F08BFA2B6B002244F22E
:10214800810143F0040396484FF4005A02262B639A
:102158004FF003082B6B4FF00B09012703F0040322
:102168000193019B2B6B43F080032B632B6B03F0D4
:1021780080030293029B2B6B43F001032B632B6BB1
:1021880003F001030393039B2B6B43F002032B63C0
:102198002B6B03F002030493049B2B6B43F008039F
:1021A8002B632B6B03F008030593059B2B6B43F004
:1021B80040032B632B6B03F040030693069BFEF74B
:1021C80029FF002240217748FEF724FF764B07A914
:1021D8007648CDF81CA008930994FEF731FE322307
:1021E80007A97248079309940896CDF82880CDF876
:1021F8002C90FEF725FE862307A96D4807930994BE
:102208000896CDF82880CDF82C90FEF719FE44F2F8
:10221800810307A962480793089709940A94FEF76F
:102228000FFE07A95E48CDF81CA04FF0070A0994D5
:102238000896CDF82880CDF82C90FEF701FE4FF4D3
:10224800407307A95B48079309940896CDF828803E
:10225800CDF82CA0FEF7F4FD402307A951480793B9
:10226800089709940A94FEF7EBFD802307A94D48C7
:10227800079308940994FEF7E3FD4FF4E85307A980
:102288004B4807930A2309940B930896CDF82880A6
:10229800FEF7D6FD4FF4007307A945480793089445
:1022A8000994FEF7CDFD4FF4205307A93D48079345
:1022B80009940896CDF82880CDF82C90FEF7C0FD3B
:1022C8002B6B22462146382043F480032B632B6B6B
:1022D800394D03F480030093009BFEF7B7FB3820C9
:1022E800FEF7ECFB2146102207A800F0B1F94FF4E5
:1022F800403232494FF0007328462F61AF6185F8AC
:102308002040EC62EC6085F830706F61EE6185E822
:102318000E002B4BAB62FEF767F907A92846079416
:1023280008974FF4E137CDF824A0FEF7DDFA09232A
:1023380007A9284608960793FEF7D6FA2148224BA4
:102348008460C46004618461C461046244621F4C97
:1023580080E888000C234361FFF769FE28461C4D7E
:1023680032461A49FEF7E6F900231A4819462B7037
:10237800DAB2032A0CD101B12A704FF47A7302221F
:1023880021461048FFF7DCFDFA20FEF71BF9EBE7C2
:102398001A5D01211A540133EAE700BF00380240F0
:1023A800000402400018024000001110000802401A
:1023B80000000240000C02403400002000200140D0
:1023C8000100000FE0000020004400403000002021
:1023D80028000020DC000020704700000A4B82B073
:1023E8001A6C42F080521A641A6C02F08052009201
:1023F800009A5A6C42F480425A645B6C03F480433E
:102408000193019B02B070470038024070B588B054
:1024180006461422002103A800F01AF93268254B59
:102428009A4245D103F58C33032403A922485A6CF8
:10243800002542F480725A645A6C02F48072009249
:10244800009A1A6B42F001021A631A6B02F0010239
:102458000192019A1A6B42F002021A631B6B0494F0
:1024680003F002030293029B01230393FEF7E8FCA7
:102478000223124803A904940393114C0595FEF70F
:10248800DFFC104B2046A560E5606561A56125620B
:10249800656284E828004FF4806323614FF48073F9
:1024A800E361FEF745FB08B1FFF796FFB463A66347
:1024B80008B070BD00200140000002400004024046
:1024C8007C0000201064024010B588B00446142235
:1024D800002103A800F0BCF82268164B9A4227D1C5
:1024E80003F5FA3303A914481A6C42F400321A644B
:1024F8001A6C02F400320192019A1A6B42F0080237
:102508001A631B6B03F008030293029B6023039377
:10251800022304930323069307230793FEF790FCF3
:10252800002226201146FEF791FA2620FEF7C6FA69
:1025380008B010BD00440040000C02407047FEE7A0
:10254800FEE7FEE7FEE7704770477047FEF728B8DA
:102558000148FFF79BBA00BFE00000200148FEF7E2
:10256800B5BB00BF7C0000200F490020D1F888309F
:1025780043F47003C1F888300C4B1A6842F001022A
:102588001A6098601A6822F0847222F480321A6005
:10259800074A5A601A6822F480221A60D8604FF0FD
:1025A80000638B60704700BF00ED00E00038024018
:1025B80010300024DFF834D0002103E00C4B5B58C6
:1025C800435004310B480C4B42189A42F6D30B4A3D
:1025D80002E0002342F8043B094B9A42F9D3FFF783
:1025E800C3FF00F011F8FFF79BFD704700000820BB
:1025F800C4260008000000200C0000200C00002069
:1026080060010020FEE7000070B50D4E0D4CA41BC4
:10261800A4100025A54209D10B4E0C4C00F020F85F
:10262800A41BA4100025A54205D170BD56F825307D
:1026380098470135EEE756F8253098470135F2E717
:10264800BC260008BC260008BC260008C0260008D6
:1026580002440346934200D1704703F8011BF9E78F
:10266800F8B500BFF8BC08BC9E467047F8B500BF77
:08267800F8BC08BC9E46704747
:1026800000061016000610160104020800101010B3
:1026900004101010021010100800000000000000CC
:1026A00000010203040607080900000000010203FC
:0426B0000400000022
:0826B400B4DBFF7F0100000010
:0426BC001D020008F3
:0426C000F901000814
:0C26C40001000000100000000024F400E1
:04000005080025BD0D
:00000001FF
