:020000040800F2
:1000000000000820851A0008251A0008271A000891
:10001000291A00082B1A00082D1A000800000000F9
:100020000000000000000000000000002F1A00087F
:10003000311A000800000000331A0008351A0008C1
:10004000D51A0008D51A0008D51A0008D51A0008D4
:10005000D51A0008D51A0008D51A0008D51A0008C4
:10006000D51A0008D51A0008D51A0008D51A0008B4
:10007000D51A0008D51A0008D51A0008D51A0008A4
:10008000D51A0008D51A0008D51A0008D51A000894
:10009000D51A0008D51A0008D51A0008D51A000884
:1000A000D51A0008D51A0008D51A0008D51A000874
:1000B000D51A0008D51A0008D51A0008D51A000864
:1000C000D51A0008D51A0008D51A0008D51A000854
:1000D000D51A0008D51A0008D51A0008D51A000844
:1000E000D51A0008D51A0008D51A0008D51A000834
:1000F000D51A0008D51A0008D51A0008D51A000824
:10010000D51A0008D51A0008D51A0008D51A000813
:10011000D51A0008D51A0008D51A0008D51A000803
:10012000D51A0008D51A0008D51A0008D51A0008F3
:10013000D51A0008D51A0008D51A0008D51A0008E3
:10014000D51A0008D51A0008D51A0008D51A0008D3
:10015000D51A0008D51A0008D51A0008D51A0008C3
:10016000D51A0008D51A0008D51A0008D51A0008B3
:10017000D51A0008D51A0008D51A0008000000009A
:10018000D51A0008D51A0008D51A0008D51A000893
:10019000D51A0008D51A0008D51A0008D51A000883
:1001A000D51A0008D51A0008D51A0008D51A000873
:1001B000D51A0008D51A0008D51A0008D51A000863
:1001C000D51A0008D51A000800000000D51A00084A
:1001D000D51A0008D51A0008D51A0008D51A000843
:1001E000D51A0008D51A0008D51A0008D51A000833
:0801F000D51A0008D51A000819
:1001F80010B5054C237833B9044B13B10448AFF359
:1002080000800123237010BD0C00002000000000B6
:10021800301B000808B5034B1BB103490348AFF373
:10022800008008BD0000000010000020301B0008FE
:1002380053B94AB9002908BF00281CBF4FF0FF3145
:100248004FF0FF3000F07AB9ADF1080C6DE904CE3B
:1002580000F006F8DDF804E0DDE9022304B0704799
:100268002DE9F0478C460D460446089E002B51D1D7
:100278008A4217466DD9B2FA82FEBEF1000F0BD042
:10028800CEF1200C01FA0EF520FA0CFC02FA0EF75A
:100298004CEA050C00FA0EF44FEA174A250CBCFB91
:1002A800FAF81FFA87F90AFB18CC45EA0C4508FB4F
:1002B80009F3AB420AD9ED1908F1FF3280F0238126
:1002C800AB4240F22081A8F102083D44ED1AA4B2E5
:1002D800B5FBFAF00AFB105544EA054400FB09F99E
:1002E800A14509D9E41900F1FF3380F00A81A1453D
:1002F80040F2078102383C44A4EB090440EA084074
:100308000021002E61D024FA0EF4002334607360BB
:10031800BDE8F0878B4207D9002E54D0002186E82B
:1003280021000846BDE8F087B3FA83F1002940F0C0
:100338008E80AB4202D3824200F2FA80841A65EBC7
:1003480003050120AC46002E3FD086E81010BDE81A
:10035800F08712B90127B7FBF2F7B7FA87FEBEF1AB
:10036800000F34D1EB1B3A0C1FFA87FC0121B3FBB9
:10037800F2F8250C02FB183345EA03450CFB08F399
:10038800AB4207D9ED1908F1FF3002D2AB4200F2B7
:10039800D1808046ED1AA3B2B5FBF2F002FB1055EE
:1003A80043EA05440CFB00FCA44507D9E41900F115
:1003B800FF3302D2A44500F2B8801846A4EB0C041F
:1003C80040EA08409DE731463046BDE8F087CEF167
:1003D800200405FA0EF307FA0EF720FA04F83A0C8F
:1003E80025FA04F448EA0308B4FBF2F14FEA184589
:1003F80002FB11441FFA87FC45EA044501FB0CF394
:10040800AB4200FA0EF409D9ED1901F1FF3080F082
:100418008A80AB4240F2878002393D44EB1A1FFACA
:1004280088F5B3FBF2F002FB103345EA034500FB05
:100438000CF3AB4207D9ED1900F1FF386FD2AB428C
:100448006DD902383D44EB1A40EA01418FE7C1F10A
:10045800200722FA07F88B4005FA01F448EA03035B
:1004680020FA07FE4FEA134CFD404EEA040EB5FB96
:10047800FCF94FEA1E440CFB19551FFA83F844EAAD
:10048800054509FB08F4AC4202FA01F200FA01FA48
:1004980008D9ED1809F1FF3043D2AC4241D9A9F18E
:1004A80002091D442D1B1FFA8EFEB5FBFCF00CFB48
:1004B80010554EEA054400FB08F8A04507D9E41892
:1004C80000F1FF3529D2A04527D902381C4440EA5B
:1004D8000940A4EB0804A0FB02894C45C6464D46DA
:1004E80015D312D056B1BAEB0E0364EB050404FA27
:1004F80007F7CB401F43CC40376074600021BDE84C
:10050800F0871846F8E69046E0E6C245EAD2B8EB2E
:10051800020E69EB03050138E4E72846D7E74046B1
:1005280091E78146BEE7014678E702383C4445E753
:10053800084608E7A8F102083D442BE7704700BFCA
:1005480038B50E4B05460E4A18784FF47A73B3FB4C
:10055800F0F31068B0FBF3F000F090F8044658B9D7
:100568000F2D09D8024629464FF0FF3000F04EF80B
:10057800044B20461D6038BD012038BD0000002016
:10058800080000200400002008B5032000F02CF823
:100598000020FFF7D5FF01F0F3F9002008BD0000A7
:1005A800034A044B11681B780B441360704700BF63
:1005B8002800002000000020014B1868704700BF89
:1005C8002800002038B50446FFF7F6FF0546631CEF
:1005D8001EBF044B1B78E418FFF7EEFF401B844254
:1005E800FAD838BD00000020074A0002D36800F49A
:1005F800E06023F4E0631B041B0C43F0BF6343F487
:1006080000330343D360704700ED00E0194B30B569
:10061800DC68C4F30224C4F10703251D042B28BF9A
:100628000423062D4FF001058CBF033C002405FA76
:1006380003F3002803F1FF3301EA030101FA04F18F
:1006480005FA04F404F1FF3402EA040242EA010262
:100658004FEA021207DB00F16040D2B200F56140B8
:1006680080F8002330BD00F00F00D2B2024B1A54BC
:1006780030BD00BF00ED00E014ED00E00138B0F13E
:10068800807F0AD2064BF021064A5860002082F883
:100698002310072298601A6070470120704700BF36
:1006A80010E000E000ED00E02DE9F04F0B6885B0A8
:1006B800DFF8C081019300236C4ADFF8BC914FF04A
:1006C800010E019C0EFA03FE0EEA0406B64540F040
:1006D800B3804C6824F01007022F16D14FEAD30AD2
:1006E80003F0070B4FF00F0C00EB8A0A4FEA8B0B55
:1006F800DAF820500CFA0BFC25EA0C0C0D6905FA07
:100708000BF545EA0C05CAF820504FEA430A0325C1
:10071800D0F800B004F0030C05FA0AF5013F0CFA12
:100728000AFCED43012F0BEA050B4CEA0B0CC0F851
:1007380000C011D8876807EA050BCF6807FA0AFCDA
:100748004CEA0B078760476827EA0E0EC4F30017C8
:100758009F4047EA0E074760C7683D408F6807FA21
:100768000AF73D43C560E50066D5D8F8445023F044
:10077800030703F0030E4FF00F0C45F4804507F113
:1007880080474FEA8E0EC8F8445007F59C37D8F8D2
:10079800445005F480450395039D0CFA0EF5D7F8EF
:1007A80008A02AEA050C324DA8424CD005F5806510
:1007B800A8424AD005F58065A84248D005F580656D
:1007C800A84246D005F58065A84244D0484544D0A3
:1007D80005F50065A84242D005F58065A84240D0DD
:1007E80005F58065A8423ED005F58065A84214BF8E
:1007F8000A25092505FA0EF514F4803F45EA0C058B
:10080800BD606FEA060715680CBF3D40354314F418
:10081800003F156055680CBF3D40354314F4801FF8
:10082800556095680CBF3D403543A4029560D56876
:1008380054BF3D403543D5600133102B7FF43FAFA3
:1008480005B0BDE8F08F0025D4E70125D2E70225E1
:10085800D0E70325CEE70425CCE70525CAE706251A
:10086800C8E70725C6E70825C4E700BF003C0140E4
:100878000000024000380240001402400AB18161C1
:1008880070470904FBE703689A69910701D50022BC
:100898009A629A69D20703D49A6942F001029A616E
:1008A800704730B5039CC1F3090105682343640D03
:1008B800686804F48064194344F07F7441EA024193
:1008C80044F4583444F47F7444F0030420EA0404E4
:1008D8002143696030BD2DE9F041069F04468846F2
:1008E80016461D462268936938EA03030CBF0123A4
:1008F8000023B34202D00020BDE8F0816B1CF2D087
:10090800FFF75AFEC01B854201D3002DEAD1636C64
:10091800012043F020036364202384F8413000233E
:1009280084F8423084F84030BDE8F081036870B53F
:10093800044698690D46164610F0100016D170BD91
:10094800691C14D0FFF738FE801B854200D36DB9AF
:10095800636C43F020036364202384F84130002350
:10096800012084F8423084F8403070BD23689969CA
:100978008A06E5D5102220252046DA61DD61FFF7D9
:1009880082FF2268536823F0FF7323F48B3323F428
:10099800FF7323F001035360636C43F00403636443
:1009A80084F84150DBE770B504460D4616462368C7
:1009B8009B699B0701D5002070BD32462946204619
:1009C800FFF7B4FFA0B96A1CF1D0FFF7F5FD801B53
:1009D800854201D3002DEAD1636C43F020036364A0
:1009E800202384F84130002384F8423084F84030D2
:1009F800012070BD70B504460D46164623689B69F4
:100A08009B0601D5002070BD324629462046FFF7D7
:100A18008DFF90B9FFF7D0FD801B854201D3002DD3
:100A2800ECD1636C43F020036364202384F84130E5
:100A3800002384F8423084F84030012070BD10B59E
:100A4800044600284AD090F8413003F0FF021BB951
:100A580080F8402000F0ACFF2423E16884F841309E
:100A6800012923681A6822F001021A60626822F0DC
:100A780070621A619A6822F400429A60A26824D1CE
:100A880042F400429A605A680020616942F000729C
:100A980042F400425A60DA6822F40042DA602269BD
:100AA8000A43A16942EA0122216ADA60E2690A433B
:100AB8001A601A6842F001021A602023606484F800
:100AC8004130206384F8420010BD42F404420229F8
:100AD8009A60D8D14FF400625A60D4E7012010BD63
:100AE8002DE9F743984690F8413004460E46202BEE
:100AF800914640F0848090F84030012B7FD0012748
:100B080080F84070FFF758FD1923054600903A46D3
:100B18004FF400412046FFF7DEFE18B1012003B074
:100B2800BDE8F0832123C4F82490606384F8413041
:100B3800102384F842306064A4F82A80638D9BB245
:100B4800FF2B304B26D9FF22009322854FF080736C
:100B580031462046FFF7A5FE638D2A460A992046AE
:100B68009BB2FBB9FFF746FF0028D7D123682021A5
:100B7800D9615A6822F0FF7222F48B3222F4FF7294
:100B880022F001025A6084F8411084F8400084F889
:100B98004200C4E7628D009392B222854FF0007341
:100BA800D2B2D5E7FFF7FFFE0028B7D1636A226803
:100BB80013F8011B91626362638D228D013B013A38
:100BC8009BB292B26385638D22859BB2002BC3D002
:100BD800002AC1D1009580210A9B2046FFF77BFEA1
:100BE80000289BD1638D9BB2FF2B03D9FF22009075
:100BF8002285ABE7628D009092B22285CEE7022073
:100C08008DE700BF0020008090F84120D2B2202A52
:100C180010B51DD190F84030012B19D0242380F84D
:100C2800413003681C6824F001041C601C6824F42B
:100C380080541C601C6821431960196841F0010147
:100C48001960002380F8412080F84030184610BD14
:100C5800022010BD10B590F84140E4B2202C1CD100
:100C680090F84030012B18D0242380F841300368D5
:100C78001A6822F001021A601A6822F4706242EAC5
:100C8800012119601A6842F001021A60002380F8F5
:100C9800414080F84030184610BD022010BD0000C9
:100CA800194B37B51A6C194C42F080521A641B6CF8
:100CB80003F080530193019B236843F4803323603E
:100CC800FFF77AFC05466368DA030CD5236843F41A
:100CD80000332360FFF770FC0C4C054663689B03E8
:100CE8000AD5002006E0FFF767FC401BB0F57A7FC5
:100CF800E9D9032003B030BDFFF75EFC401BB0F517
:100D08007A7FEBD9F5E700BF003802400070004059
:100D18002DE9F341044618B9012002B0BDE8F0817D
:100D28000368D80710D4236899075ED42368190785
:100D380000F1A38023685A0700F1C480A269002A41
:100D480040F02E810020E8E7934B9A6802F00C02ED
:100D5800042A07D09A6802F00C02082A0AD15B68B4
:100D68005A0207D58C4B1B689B03DCD56368002BA4
:100D7800D9D1D1E76368884DB3F5803F11D12B688D
:100D880043F480332B60FFF717FC834D06462B682E
:100D98009F03C8D4FFF710FC801B6428F7D90320F1
:100DA800BBE79BB92B6823F480332B602B6823F4B3
:100DB80080232B60FFF700FC06462B689803B2D50A
:100DC800FFF7FAFB801B6428F7D9E8E7B3F5A02FF3
:100DD8002B6803D143F480232B60D0E723F48033BE
:100DE8002B602B6823F48023CCE76B4B9A6812F0B6
:100DF8000C0F07D09A6802F00C02082A11D15B6820
:100E080059020ED4644B1A68920702D5E268012A87
:100E180082D11A68216922F0F80242EAC1021A60F6
:100E280084E7E3685C4DBBB12B6843F001032B609A
:100E3800FFF7C2FB06462B689F0707D52B68226978
:100E480023F0F80343EAC2032B606FE7FFF7B4FB14
:100E5800801B0228EFD9A2E72B6823F001032B603F
:100E6800FFF7AAFB06462B6898077FF55FAFFFF7E9
:100E7800A3FB801B0228F6D991E76369464D83B12D
:100E88006B6F43F001036B67FFF796FB06466B6FCA
:100E98009B073FF54FAFFFF78FFB801B0228F6D962
:100EA8007DE76B6F23F001036B67FFF785FB064651
:100EB8006B6F9F077FF53EAFFFF77EFB801B022815
:100EC800F6D96CE7344B1A6CD00027D41A6C01267B
:100ED80042F080521A641B6C03F080530193019B0B
:100EE8002E4D2B68D9051BD5A3682B4D012B27D177
:100EF8002B6F43F001032B6741F28835FFF75CFB4A
:100F0800254F80463B6F9B073FD5002E3FF416AF19
:100F1800214A136C23F0805313640FE70026DFE7A0
:100F28002B6843F480732B60FFF746FB07462B685A
:100F3800DA05D9D4FFF740FBC01B6428F7D92EE7A0
:100F4800ABB92B6F41F2883823F001032B672B6F65
:100F580023F004032B67FFF72FFB07462B6F980737
:100F6800D3D5FFF729FBC01B4045F7D917E7052B59
:100F78002B6F03D143F004032B67B9E723F0010378
:100F88002B672B6F23F00403B5E7FFF715FBA0EBE6
:100F98000800A842B6D902E70038024000700040B5
:100FA800244DAB6803F00C03082B3FF4B5AE2B6857
:100FB800022A23F080732B602FD1FFF7FDFA064633
:100FC8002B68990123D4226AE3691343626A43EACE
:100FD8008213E26A43EA0263226B43EA0273A26A5B
:100FE800144C5208013A43EA02436B602B6843F001
:100FF80080732B60FFF7E0FA054623689A013FF5F6
:10100800A1AEFFF7D9FA401B0228F6D9C7E6FFF7C9
:10101800D3FA801B0228D3D9C1E6FFF7CDFA0446DC
:101028002B689B017FF58EAEFFF7C6FA001B0228DE
:10103800F6D9B4E600380240134908B58B6803F0C6
:101048000C03042B03D0082B03D0104808BD10480C
:1010580008BD4A684B68496802F03F0213F48003F0
:10106800C1F388111ABF0A4800230848A1FB0001F0
:10107800FFF7DEF8044B5B68C3F3014301335B0001
:10108800B0FBF3F008BD00BF003802400024F400B4
:1010980000127A002DE9F0410D46044610B90120EE
:1010A800BDE8F081464A136803F00F038B4228D34A
:1010B80021688F0730D4C80743D4414A136803F026
:1010C8000F039D4267D32268510770D4130707D5D1
:1010D8003C4A2169936823F4604343EAC10393605F
:1010E800FFF7AAFF374B384A9B68C3F30313D35C57
:1010F800D840364B18600020FFF722FA0020BDE8E0
:10110800F081136823F00F030B431360136803F097
:101118000F039942C3D1CBE711F0040F294B03D039
:101128009A6842F4E0529A600E0703D59A6842F42E
:1011380060429A609A68A06822F0F00202439A60BE
:10114800B9E761681F4B01291A681CD112F4003FE6
:10115800A5D09A6841F288381A4E22F003020A4351
:101168009A60FFF729FA0746B368626803F00C0330
:10117800B3EB820FA1D0FFF71FFAC01B4045F3D98C
:101188000320BDE8F081022902D112F0007FDFE7D9
:1011980012F0020FDCE7136823F00F032B431360F0
:1011A800136803F00F039D427FF479AF8BE705497D
:1011B800E0688B6823F4E05303438B6086E700BF45
:1011C800003C024000380240631B00080800002071
:1011D8002DE9F7430268044612F001060BD0BA4B1A
:1011E800996821F400019960466B99683143B6FA11
:1011F80086F67609996012F4002512D0B249E56B9B
:10120800D1F88C30B5F5801F23F4401308BF0126B0
:1012180043EA050316BFB5FA85F500256D09C1F83F
:101228008C30D70210D5A848216CD0F88C30B1F595
:10123800800F23F4400343EA0103C0F88C3000F028
:10124800A981002908BF012512F0807F18BF012657
:10125800900631D59C4B9D4F1A6C42F080521A640F
:101268001B6C03F080530193019B3B6843F480732C
:101278003B60FFF7A1F980463B68D90540F18C81B6
:10128800914F3B6F13F4407340F09181236B03F44B
:101298004072B2F5407F8C4A40F0AF81916823F0EC
:1012A800704021F4F81120F4407001439160C3F3B9
:1012B8000B03116F0B4313672368DF060CD5824AB3
:1012C800D2F88C1021F08071C2F88C10D2F88C10F2
:1012D800A06B0143C2F88C10580408D57A49606E97
:1012E800D1F8902022F440320243C1F8902019042A
:1012F80008D57549A06ED1F8902022F44022024307
:10130800C1F89020DA0308D56F49E06ED1F8902033
:1013180022F440120243C1F890209F0308D56A497D
:10132800206FD1F8902022F440020243C1F89020A7
:10133800580608D56449606CD1F8902022F0030261
:101348000243C1F89020190608D55F49A06CD1F86E
:10135800902022F00C020243C1F89020DA0508D54B
:101368005949E06CD1F8902022F030020243C1F8CC
:1013780090209F0508D55449206DD1F8902022F07F
:10138800C0020243C1F89020580508D54E49606D47
:10139800D1F8902022F440720243C1F89020190538
:1013A80008D54949A06DD1F8902022F44062024343
:1013B800C1F89020DA0408D54349E06DD1F89020AF
:1013C80022F440520243C1F890209F0408D53E49B8
:1013D800206ED1F8902022F440420243C1F89020B8
:1013E800580208D53849A06FD1F8902022F08062C1
:1013F8000243C1F8902099020CD53348E16FD0F828
:101408009020B1F1006F22F0006208BF01250A4365
:10141800C0F8902013F0080F18BF01255A0308D50B
:101428002949606FD1F8902022F040720243C1F838
:1014380090201F0209D52449D4F88000D1F89020C3
:1014480022F080520243C1F89020580109D51E4964
:10145800D4F88400D1F8902022F000520243C1F859
:101468009020190109D51849D4F88800D1F88C20A2
:1014780022F000720243C1F88C20DA0009D5124923
:10148800D4F88C00D1F88C2022F080620243C1F895
:101498008C20012E00F0B580B3F1007F00F0B18000
:1014A800012D75D1084D2B6823F080532B60FFF771
:1014B80083F806462B689F0000F1278121680E03F8
:1014C80006D5E36B43B103E00038024000700040EA
:1014D800CD021DD5236CDBB9934AD2F88830D2F8F7
:1014E800880003F4403300F0E0400343606943EAB6
:1014F8008013A06943EA0063C2F88830D2F88C30C0
:10150800A06A23F4F853013843EA0023C2F88C3068
:10151800880215D5E36FB3F1006F11D1824AD2F872
:101528008830D2F8880003F0706300F0E04003438D
:10153800606943EA8013206A43EA0043C2F88830AE
:101548000A0719D57849D1F88820D1F8883002F0EF
:10155800706203F440331343626943EA8213E26919
:1015680043EA0273C1F88830D1F88C30E26A23F478
:1015780040331343C1F88C306B4C236843F08053DD
:101588002360FFF719F8054623689B0040F1C480E3
:10159800002009E0012657E6FFF70EF8A0EB080047
:1015A80064287FF669AE032003B0BDE8F083226BA0
:1015B80002F4407293423FF469AE3B6F3A6F23F4F2
:1015C800407342F480323A673A6F22F480323A67C5
:1015D8003B673B6FDA077FF559AEFEF7EDFF41F247
:1015E800883980463B6F9B073FF550AEFEF7E4FF16
:1015F800A0EB08004845F5D9D5E7916821F4F81122
:1016080054E6494E336823F080633360FEF7D4FF15
:10161800074633681B0172D42268D70712D5636B5B
:1016280083B9D6F88430D6F8841003F4403301F037
:1016380070610B43616843EA8113A16843EA01734F
:10164800C6F88430160303D5E36BB3F5801F05D0C5
:10165800D0021ED5236CB3F5800F1AD13249D1F8C8
:101668008430D1F8840003F4403300F0E0400343B1
:10167800606843EA8013E06843EA0063C1F8843095
:10168800D1F88C00636A20F01F00013B0343C1F8C6
:101698008C30D10111D52449D1F88430D1F8840097
:1016A80003F0706300F0E0400343606843EA80138E
:1016B800206943EA0043C1F8843092010DD52369BB
:1016C80062681B0443EA8213E26843EA0263A26881
:1016D80043EA0273144AC2F88430134E336843F065
:1016E80080633360FEF768FF074633681B013FF5E8
:1016F800D7AEFEF761FFC01B6428F6D953E7FEF7A3
:101708005BFFC01B642884D94DE7FEF755FF801B9B
:1017180064287FF6CFAE46E7FEF74EFF401B6428ED
:101728007FF632AF3FE700BF003802401FB500F038
:10173800F00300014E21C0B243F004028DF80D30D1
:1017480040F004038DF80C2003AA8DF80F008DF8E3
:101758000E306423034800930423FFF7C1F905B052
:101768005DF804FB2C0000201FB500F0F003000119
:101778004E2143F00502C0B243F001038DF80C205E
:1017880003AA8DF80D3040F0050340F001008DF8F4
:101798000E3064238DF80F00009304230248FFF7EE
:1017A8009FF905B05DF804FB2C00002008B5022065
:1017B800FFF7BCFF2820FFF7B9FF0C20FFF7B6FFA3
:1017C8008020BDE80840FFF7B1BF10B5441E14F8EB
:1017D800010F00B910BDFFF7C7FFF8E730B5B9B082
:1017E80034220021022507A8002400F095F91422CC
:1017F800002102A800F090F90021902214A800F01E
:101808008BF91F4B07A81A6C42F080521A641B6CA4
:101818001C4A03F080530093009B136823F4404351
:1018280043F4804313601368079503F440430D9510
:101838000E940193019B012311950A9310230B9396
:1018480008230F936023109304231293FFF760FA81
:10185800FFF726FA0F23032102A802934FF48053BF
:101868000395059304940694FFF714FC4FF4804302
:1018780014A82D941493FFF7ABFC39B030BD00BF0A
:10188800003802400070004000B589B00025FEF71E
:101898007BFE0126FFF7A2FF1422002103A800F017
:1018A8003BF9304B202130481A6B304C42F0800213
:1018B8001A631A6B02F080020092009A1A6B42F0C7
:1018C80001021A631A6B02F001020192019A1A6B63
:1018D80042F002021A6300221B6B03F00203029318
:1018E800029BFEF7CBFF202303A91F48039305950E
:1018F80006950496FEF7D8FE1D4A20461D4BA560A6
:1019080025616561A561E5612562E66084E80C00F2
:10191800FFF795F829462046FFF776F9294620462D
:10192800154D164CFFF796F9FFF740FF8020FFF79B
:10193800FDFE8020FFF7FAFE2846FFF746FFC0208D
:10194800FFF7F4FE2046FFF740FF4FF4FA60FEF77A
:1019580039FE0120FFF7EAFE4FF47A70FEF732FEF7
:10196800E7E700BF00380240000002402C000020DA
:10197800005400405D3E3020481B0008551B0008FD
:101988000A4B82B01A6C42F080521A641A6C02F048
:1019980080520092009A5A6C42F480425A645B6CFE
:1019A80003F480430193019B02B070470038024062
:1019B80010B588B004461422002103A800F0ACF842
:1019C8002268134B9A4221D1124C03A91248236B67
:1019D80043F002032363236B03F002030193019B8B
:1019E8004FF44073039312230493012305930323B5
:1019F800069304230793FEF757FE236C43F4001362
:101A08002364236C03F400130293029B08B010BDF7
:101A18000054004000380240000402407047FEE7CE
:101A2800FEE7FEE7FEE7704770477047FEF7B8BD70
:101A38000F490020D1F8883043F47003C1F888308A
:101A48000C4B1A6842F001021A6098601A6822F07A
:101A5800847222F480321A60074A5A601A6822F4A3
:101A680080221A60D8604FF000638B60704700BF17
:101A780000ED00E00038024010300024DFF834D0D8
:101A8800002103E00C4B5B58435004310B480C4BCE
:101A980042189A42F6D30B4A02E0002342F8043B6C
:101AA800094B9A42F9D3FFF7C3FF00F011F8FFF78B
:101AB800EBFE704700000820841B0008000000208F
:101AC8000C0000200C0000207C000020FEE7000035
:101AD80070B50D4E0D4CA41BA4100025A54209D1CC
:101AE8000B4E0C4C00F020F8A41BA4100025A542B6
:101AF80005D170BD56F8253098470135EEE756F800
:101B0800253098470135F2E77C1B00087C1B00084C
:101B18007C1B0008801B000802440346934200D146
:101B2800704703F8011BF9E7F8B500BFF8BC08BC1B
:101B38009E467047F8B500BFF8BC08BC9E46704783
:101B48004E41454C202620494E415941004D657370
:101B58002042454245532021212100000000000079
:0C1B680000000001020304060708090049
:081B7400F4E6FF7F0100000010
:041B7C001D0200083E
:041B8000F90100085F
:0C1B840001000000100000000024F4002C
:0400000508001A8550
:00000001FF
